:100A4E00A2AF9209C2AFEF54C0FFC3EE94F04009BB
:100A5E00EE94F450047C0480027C0875A15575A1B7
:100A6E00AAEC42B18E858F84758F80E4F58EE58673
:100A7E0030E6107586A6E58630E1047D028006E438
:100A8E00FD80027D0175A15575A1AAECF452B1A2AB
:060A9E000992AFCFEDCF7D
:010AA400222F
:100AA500A2AF920AC2AFC3EE94F04009EE94F4509F
:100AB5000479048002790875A15575A1AAE942B1A6
:100AC5008E858F84758F80CFEDCF8F8EE58630E64E
:100AD5001075869AE58630E1047C028006E4FC8088
:100AE500027C0175A15575A1AAE9F452B1A20A9239
:040AF500AFCFECCFC4
:010AF90022DA
:0D07700090005DEBF090005BEEF0A3EFF069
:10077D00A2AF920BC2AFC3EE94F0400C90005BE0C1
:10078D0094F4500479048002790875A15575A1AAD5
:10079D00E942B190005BA3E0543FFFC374409FFE5C
:1007AD00A3E0D39E40037FFC22ED543F6F60037F97
:1007BD00FB2290005BE0F8A3E0F5828883858385BA
:1007CD0085828490005DE02F14F58FCFEDCF8F8261
:1007DD00ECF583E58630E61075869AE58630E10402
:1007ED007A028006E4FA80027A0175A15575A1AAF4
:0B07FD00E9F452B1A20B92AFCFEACF9B
:0108080022CD
:10092A00900050EEF0A3EFF0A3EBF0A3EAF0A3E9F6
:01093A00F0CC
:10093B00E4FFFE900055E06E7003A3E06F604890FB
:10094B000050E0FCA3E0F5828C83E493FD90005211
:10095B00E0FBA3E0FAA3E0F98F828E83ED1203682C
:10096B00900050E0B4FF0BA3E0B4FF060FBF0000F4
:10097B008015900051E004F07006900050E004F0F8
:07098B000FBF00010E80AC5C
:010992002242
:100AFA00A2AF920CC2AF75A15575A1AA43B104EF7A
:100B0A00FB7585008B84758F80CFEDCF8F8E7586B0
:100B1A0099E58630E1047E028002E4FE75A15575EE
:0C0B2A00A1AA53B1FBA20C92AFCFEECFFA
:010B3600229C
:100993007585008F8475868DAF8EAE8FE4FCFD90D8
:1009A300005712046B900057E0FCA3E0FDA3E0FEA8
:1009B300A3E0FF781012045890005712046B9000C4
:1009C30057E0F8A3E0F9A3E0FAA3E0FBAF84AE8518
:1009D300EB4FFFEA4EFEE9FDE8FC90005712046B73
:0E09E300900057E0FCA3E0FDA3E0FEA3E0FFC0
:0109F10022E3
:1009F200546F7563684B65792064656D6F207374FD
:100A0200617274202E2E2E0A002059256420000ABD
:100A120000636820256420707265737365642C76A8
:100A2200616C75653A25640A006368202564207547
:100A3200702C76616C75653A25640A001E1E1E1EB6
:0C0A42001E1E1E1E1E1E1E1E1E1E1E1E40
:050C2A0042004E000035
:100BD600D3EF9DEE9C4007EF9DFFEE9CFE22C3EDFA
:060BE6009FFFEC9EFE22C1
:0A0BFE0043A03C5394C343953C22EE
:100B3700EFD394035029ED6014EF2402FF7401C82A
:100B4700EFC8088002C333D8FCF452A022EF240276
:100B5700FF7401C8EFC8088002C333D8FC42A02243
:100572009000007464F07E017F407D007B017A0070
:1005820079001204A8120BEC7F147E00120BA81241
:1005920008097BFF7A0979F212006E120BFE120033
:1005A20000E490004EF0A3F07F64FE120BA89000CE
:1005B200017408F0900001E0FF900A3E93FD1200E2
:1005C20000900001E0FD25E0242EF582E43400F5E0
:1005D20083EEF0A3EFF07BFF7A0A790BED25E0249E
:1005E2002EF582E43400F583E0FFA3E0900009CF0A
:1005F200F0A3EFF012006E900001E004F0E0B40C02
:10060200B37BFF7A0A791112006E900000E060223B
:10061200A37408F0900001E0640C60EEE0FF900A21
:100622003E93FD120000900000E014F0A3E004F0FD
:1006320080E29000017408F0900001E0640C60CA4E
:10064200E0FF900A3E93FD120000900002EEF0FCE3
:10065200A3EFF0FD900001E025E0242EF582E434C2
:1006620000F583E0FEA3E0FF120BD6900004EEF04B
:10067200A3EFF0D394E8EE94034077900001E0FFFB
:1006820074017E00C8EFC8088005C333CE33CED8CC
:10069200F9FF90004EE05EFEA3E05F4E70317BFFFB
:1006A2007A0A7913900001E0FF900009E4F0A3EFC9
:1006B200F0900002E0FFA3E090000BCFF0A3EFF078
:1006C20012006E900001E024F8FF7D01120B3790BA
:1006D2000001E0FF74017E00C8EFC8088005C33343
:1006E200CE33CED8F9FF90004EE04EF0A3E04FF0AB
:1006F2008073C3900005E09432900004E0940050AF
:1007020064900001E0F974017E00C8E9C808800520
:10071200C333CE33CED8F9FF90004EE05EFCA3E0A7
:100722005F4C6041EFF4FFEEF4FE90004EE05EF0AD
:10073200A3E05FF07BFF7A0A792B900001E0FF9043
:100742000009E4F0A3EFF0900002E0FFA3E09000C4
:100752000BCFF0A3EFF012006E900001E024F8FF3F
:0E076200E4FD120B37900001E004F002063AAD
:100BEC0075A15575A1AAE5B954F84405F5B9E4F514
:020BFC00A12234
:100B8E00EF4E601505A105A105A105A105A105A1C1
:0A0B9E0005A1EF1F70EA1E80E72298
:100BA800AD07AC06ED4C600E7FE87E03120B8EEDB0
:070BB8001D70F11C80EE220C
:080C12009021E9E04410F022FA
:10080900C29FD29EC29DC2CDC2CC438780900006B2
:1008190012047700000082E47B0AFAF9F8900006D6
:10082900E0FCA3E0FDA3E0FEA3E0FF1203C69000F5
:100839000AEBF0900006E0FCA3E0FDA3E0FEA3E0D4
:10084900FFE47B0AFAF9F81203C690000612046B5A
:1008590090000AE0C39405401F900006E0FCA3E065
:10086900FDA3E0FEA3E02401FFE43EFEE43DFDE438
:100879003CFC90000612046BE589540F4420F5896D
:1008890043C9A0900006A3A3A3E0F404F58DD28E7A
:04089900D299D29C82
:01089D002238
:080C1A003098FDC298AF992249
:080C22008F993099FDC299225F
:100BBF0075A15575A1AAEF600543B101800353B12B
:070BCF00FEE4F5A1F5FF2291
:030C30008FFF2211
:0A0C080075A15575A1AA43B1102291
:0300000002089E55
:0C089E00787FE4F6D8FD7581210208E5A2
:10036800F8BB010DE58229F582E5833AF583E8F0CB
:10037800225006E92582C8F622BBFE05E92582C877
:02038800F2225F
:10038A0075F008758200EF2FFFEE33FECD33CDCC2A
:10039A0033CCC58233C5829BED9AEC99E5829840AD
:1003AA000CF582EE9BFEED9AFDEC99FC0FD5F0D68A
:1003BA00E4CEFBE4CDFAE4CCF9A88222B800C1B9B4
:1003CA000059BA002DEC8BF084CFCECDFCE5F0CBF2
:1003DA00F97818EF2FFFEE33FEED33FDEC33FCEB2B
:1003EA0033FB10D703994004EB99FB0FD8E5E4F9E6
:1003FA00FA227818EF2FFFEE33FEED33FDEC33FCD3
:10040A00C933C910D7059BE99A4007EC9BFCE99AC6
:10041A00F90FD8E0E4C9FAE4CCFB2275F010EF2F0B
:10042A00FFEE33FEED33FDCC33CCC833C810D7070B
:10043A009BEC9AE899400AED9BFDEC9AFCE899F846
:0E044A000FD5F0DAE4CDFBE4CCFAE4C8F922D9
:10045800E8600FEFC333FFEE33FEED33FDEC33FC02
:03046800D8F122A6
:0C046B00ECF0A3EDF0A3EEF0A3EFF02204
:10047700A8828583F0D083D08212048E12048E1254
:10048700048E12048EE473E493A3C583C5F0C58379
:10049700C8C582C8F0A3C583C5F0C583C8C582C8CF
:0104A7002232
:10000300E5082409F582E43400F583E0050822902D
:100013000006300703900009E475F00112052C0275
:1000230004D42000E97F2ED2008018EF540F2490CF
:10003300D43440D4FF30040BEF24BFB41A00500370
:100043002461FFE50960021509050CE50C70020542
:100053000B30070E900006E475F00112052CEF0239
:10006300051A020B677403D2078003E4C207F5087D
:10007300900006120543E4F509F50BF50CE509605C
:10008300077F2012004680F5750AFFC201C200C235
:1000930002C203C205C206C208120012FF700D306D
:1000A30007057F00120057AF0CAE0B22B4255FC2C9
:1000B300D5C204120012FF24D0B40A00501A75F0FE
:1000C3000A780930D50508B6FF0106C6A426F6202E
:1000D300D5047002D20380D924CFB41A00EF5004A0
:1000E300C2E5D204020258D20180C6D20080C0D237
:1000F3000280BCD2D580BAD20580B47F20120046DC
:100103002002077401B5090040F1120003FF120039
:1001130046020080D208D2068095120003FB12002B
:1001230003FA120003F94A4B700679297A037BFF1D
:1001330020022EE509602A7E008E82758300120458
:10014300ED60060EEE650A70F0C2D5EBC0E0EAC0C2
:10015300E0E9C0E0EE12029FD0E0F9D0E0FAD0E08F
:10016300FB1204D4FF60AAEBC0E0EAC0E0E9C0E000
:10017300120046D0E02401F9D0E03400FAD0E0FBCD
:10018300E50A0460DCD50AD980877BFF7A02799B74
:10019300D202809C791080027908C206C2088008C6
:1001A300D2D5790A8004790AC2D5E50A047002F52A
:1001B3000AE4FAFDFEFF120003FC7B082001131280
:1001C3000003FD7B1030000A120003FE120003FF40
:1001D3007B20EC3382D592D55013C3E43000069FC5
:1001E300FFE49EFEE42001039DFDE49CFCE4CBF8C8
:1001F300C201EC700CCFCECDCCE824F8F870F380BC
:1002030017C3EF33FFEE33FEED33FDEC33FCEB337B
:10021300FB994002FB0FD8E9EB300105F8D0E0C4AD
:1002230048B201C0E00AEC4D4E4F78207B0070C20B
:10023300EAB50A0040BCC0E01202A1D0F0D0E02031
:100243000104C4C0E0C4B201C0F012002FD0F0D545
:10025300F0EB02008012054C011D5301975800EE8C
:100263004C00EA42019B4F01A34401A3490103430C
:0802730001A955018D46018D22
:10027B0045018D4703495000F22D00F62E01192B35
:10028B0000FA2301172003322A00B24800000111A3
:10029B003F3F3F00790AA2D5200314300509B9105E
:1002AB00020404B9080104A2D5200602500104205F
:1002BB0002689202B509005034C0E07F2030031968
:1002CB007F30A20272067205500F1202F8C202C2F0
:1002DB0006C205C2087F30800F300503E9C0E0126B
:1002EB000046300503D0E0F9D0E0B509CC30051756
:1002FB007F30B9100C1200467F583004077F78808E
:10030B0003B908031200463002057F2D0200467F19
:10031B00202008F87F2B2006F322920280CF286E34
:10032B00756C6C2900D2011200033001F8C2017800
:10033B000930D50108F60200B22D5043495812007E
:10034B00032403B405004001E490034493120037E7
:0D035B00743A120037D203750904020197AD
:1004A800EF4E6012EF60010EEDBB010B89828A836B
:1004B800F0A3DFFCDEFA2289F05007F709DFFCA978
:0C04C800F022BBFEFCF309DFFCA9F022CF
:1008AA00020572E493A3F8E493A34003F68001F2ED
:1008BA0008DFF48029E493A3F85407240CC8C3334F
:1008CA00C4540F4420C8834004F456800146F6DF1E
:1008DA00E4800B0102040810204080900C2AE47E78
:1008EA00019360BCA3FF543F30E509541FFEE49313
:1008FA00A360010ECF54C025E060A840B8E493A3DA
:10090A00FAE493A3F8E493A3C8C582C8CAC583CA04
:10091A00F0A3C8C582C8CAC583CADFE9DEE780BEBC
:010C2F0000C4
:1004D400BB010689828A83E0225002E722BBFE0226
:0904E400E32289828A83E4932259
:1004ED00BB010CE58229F582E5833AF583E02250C4
:1004FD0006E92582F8E622BBFE06E92582F8E2220E
:0D050D00E58229F582E5833AF583E4932227
:10051A00BB010689828A83F0225002F722BBFE01C0
:02052A00F322BA
:10052C00F8E0FBA3A3E0F925F0F0E5821582700258
:07053C001583E0FA38F022FC
:09054300EBF0A3EAF0A3E9F022B9
:10054C00D083D082F8E4937012740193700DA3A33E
:10055C0093F8740193F5828883E473740293686052
:06056C00EFA3A3A380DF52
:100B6700EFB40A07740D120B72740A309811A89922
:100B7700B8130CC2983098FDA899C298B811F630EE
:070B870099FDC299F59922C6
:00000001FF
