:100B9300A2AF9200C2AFEF54C0FFC3EE94F040097E
:100BA300EE94F450047C0480027C0875A15575A171
:100BB300AAEC42B18E858F84758F80E4F58EE5862D
:100BC30030E6107586A6E58630E1047D028006E4F2
:100BD300FD80027D0175A15575A1AAECF452B1A265
:060BE3000092AFCFEDCF40
:010BE90022E9
:100BEA00A2AF9200C2AFC3EE94F04009EE94F45063
:100BFA000479048002790875A15575A1AAE942B160
:100C0A008E858F84758F80CFEDCF8F8EE58630E607
:100C1A001075869AE58630E1047C028006E4FC8041
:100C2A00027C0175A15575A1AAE9F452B1A20092FC
:040C3A00AFCFECCF7D
:010C3E002293
:0D099D00900084EBF0900082EEF0A3EFF0EC
:1009AA00A2AF9200C2AFC3EE94F0400C900082E076
:1009BA0094F4500479048002790875A15575A1AAA6
:1009CA00E942B1900082A3E0543FFFC374409FFE06
:1009DA00A3E0D39E40037FFC22ED543F6F60037F68
:1009EA00FB22900082E0F8A3E0F582888385838564
:1009FA00858284900084E02F14F58FCFEDCF8F820B
:100A0A00ECF583E58630E61075869AE58630E104D2
:100A1A007A028006E4FA80027A0175A15575A1AAC4
:0B0A2A00E9F452B1A20092AFCFEACF76
:010A3500229E
:100ACB00900082EEF0A3EFF0A3EBF0A3EAF0A3E922
:010ADB00F02A
:100ADC00E4FFFE900087E06E7003A3E06F60489027
:100AEC000082E0FCA3E0F5828C83E493FD9000840B
:100AFC00E0FBA3E0FAA3E0F98F828E83ED12068768
:100B0C00900082E0B4FF0BA3E0B4FF060FBF00001F
:100B1C008015900083E004F07006900082E004F0F1
:070B2C000FBF00010E80ACB9
:010B3300229F
:100C3F00A2AF9209C2AF75A15575A1AA43B104EF36
:100C4F00FB7585008B84758F80CFEDCF8F8E75866A
:100C5F0099E58630E1047E028002E4FE75A15575A8
:0C0C6F00A1AA53B1FBA20992AFCFEECFB7
:010C7B002256
:100B34007585008F8475868DAF8EAE8FE4FCFD9035
:100B4400008212078A900082E0FCA3E0FDA3E0FE8D
:100B5400A3E0FF781012077790008212078A9000B2
:100B640082E0F8A3E0F9A3E0FAA3E0FBAF84AE854A
:100B7400EB4FFFEA4EFEE9FDE8FC90008212078A83
:0E0B8400900082E0FCA3E0FDA3E0FEA3E0FFF2
:010B92002240
:10089100434849505F49443A253032780A00455867
:1008A100414D20202044617461466C6173680A00E7
:1008B100526561642044617461466C6173680A0029
:1008C100616464723A2530347820446174613A2558
:1008D1003032780A00577269746542797465204430
:1008E100617461466C6173683A0A002D2D2D2D2DBE
:1008F1002D2D2D2D2D2D2D20466C61736850726F7D
:100901006742797465206572726F720A0057726965
:100911007465506167652044617461466C617368F8
:100921003A0A002D2D2D2D2D2D2D2D2D2D2D2D2046
:10093100466C61736850726F6742797465206572A5
:10094100726F723A25780A00436F6E6669672049B3
:100951006E666F726D6174696F6E20526561642E8F
:100961002E2E0A007265616C206C656E3A25640A50
:10097100006366673A2530327820253032780A00E4
:10098100556E697175652049442E2E2E0A00307806
:0C099100256C7820003078256C780A0076
:100368007F327E00120CBD120CEB120A36120D13EE
:100378007BFF7A087991AFA1900085E4F0A3EFF0B4
:1003880012006E7BFF7A08799F12006EE49000805D
:10039800F0A3F0900080E0FEA3E0FFC39402EE9487
:1003A800005024EF7806C333CE33CED8F92400FFAB
:1003B800EE34F0FE120B93900081E004F070D490BC
:1003C8000080E004F080CC7E007F807D007B017A95
:1003D8000079001207C77BFF7A0879B112006E7B9B
:1003E800017A007900900087E4F0A37480F07F0020
:1003F8007EF0120ACBE4900080F0A3F0900080E039
:10040800FEA3E0FFC39480EE940050347BFF7A088B
:1004180079C1900085EEF0A3EFF02400F582740016
:100428003EF583E0FF900087E4F0A3EFF012006E42
:10043800900081E004F070C4900080E004F080BC7B
:100448007BFF7A0879D612006EE4900080F0A3F062
:10045800900080E0FCA3E0FD2400FFEC34F0FEED0A
:10046800120BEAEF60097BFF7A0879EC12006E90B4
:100478000081E004F07006900080E004F0C3900072
:1004880081E09480900080E0940040C47E007F80EA
:100498007D007B017A0079001207C77BFF7A087913
:1004A800B112006E7B017A007900900087E4F0A316
:1004B8007480F07F007EF0120ACBE4900080F0A3F5
:1004C800F0900080E0FEA3E0FFC39480EE9400501B
:1004D800347BFF7A0879C1900085EEF0A3EFF02411
:1004E80000F58274003EF583E0FF900087E4F0A3F6
:1004F800EFF012006E900081E004F070C49000806C
:10050800E004F080BCE4900080F0A3F0900080E06C
:10051800FEA3E0FFC39402EE94005024EF7806C3D4
:1005280033CE33CED8F92400FFEE34F0FE120B930D
:10053800900081E004F070D4900080E004F080CC5A
:100548007BFF7A09790E12006E7E007F407D5A7B10
:10055800017A0079001207C77C007D007B407F008C
:100568007EF012099DEF60097BFF7A097924120059
:100578006E7E007F807D007B017A0079001207C7BC
:100588007BFF7A0879B112006E7B017A00790090BE
:100598000087E4F0A37480F07F007EF0120ACBE4B9
:1005A800900080F0A3F0900080E0FEA3E0FFC394E9
:1005B80080EE940050347BFF7A0879C1900085EE74
:1005C800F0A3EFF02400F58274003EF583E0FF907D
:1005D8000087E4F0A3EFF012006E900081E004F0D1
:1005E80070C4900080E004F080BC7BFF7A097949F0
:1005F80012006E7B017A007900900087E4F0A37402
:1006080002F07FFE7EFF120ACB900080E4F0A3EF99
:10061800F07BFF7A097965900080E0FFA3E0900005
:1006280085CFF0A3EFF012006E7BFF7A0979729004
:100638000001E0FF900085E4F0A3EFF0900000E0F7
:10064800FF900087E4F0A3EFF012006E7BFF7A09B9
:10065800798112006E7F14120B3490008512078A7C
:100668007BFF7A09798F12006E7F10120B3490008D
:0F0678008512078A7BFF7A09799612006E80FE41
:100CEB0075A15575A1AAE5B954F84405F5B9E4F514
:020CFB00A12234
:100CA300EF4E601505A105A105A105A105A105A1AB
:0A0CB30005A1EF1F70EA1E80E72282
:100CBD00AD07AC06ED4C600E7FE87E03120CA3ED84
:070CCD001D70F11C80EE22F6
:080D13009021E9E04410F022F8
:100A3600C29FD29EC29DC2CDC2CC43878090008207
:100A460012079600000082E47B0AFAF9F890008209
:100A5600E0FCA3E0FDA3E0FEA3E0FF1206E59000A4
:100A660086EBF0900082E0FCA3E0FDA3E0FEA3E0AD
:100A7600FFE47B0AFAF9F81206E590008212078A6B
:100A8600900086E0C39405401F900082E0FCA3E03E
:100A9600FDA3E0FEA3E02401FFE43EFEE43DFDE409
:100AA6003CFC90008212078AE589540F4420F589A0
:100AB60043C9A0900082A3A3A3E0F404F58DD28ECF
:040AC600D299D29C53
:010ACA002209
:080D1B003098FDC298AF992247
:080D23008F993099FDC299225D
:100CD40075A15575A1AAEF600543B101800353B115
:070CE400FEE4F5A1F5FF227B
:030D2B008FFF2215
:0A0D090075A15575A1AA43B110228F
:010D2E0022A2
:03000000020CFDF2
:0C0CFD00787FE4F6D8FD758121020368C1
:10068700F8BB010DE58229F582E5833AF583E8F0A9
:10069700225006E92582C8F622BBFE05E92582C855
:0206A700F2223D
:1006A90075F008758200EF2FFFEE33FECD33CDCC08
:1006B90033CCC58233C5829BED9AEC99E58298408B
:1006C9000CF582EE9BFEED9AFDEC99FC0FD5F0D668
:1006D900E4CEFBE4CDFAE4CCF9A88222B800C1B992
:1006E9000059BA002DEC8BF084CFCECDFCE5F0CBD0
:1006F900F97818EF2FFFEE33FEED33FDEC33FCEB09
:1007090033FB10D703994004EB99FB0FD8E5E4F9C3
:10071900FA227818EF2FFFEE33FEED33FDEC33FCB0
:10072900C933C910D7059BE99A4007EC9BFCE99AA4
:10073900F90FD8E0E4C9FAE4CCFB2275F010EF2FE9
:10074900FFEE33FEED33FDCC33CCC833C810D707E9
:100759009BEC9AE899400AED9BFDEC9AFCE899F824
:0E0769000FD5F0DAE4CDFBE4CCFAE4C8F922B7
:10077700E8600FEFC333FFEE33FEED33FDEC33FCE0
:03078700D8F12284
:0C078A00ECF0A3EDF0A3EEF0A3EFF022E2
:10079600A8828583F0D083D0821207AD1207AD12EE
:1007A60007AD1207ADE473E493A3C583C5F0C58313
:1007B600C8C582C8F0A3C583C5F0C583C8C582C8AD
:0107C6002210
:10000300E5082485F582E43400F583E005082290B1
:100013000082300703900085E475F00112084B025B
:1000230007F32000E97F2ED2008018EF540F2490AD
:10003300D43440D4FF30040BEF24BFB41A00500370
:100043002461FFE50960021509050CE50C70020542
:100053000B30070E900082E475F00112084BEF029B
:100063000839020C7C7403D2078003E4C207F50845
:10007300900082120862E4F509F50BF50CE50960BE
:10008300077F2012004680F5750AFFC201C200C235
:1000930002C203C205C206C208120012FF700D306D
:1000A30007057F00120057AF0CAE0B22B4255FC2C9
:1000B300D5C204120012FF24D0B40A00501A75F0FE
:1000C3000A780930D50508B6FF0106C6A426F6202E
:1000D300D5047002D20380D924CFB41A00EF5004A0
:1000E300C2E5D204020258D20180C6D20080C0D237
:1000F3000280BCD2D580BAD20580B47F20120046DC
:100103002002077401B5090040F1120003FF120039
:1001130046020080D208D2068095120003FB12002B
:1001230003FA120003F94A4B700679297A037BFF1D
:1001330020022EE509602A7E008E82758300120854
:100143000C60060EEE650A70F0C2D5EBC0E0EAC0A3
:10015300E0E9C0E0EE12029FD0E0F9D0E0FAD0E08F
:10016300FB1207F3FF60AAEBC0E0EAC0E0E9C0E0DE
:10017300120046D0E02401F9D0E03400FAD0E0FBCD
:10018300E50A0460DCD50AD980877BFF7A02799B74
:10019300D202809C791080027908C206C2088008C6
:1001A300D2D5790A8004790AC2D5E50A047002F52A
:1001B3000AE4FAFDFEFF120003FC7B082001131280
:1001C3000003FD7B1030000A120003FE120003FF40
:1001D3007B20EC3382D592D55013C3E43000069FC5
:1001E300FFE49EFEE42001039DFDE49CFCE4CBF8C8
:1001F300C201EC700CCFCECDCCE824F8F870F380BC
:1002030017C3EF33FFEE33FEED33FDEC33FCEB337B
:10021300FB994002FB0FD8E9EB300105F8D0E0C4AD
:1002230048B201C0E00AEC4D4E4F78207B0070C20B
:10023300EAB50A0040BCC0E01202A1D0F0D0E02031
:100243000104C4C0E0C4B201C0F012002FD0F0D545
:10025300F0EB02008012086B011D5301975800EE6A
:100263004C00EA42019B4F01A34401A3490103430C
:0802730001A955018D46018D22
:10027B0045018D4703495000F22D00F62E01192B35
:10028B0000FA2301172003322A00B24800000111A3
:10029B003F3F3F00790AA2D5200314300509B9105E
:1002AB00020404B9080104A2D5200602500104205F
:1002BB0002689202B509005034C0E07F2030031968
:1002CB007F30A20272067205500F1202F8C202C2F0
:1002DB0006C205C2087F30800F300503E9C0E0126B
:1002EB000046300503D0E0F9D0E0B509CC30051756
:1002FB007F30B9100C1200467F583004077F78808E
:10030B0003B908031200463002057F2D0200467F19
:10031B00202008F87F2B2006F322920280CF286E34
:10032B00756C6C2900D2011200033001F8C2017800
:10033B000930D50108F60200B22D5043495812007E
:10034B00032403B405004001E490034493120037E7
:0D035B00743A120037D203750904020197AD
:1007C700EF4E6012EF60010EEDBB010B89828A8349
:1007D700F0A3DFFCDEFA2289F05007F709DFFCA956
:0C07E700F022BBFEFCF309DFFCA9F022AD
:1007F300BB010689828A83E0225002E722BBFE0204
:09080300E32289828A83E4932236
:10080C00BB010CE58229F582E5833AF583E02250A1
:10081C0006E92582F8E622BBFE06E92582F8E222EB
:0D082C00E58229F582E5833AF583E4932205
:10083900BB010689828A83F0225002F722BBFE019E
:02084900F32298
:10084B00F8E0FBA3A3E0F925F0F0E5821582700236
:07085B001583E0FA38F022DA
:09086200EBF0A3EAF0A3E9F02297
:10086B00D083D082F8E4937012740193700DA3A31C
:10087B0093F8740193F5828883E473740293686030
:06088B00EFA3A3A380DF30
:100C7C00EFB40A07740D120C87740A309811A899F6
:100C8C00B8130CC2983098FDA899C298B811F630D8
:070C9C0099FDC299F59922B0
:00000001FF
