:1006200049443D253032580A0055415254206465F2
:0E0630006D6F207374617274202E2E2E0A00DE
:1000030012069C7F147E0012003C1205641206E85F
:100013007BFF7A067920AFA1900003E4F0A3EFF011
:100023001200C17BFF7A0679291200C112068812D9
:0900330006AEE4900028F080FE06
:1006880053BC7F43BC2043BC1075BEE675BF02D285
:04069800ECD2AF22CF
:0E06AE004392C04393C09021E9E04420F02223
:0B06C800E5BF30E0FB75BF01AFBD22B5
:0B06D3008FBDE5BF30E1FB75BF0222C8
:030053000206584A
:07065800C0E0C0D075D0081E
:0D065F00E5BF30E00875BF01AFBD1206D346
:05066C00D0D0D0E03207
:10069C0075A15575A1AAE5B954F84405F5B9E4F569
:0206AC00A12289
:10063E00EF4E601505A105A105A105A105A105A116
:0A064E0005A1EF1F70EA1E80E722ED
:10003C00AD07AC06ED4C600E7FE87E0312063EED7C
:07004C001D70F11C80EE2283
:0806E8009021E9E04410F0222A
:10056400C29FD29EC29DC2CDC2CC43878090000060
:1005740012049500000082E47B0AFAF9F890000066
:10058400E0FCA3E0FDA3E0FEA3E0FF1203F790006C
:1005940004EBF0900000E0FCA3E0FDA3E0FEA3E088
:1005A400FFE47B0AFAF9F81203F7900000120489B9
:1005B400900004E0C39405401F900000E0FCA3E019
:1005C400FDA3E0FEA3E02401FFE43EFEE43DFDE4E0
:1005D4003CFC900000120489E589540F4420F589FD
:1005E40043C9A0900000A3A3A3E0F404F58DD28E28
:0405F400D299D29C2A
:0105F80022E0
:0806F0003098FDC298AF992279
:0806F8008F993099FDC299228F
:1006710075A15575A1AAEF600543B101800353B17E
:07068100FEE4F5A1F5FF22E4
:030700008FFF2246
:0A06DE0075A15575A1AA43B11022C1
:0107030022D3
:030000000206BC39
:0C06BC00787FE4F6D8FD75812102000370
:1003BB0075F008758200EF2FFFEE33FECD33CDCCF9
:1003CB0033CCC58233C5829BED9AEC99E58298407C
:1003DB000CF582EE9BFEED9AFDEC99FC0FD5F0D659
:1003EB00E4CEFBE4CDFAE4CCF9A88222B800C1B983
:1003FB000059BA002DEC8BF084CFCECDFCE5F0CBC1
:10040B00F97818EF2FFFEE33FEED33FDEC33FCEBF9
:10041B0033FB10D703994004EB99FB0FD8E5E4F9B4
:10042B00FA227818EF2FFFEE33FEED33FDEC33FCA1
:10043B00C933C910D7059BE99A4007EC9BFCE99A95
:10044B00F90FD8E0E4C9FAE4CCFB2275F010EF2FDA
:10045B00FFEE33FEED33FDCC33CCC833C810D707DA
:10046B009BEC9AE899400AED9BFDEC9AFCE899F815
:0E047B000FD5F0DAE4CDFBE4CCFAE4C8F922A8
:0C048900ECF0A3EDF0A3EEF0A3EFF022E6
:10049500A8828583F0D083D0821204AC1204AC12FA
:1004A50004AC1204ACE473E493A3C583C5F0C5831F
:1004B500C8C582C8F0A3C583C5F0C583C8C582C8B1
:0104C5002214
:10005600E5102403F582E43400F583E005102290D0
:100066000000300703900003E475F00112051E023C
:1000760004C62000E97F2ED2008018EF540F24908A
:10008600D43440D4FF30040BEF24BFB41A0050031D
:100096002461FFE511600215110514E514700205CF
:1000A6001330070E900000E475F00112051EEF02F2
:1000B600050C0205F97403D2078003E4C207F510A4
:1000C600900000120535E4F511F513F514E51160FD
:1000D600077F2012009980F57512FFC201C200C287
:1000E60002C203C205C206C208120065FF700D30C7
:1000F60007057F001200AAAF14AE1322B4255FC213
:10010600D5C204120065FF24D0B40A00501A75F057
:100116000A781130D50508B6FF0106C6A426F620D2
:10012600D5047002D20380D924CFB41A00EF50044C
:10013600C2E5D2040202ABD20180C6D20080C0D290
:100146000280BCD2D580BAD20580B47F2012009935
:100156002002077401B5110040F1120056FF12008B
:10016600990200D3D208D2068095120056FB1200DF
:1001760056FA120056F94A4B7006797C7A037BFFD1
:1001860020022EE511602A7E008E827583001204FD
:10019600DF60060EEE651270F0C2D5EBC0E0EAC075
:1001A600E0E9C0E0EE1202F2D0E0F9D0E0FAD0E0E9
:1001B600FB1204C6FF60AAEBC0E0EAC0E0E9C0E0BB
:1001C600120099D0E02401F9D0E03400FAD0E0FB27
:1001D600E5120460DCD512D980877BFF7A0279EEBE
:1001E600D202809C791080027908C206C208800873
:1001F600D2D5790A8004790AC2D5E512047002F5CF
:1002060012E4FAFDFEFF120056FC7B0820011312D1
:100216000056FD7B1030000A120056FE120056FFF3
:100226007B20EC3382D592D55013C3E43000069F71
:10023600FFE49EFEE42001039DFDE49CFCE4CBF874
:10024600C201EC700CCFCECDCCE824F8F870F38068
:1002560017C3EF33FFEE33FEED33FDEC33FCEB3328
:10026600FB994002FB0FD8E9EB300105F8D0E0C45A
:1002760048B201C0E00AEC4D4E4F78207B0070C2B8
:10028600EAB5120040BCC0E01202F4D0F0D0E02083
:100296000104C4C0E0C4B201C0F0120082D0F0D59F
:1002A600F0EB0200D312053E01705301EA580141FA
:1002B6004C013D4201EE4F01F64401F64901564319
:0802C60001FC5501E04601E0D6
:1002CE004501E047039C5001452D01492E016C2B41
:1002DE00014D23016A2003852A01054800000164AF
:1002EE003F3F3F00790AA2D5200314300509B9100B
:1002FE00020404B9080104A2D5200602500104200C
:10030E0002689202B511005034C0E07F203003190C
:10031E007F30A20272067205500F12034BC202C248
:10032E0006C205C2087F30800F300503E9C0E01217
:10033E000099300503D0E0F9D0E0B511CC300517A7
:10034E007F30B9100C1200997F583004077F7880E7
:10035E0003B908031200993002057F2D0200997F20
:10036E00202008F87F2B2006F322920280CF286EE1
:10037E00756C6C2900D2011200563001F8C201785A
:10038E001130D50108F60201052D504349581200CF
:10039E00562403B405004001E49003979312008A9B
:0D03AE00743A12008AD2037511040201EAAC
:1004C600BB010689828A83E0225002E722BBFE0234
:0904D600E32289828A83E4932267
:1004DF00BB010CE58229F582E5833AF583E02250D2
:1004EF0006E92582F8E622BBFE06E92582F8E2221C
:0D04FF00E58229F582E5833AF583E4932236
:10050C00BB010689828A83F0225002F722BBFE01CE
:02051C00F322C8
:10051E00F8E0FBA3A3E0F925F0F0E5821582700266
:07052E001583E0FA38F0220A
:09053500EBF0A3EAF0A3E9F022C7
:10053E00D083D082F8E4937012740193700DA3A34C
:10054E0093F8740193F5828883E473740293686060
:06055E00EFA3A3A380DF60
:1005F900EFB40A07740D120604740A309811A89909
:10060900B8130CC2983098FDA899C298B811F63061
:0706190099FDC299F5992239
:00000001FF
