:1007FE00434849505F49443A253032780A004558FB
:10080E00414D20202054696D650A005430205465F6
:10081E007374202E2E2E0A0054325F434150205402
:10082E00657374202E2E2E0A00434150322025303F
:0F083E0034780A004341503120253034780A00C5
:0E09420044005400000000440050000000007B
:100726007F327E001208F01209301206051200030D
:100736007BFF7A0779FEAFA190002BE4F0A3EFF0E0
:100746001200997BFF7A08790C120099C2C0C2C1C7
:10075600C2C27BFF7A08791912009953C9EF7D014D
:10076600E4FF12084D7DD07C07E4FF120880D28C8E
:10077600D2A9D2AF7BFF7A0879261200995392FD4F
:100786005393FD5392FE5393FE53C9BFC2C9E4FD72
:10079600FC7F021208807F0212091E7F0212000EE1
:0807A600D2CAD2ADD2AF80FE31
:03000B000207AE3B
:1007AE00C0E0C0F0C083C082C0D0E8C0E0E9C0E0C5
:1007BE00EAC0E0EBC0E0ECC0E0EDC0E0EEC0E0EF80
:1007CE00C0E0B2C07DD07C07E4FF120880D0E0FF0D
:1007DE00D0E0FED0E0FDD0E0FCD0E0FBD0E0FAD0DF
:1007EE00E0F9D0E0F8D0D0D082D083D0F0D0E03293
:03002B0002053C8F
:10053C00C0E0C0F0C083C082C0D0E8C0E0E9C0E039
:10054C00EAC0E0EBC0E0ECC0E0EDC0E0EEC0E0EFF4
:10055C00C0E030CE3F900054E5CBF0A3E5CAF07B71
:10056C00FF7A087937A3E0FEA3E0FFC3900055E0C3
:10057C009FFF900054E09E90002BF0A3EFF0120030
:10058C0099B2C2900054E0FFA3E0A3CFF0A3EFF028
:10059C00C2CEC2CF30CF3F900050E5CFF0A3E5CE16
:1005AC00F07BFF7A087942A3E0FEA3E0FFC3900042
:1005BC0051E09FFF900050E09E90002BF0A3EFF0D5
:1005CC00120099B2C1900050E0FFA3E0A3CFF0A3BA
:1005DC00EFF0C2CEC2CFD0E0FFD0E0FED0E0FDD035
:1005EC00E0FCD0E0FBD0E0FAD0E0F9D0E0F8D0D0DD
:0905FC00D082D083D0F0D0E032AF
:10084D00EF7009E58954F04DF5898024EFB401115D
:10085D00CFEDCFEFC454F0FFE589540F4FF58980EC
:10086D000FEFB40208C2CDC2CCC2C880037FFF22F5
:03087D007F0022D7
:10088000C3E49DFDE49CFCEF7007EDF58AECF58C6C
:1008900022EFB40107EDF58BECF58D22EFB4020EDB
:0E08A000CFEDCFEDF5CC8FCAECFFF5CD8FCBB1
:0108AE002227
:10091E00C2CDC2CCC2C9D2CBD2C8EF25E025E042AF
:02092E00C922DC
:10000E00C2CDC2CCD2C8D2CBC2C9EF25E025E0FF0B
:0A001E00E5C954FD4F4401F5C92265
:1009300075A15575A1AAE5B954F84405F5B9E4F5D2
:02094000A122F2
:1008D600EF4E601505A105A105A105A105A105A17C
:0A08E60005A1EF1F70EA1E80E72253
:1008F000AD07AC06ED4C600E7FE87E031208D6ED26
:070900001D70F11C80EE22C6
:080003009021E9E04410F02215
:10060500C29FD29EC29DC2CDC2CC43878090002896
:1006150012046D00000082E47B0AFAF9F8900028C4
:10062500E0FCA3E0FDA3E0FEA3E0FF1203CF9000F2
:100635002CEBF0900028E0FCA3E0FDA3E0FEA3E096
:10064500FFE47B0AFAF9F81203CF9000281204613F
:1006550090002CE0C39405401F900028E0FCA3E027
:10066500FDA3E0FEA3E02401FFE43EFEE43DFDE43E
:100675003CFC900028120461E589540F4420F5895B
:1006850043C9A0900028A3A3A3E0F404F58DD28E5E
:04069500D299D29C88
:01069900223E
:08095B003098FDC298AF99220B
:080963008F993099FDC2992221
:1009070075A15575A1AAEF600543B101800353B1E5
:07091700FEE4F5A1F5FF224B
:030028008FFF2225
:0A09510075A15575A1AA43B110224B
:01096B002269
:0300000002069A5B
:0C069A00787FE4F6D8FD7581220206E1AD
:1003930075F008758200EF2FFFEE33FECD33CDCC21
:1003A30033CCC58233C5829BED9AEC99E5829840A4
:1003B3000CF582EE9BFEED9AFDEC99FC0FD5F0D681
:1003C300E4CEFBE4CDFAE4CCF9A88222B800C1B9AB
:1003D3000059BA002DEC8BF084CFCECDFCE5F0CBE9
:1003E300F97818EF2FFFEE33FEED33FDEC33FCEB22
:1003F30033FB10D703994004EB99FB0FD8E5E4F9DD
:10040300FA227818EF2FFFEE33FEED33FDEC33FCC9
:10041300C933C910D7059BE99A4007EC9BFCE99ABD
:10042300F90FD8E0E4C9FAE4CCFB2275F010EF2F02
:10043300FFEE33FEED33FDCC33CCC833C810D70702
:100443009BEC9AE899400AED9BFDEC9AFCE899F83D
:0E0453000FD5F0DAE4CDFBE4CCFAE4C8F922D0
:0C046100ECF0A3EDF0A3EEF0A3EFF0220E
:10046D00A8828583F0D083D0821204841204841272
:10047D000484120484E473E493A3C583C5F0C58397
:10048D00C8C582C8F0A3C583C5F0C583C8C582C8D9
:01049D00223C
:10002E00E50D242BF582E43400F583E0050D2290D6
:10003E00002830100390002BE475F0011204F60234
:10004E00049E2009E97F2ED2098018EF540F2490C8
:10005E00D43440D4FF300D0BEF24BFB41A0050033C
:10006E002461FFE50E6002150E0511E51170020503
:10007E001030100E900028E475F0011204F6EF0215
:10008E0004E40208AF7403D2108003E4C210F50D2D
:10009E0090002812050DE4F50EF510F511E50E6031
:1000AE00077F2012007180F5750FFFC20AC209C2C8
:1000BE000BC20CC20EC20FC21112003DFF700D30EA
:1000CE0010057F00120082AF11AE1022B4255FC260
:1000DE00D5C20D12003DFF24D0B40A00501A75F09F
:1000EE000A780E30D50508B6FF0106C6A426F620FE
:1000FE00D5047002D20C80D924CFB41A00EF50046C
:10010E00C2E5D20D020283D20A80C6D20980C0D2C5
:10011E000B80BCD2D580BAD20E80B47F2012007173
:10012E00200B077401B50E0040F112002EFF1200D5
:10013E00710200ABD211D20F809512002EFB12006D
:10014E002EFA12002EF94A4B700679547A037BFF71
:10015E00200B2EE50E602A7E008E8275830012041F
:10016E00B760060EEE650F70F0C2D5EBC0E0EAC0C8
:10017E00E0E9C0E0EE1202CAD0E0F9D0E0FAD0E039
:10018E00FB12049EFF60AAEBC0E0EAC0E0E9C0E00B
:10019E00120071D0E02401F9D0E03400FAD0E0FB77
:1001AE00E50F0460DCD50FD980877BFF7A0279C614
:1001BE00D20B809C791080027908C20FC211800880
:1001CE00D2D5790A8004790AC2D5E50F047002F5FA
:1001DE000FE4FAFDFEFF12002EFC7B08200A13121C
:1001EE00002EFD7B1030090A12002EFE12002EFF8B
:1001FE007B20EC3382D592D55013C3E43009069F91
:10020E00FFE49EFEE4200A039DFDE49CFCE4CBF893
:10021E00C20AEC700CCFCECDCCE824F8F870F38087
:10022E0017C3EF33FFEE33FEED33FDEC33FCEB3350
:10023E00FB994002FB0FD8E9EB300A05F8D0E0C479
:10024E0048B20AC0E00AEC4D4E4F78207B0070C2D7
:10025E00EAB50F0040BCC0E01202CCD0F0D0E020D6
:10026E000A04C4C0E0C4B20AC0F012005AD0F0D5DD
:10027E00F0EB0200AB12051601485301C2580119EA
:10028E004C01154201C64F01CE4401CE49012E4309
:08029E0001D45501B84601B876
:1002A6004501B847037450011D2D01212E01442B31
:1002B600012523014220035D2A00DD480000013CA0
:1002C6003F3F3F00790AA2D5200C14300E09B91021
:1002D600020404B9080104A2D5200F02500104202B
:1002E6000B68920BB50E005034C0E07F20300C191D
:1002F6007F30A20B720F720E500F120323C20BC275
:100306000FC20EC2117F30800F300E03E9C0E0121B
:100316000071300E03D0E0F9D0E0B50ECC300E17E8
:100326007F30B9100C1200717F58300D077F78802E
:1003360003B90803120071300B057F2D0200717F8F
:10034600202011F87F2B200FF322920B80CF286EEE
:10035600756C6C2900D20A12002E300AF8C20A788F
:100366000E30D50108F60200DD2D50434958120023
:100376002E2403B405004001E490036F931200623B
:0D038600743A120062D20C750E040201C21E
:1006A600020726E493A3F8E493A34003F68001F23D
:1006B60008DFF48029E493A3F85407240CC8C33355
:1006C600C4540F4420C8834004F456800146F6DF24
:1006D600E4800B0102040810204080900942E47E69
:1006E600019360BCA3FF543F30E509541FFEE49319
:1006F600A360010ECF54C025E060A840B8E493A3E0
:10070600FAE493A3F8E493A3C8C582C8CAC583CA0A
:10071600F0A3C8C582C8CAC583CADFE9DEE780BEC2
:0109500000A6
:10049E00BB010689828A83E0225002E722BBFE025C
:0904AE00E32289828A83E493228F
:1004B700BB010CE58229F582E5833AF583E02250FA
:1004C70006E92582F8E622BBFE06E92582F8E22244
:0D04D700E58229F582E5833AF583E493225E
:1004E400BB010689828A83F0225002F722BBFE01F7
:0204F400F322F1
:1004F600F8E0FBA3A3E0F925F0F0E582158270028F
:070506001583E0FA38F02232
:09050D00EBF0A3EAF0A3E9F022EF
:10051600D083D082F8E4937012740193700DA3A374
:1005260093F8740193F5828883E473740293686088
:06053600EFA3A3A380DF88
:1008AF00EFB40A07740D1208BA740A309811A89998
:1008BF00B8130CC2983098FDA899C298B811F630A9
:0708CF0099FDC299F5992281
:00000001FF
