:10076A0053F3FCEF5403440842F343F320D2EB2241
:1005F10053F6F0EFC39400401CEFD394075016AEAE
:10060100937401C8EFC8088002C333D8FCF45EF5C7
:1006110093F5928033EFC394084020EFD3940D50AB
:100621001AAEC5EF24F8FD7401C8EDC8088002C3F5
:1006310033D8FCF45EF5C5F5C4800DEF640E600897
:0E064100EF640F60037FFF22EF42F67F00227E
:1006F2009021EBE054F0F0EF6004E04408F0ED608C
:0E0702000C9021EBE0FFED5407FEEF4EF022CD
:10069E00434849505F49443A253032780A0045585C
:1006AE00414D2020204144430A004368616E6E652F
:0D06BE006C3A2530326420253034640A0087
:100003007F327E0012072A12075812055C120790EE
:100013007BFF7A06799EAFA190002BE4F0A3EFF06B
:100023001200B97BFF7A0679AC1200B990005074C4
:1000330001F07F0212076A900050E0FF1205F1D22F
:06004300AF43F31080FE44
:03004B0002064F5B
:10064F00C0E0C0F0C083C082C0D075D00843F32093
:10065F007BFF7A0679B8900050E0FF04F090002BF2
:10066F00E4F0A3EFF0A3E5F5F0A3E5F4F01200B981
:10067F00900050E0FF1205F143F310900050E0B4EA
:0F068F001002E4F0D0D0D082D083D0F0D0E0328F
:1007580075A15575A1AAE5B954F84405F5B9E4F5AC
:02076800A122CC
:10071000EF4E601505A105A105A105A105A105A143
:0A07200005A1EF1F70EA1E80E7221A
:10072A00AD07AC06ED4C600E7FE87E03120710EDB4
:07073A001D70F11C80EE228E
:080790009021E9E04410F02281
:10055C00C29FD29EC29DC2CDC2CC43878090002840
:10056C0012048D00000082E47B0AFAF9F89000284E
:10057C00E0FCA3E0FDA3E0FEA3E0FF1203EF90007C
:10058C002CEBF0900028E0FCA3E0FDA3E0FEA3E040
:10059C00FFE47B0AFAF9F81203EF900028120481A9
:1005AC0090002CE0C39405401F900028E0FCA3E0D1
:1005BC00FDA3E0FEA3E02401FFE43EFEE43DFDE4E8
:1005CC003CFC900028120481E589540F4420F589E5
:1005DC0043C9A0900028A3A3A3E0F404F58DD28E08
:0405EC00D299D29C32
:0105F00022E8
:080798003098FDC298AF9922D0
:0807A0008F993099FDC29922E6
:1007410075A15575A1AAEF600543B101800353B1AD
:07075100FEE4F5A1F5FF2213
:0307A8008FFF229E
:0A07860075A15575A1AA43B1102218
:010049002294
:0300000002077A7A
:0C077A00787FE4F6D8FD758122020003B0
:1003B30075F008758200EF2FFFEE33FECD33CDCC01
:1003C30033CCC58233C5829BED9AEC99E582984084
:1003D3000CF582EE9BFEED9AFDEC99FC0FD5F0D661
:1003E300E4CEFBE4CDFAE4CCF9A88222B800C1B98B
:1003F3000059BA002DEC8BF084CFCECDFCE5F0CBC9
:10040300F97818EF2FFFEE33FEED33FDEC33FCEB01
:1004130033FB10D703994004EB99FB0FD8E5E4F9BC
:10042300FA227818EF2FFFEE33FEED33FDEC33FCA9
:10043300C933C910D7059BE99A4007EC9BFCE99A9D
:10044300F90FD8E0E4C9FAE4CCFB2275F010EF2FE2
:10045300FFEE33FEED33FDCC33CCC833C810D707E2
:100463009BEC9AE899400AED9BFDEC9AFCE899F81D
:0E0473000FD5F0DAE4CDFBE4CCFAE4C8F922B0
:0C048100ECF0A3EDF0A3EEF0A3EFF022EE
:10048D00A8828583F0D083D0821204A41204A41212
:10049D0004A41204A4E473E493A3C583C5F0C58337
:1004AD00C8C582C8F0A3C583C5F0C583C8C582C8B9
:0104BD00221C
:10004E00E515242BF582E43400F583E005152290A6
:10005E00002830100390002BE475F00112051602F3
:10006E0004BE2009E97F2ED2098018EF540F249088
:10007E00D43440D4FF300D0BEF24BFB41A0050031C
:10008E002461FFE516600215160519E519700205C3
:10009E001830100E900028E475F001120516EF02CC
:1000AE0005040206CB7403D2108003E4C210F515CA
:1000BE0090002812052DE4F516F518F519E51660D1
:1000CE00077F2012009180F57517FFC20AC209C280
:1000DE000BC20CC20EC20FC21112005DFF700D30AA
:1000EE0010057F001200A2AF19AE1822B4255FC210
:1000FE00D5C20D12005DFF24D0B40A00501A75F05F
:10010E000A781630D50508B6FF0106C6A426F620D5
:10011E00D5047002D20C80D924CFB41A00EF50044B
:10012E00C2E5D20D0202A3D20A80C6D20980C0D285
:10013E000B80BCD2D580BAD20E80B47F2012009133
:10014E00200B077401B5160040F112004EFF12008D
:10015E00910200CBD211D20F809512004EFB1200ED
:10016E004EFA12004EF94A4B700679747A037BFFF1
:10017E00200B2EE516602A7E008E827583001204F7
:10018E00D760060EEE651770F0C2D5EBC0E0EAC080
:10019E00E0E9C0E0EE1202EAD0E0F9D0E0FAD0E0F9
:1001AE00FB1204BEFF60AAEBC0E0EAC0E0E9C0E0CB
:1001BE00120091D0E02401F9D0E03400FAD0E0FB37
:1001CE00E5170460DCD517D980877BFF7A0279E6C4
:1001DE00D20B809C791080027908C20FC211800860
:1001EE00D2D5790A8004790AC2D5E517047002F5D2
:1001FE0017E4FAFDFEFF12004EFC7B08200A1312D4
:10020E00004EFD7B1030090A12004EFE12004EFF0A
:10021E007B20EC3382D592D55013C3E43009069F70
:10022E00FFE49EFEE4200A039DFDE49CFCE4CBF873
:10023E00C20AEC700CCFCECDCCE824F8F870F38067
:10024E0017C3EF33FFEE33FEED33FDEC33FCEB3330
:10025E00FB994002FB0FD8E9EB300A05F8D0E0C459
:10026E0048B20AC0E00AEC4D4E4F78207B0070C2B7
:10027E00EAB5170040BCC0E01202ECD0F0D0E0208E
:10028E000A04C4C0E0C4B20AC0F012007AD0F0D59D
:10029E00F0EB0200CB12053601685301E25801392A
:1002AE004C01354201E64F01EE4401EE49014E4349
:0802BE0001F45501D84601D8F6
:1002C6004501D847039450013D2D01412E01642B71
:1002D600014523016220037D2A00FD480000015CE0
:1002E6003F3F3F00790AA2D5200C14300E09B91001
:1002F600020404B9080104A2D5200F02500104200B
:100306000B68920BB516005034C0E07F20300C19F4
:100316007F30A20B720F720E500F120343C20BC234
:100326000FC20EC2117F30800F300E03E9C0E012FB
:100336000091300E03D0E0F9D0E0B516CC300E17A0
:100346007F30B9100C1200917F58300D077F7880EE
:1003560003B90803120091300B057F2D0200917F2F
:10036600202011F87F2B200FF322920B80CF286ECE
:10037600756C6C2900D20A12004E300AF8C20A784F
:100386001630D50108F60200FD2D504349581200DB
:100396004E2403B405004001E490038F93120082BB
:0D03A600743A120082D20C7516040201E2B6
:1004BE00BB010689828A83E0225002E722BBFE023C
:0904CE00E32289828A83E493226F
:1004D700BB010CE58229F582E5833AF583E02250DA
:1004E70006E92582F8E622BBFE06E92582F8E22224
:0D04F700E58229F582E5833AF583E493223E
:10050400BB010689828A83F0225002F722BBFE01D6
:02051400F322D0
:10051600F8E0FBA3A3E0F925F0F0E582158270026E
:070526001583E0FA38F02212
:09052D00EBF0A3EAF0A3E9F022CF
:10053600D083D082F8E4937012740193700DA3A354
:1005460093F8740193F5828883E473740293686068
:06055600EFA3A3A380DF68
:1006CB00EFB40A07740D1206D6740A309811A89964
:1006DB00B8130CC2983098FDA899C298B811F6308F
:0706EB0099FDC299F5992267
:00000001FF
