:1035E20075A15575A1AA43B98053B9BF75A1557587
:0E35F200A1AAE5B954F84405F5B9E4F5A12203
:10365800EF4E601505A105A105A105A105A105A1CC
:0A36680005A1EF1F70EA1E80E722A3
:10368C00AD07AC06ED4C600E7FE87E03123658EDAC
:07369C001D70F11C80EE22FD
:0A1FF50043C40C43C50C43AA10229C
:102EE400C29FD29EC29DC2CDC2CC438780E4752BC3
:102EF40082F52AF529F5287B0AFAF9F8AF2BAE2AD0
:102F0400AD29AC28120198AF038F2CAF2BAE2AAD9C
:102F140029AC28E47B0AFAF9F81201988F2B8E2A3F
:102F24008D298C28E52CC394054011EF2401F52B41
:102F3400E43EF52AE43DF529E43CF528E589540FFF
:102F44004420F58943C9A0E52BF404F58DD28ED233
:032F540099D29C73
:012F57002257
:0A37670075A15575A1AA43B1102207
:1036A30075A15575A1AAEF600543B101800353B11C
:0736B300FEE4F5A1F5FF2282
:0307FB008FFF224B
:100F45005553422064657620696E0A005553422048
:100F5500646576206F75740A005265736574206840
:100F65006F737420706F72740A0044697361626CE8
:100F75006520686F737420706F7274206265636199
:100F8500757365206F6620646973636F6E6E656344
:100F9500740A0047657444657644657363723A2044
:100FA50000782530325820000A004765744366678B
:100FB50044657363723A2000496E6974526F6F74A9
:100FC50044657620457272203D20253032580A004E
:0107FE0022D8
:10341600E4F536E5DA30E01FE55C64016005E5D1E8
:1034260020E02E1207FE755C027BFF7A0F794512AB
:1034360004CD753615801AE55CC394024013120755
:10344600FE7BFF7A0F79511204CDE536700375368F
:0334560016AF3678
:013459002250
:0C374F00EF547FFFE5E354804FF5E322C8
:0E372600EF600753E2BF53D27F2243E24022FE
:1007C7009003007408F0E4FF12374F53D1FE7F0106
:1007D700123726E5D154FB4402F5D17F147E00126F
:1007E700368C53D1FDE5DA30E0FB7F017E0012360F
:0407F7008CC2D822B6
:10360000E55CC394025003755C02E5DA30E00C43DC
:0E361000E20175D24043D1017F00227F1622D5
:103672007F907E0120D909EF1F70011EEF4E70F47A
:0936820030D9047F0080027FFEB4
:01368B00221C
:062A5E008F338A348B3532
:102A6400AF058FD68FD4E4F5DD8533D5C2D97F90F9
:102A74007E0120D909EF1F70011EEF4E70F4E4F5BA
:102A8400D520D9037FFE2230D821C2D8123416BFF4
:102A94001502D20FE55CB401037F1622E55CB40293
:102AA400037F15227FC87E0012365830D95B30DE92
:102AB400037F0022E5D9540FFFBF0E028037BF0AFF
:102AC40020E53545347003EF8038C3E53594FFE5E0
:102AD4003494FF5008E53515357002153415DD8042
:102AE4002BE533C4540F24F7600D24FC6004240C3C
:102AF4007014EF6017800BBF0305EF640B600DEFDC
:102B0400600A4420FF227FFE2275D8FF7F0F7E00DB
:102B140012365805DDAFDDEFC394035003022A6D6E
:022B24007F2010
:012B2600228C
:08240200900042F0E4FDFFFE32
:10240A00E4F530F531AA06A9077B0190039E04F092
:10241A00A3EAF0A3E9F0AF05A9071BA3EBF0A3F029
:10242A00A3E9F07FC87E001236589003A1E0FBA30F
:10243A00E0FAA3E0F9EA494B6004E412013475D7E3
:10244A00087B107A27E4FD7FD0122A5E8F32E532AC
:10245A0060012275D6D075D4D075D701900047E0B7
:10246A00FE900046E0FDEEF530EDF531E531453000
:10247A0070030225CA90039EE0FBA3E0FAA3E0F9E9
:10248A00EA494B70030225CA900040E020E70302A4
:10249A002535E5314530700302252F7FC87E0012AD
:1024AA0036587B107A27ADD47F90122A5E8F32E598
:1024BA0032600122AFDBC3EF9531E495305004AFAF
:1024CA00DB8002AF31EFFDC3E5319DF531E5309494
:1024DA0000F5309003A1E0FBA3E0FAA3E0F9EA4992
:1024EA004B6004EF120112E4FEEE6F602874002EB6
:1024FA00F582E43400F583E0FD90039EE0FBA3E05F
:10250A00FAA3E0F9ED12013490039FE475F0011289
:10251A0001460E80D4E5DB600C900300E01455DB25
:10252A00700302249CE4F5D70225CAE531453070D0
:10253A00030225CA7FC87E00123658900300E0FFC6
:10254A00FDC3E5319DE530940040028002AF318F32
:10255A00D7E4FFEF65D7602890039EE0FBA3E0FA7B
:10256A00A3E0F91200F9FE74402FF582E43400F575
:10257A0083EEF090039FE475F0011201460F80D3B9
:10258A007B107A27ADD67F10122A5E8F32E5326031
:10259A000122AFD7C3E5319FF531E5309400F5301C
:1025AA009003A1E0FBA3E0FAA3E0F9EA494B700328
:1025BA000225359003A1A3A3E5D7120112022535FE
:1025CA007FC87E00123658E5D760047F9080027F6C
:1025DA00107B107A277DC0122A5E8F32E5326001A5
:0F25EA0022E5D77002FF22E5DB7002FF227F1788
:0125F90022BF
:1035A400E4FD8F828E83E493FC74402DF582E43431
:0E35B40000F583ECF00FBF00010E0DBD08E422
:0135C20022E6
:102FCA009003007408F07E177FD01235A47E027F2A
:102FDA00807D2C12240AEF600122900287E0900380
:102FEA0000F09017D6E493FFE52CC39F50037F1798
:032FFA00227F0033
:012FFD0022B1
:10324A007E177FD81235A47E027F807D2C12240A35
:10325A00EF600122900282E0F52C7E177FD81235AA
:10326A00A4900046E52CF07E027F807D2C12240A71
:10327A00EF600122E52CD394404003752C40AF2C1B
:10328A007E0078407C007D017B017A027980120001
:03329A00D37F00DF
:01329D00220E
:023541008F2CCD
:103543007E177FE01235A4E52C122402EF600122DE
:0E355300AF2C12374F7F0A7E0012368C7F009D
:013561002247
:0E373400AB077E177FE81235A4EB12240222A9
:1036E500AB077E177FF01235A4900044EB1224053A
:0136F50022B2
:101ED0007BFF7A0F795E1204CD1207C7E4F528F56F
:101EE000297F017E0012368C123600EF700BF52828
:101EF0000529E529D3946450090528E528C394648D
:101F000040DFE528600F1207FE7BFF7A0F796F1222
:101F100004CD7F16227F01123726122FCA8F29E5A2
:101F2000296003021FDB7BFF7A0F79981204CDE44E
:101F3000F5289017D6E493FFE528C39F501E7BFF3A
:101F40007A0F79A674802528F582E43402F583E0BF
:101F5000753A00F53B1204CD052880D67BFF7A0F39
:101F600079AD1204CD900284E0F52B9017E2E49352
:101F7000FF1235418F29E529706112324A8F29E518
:101F8000297058900285E0F52A7BFF7A0F79AF120D
:101F900004CDE4F528900282E0FFE528C39F501E9F
:101FA0007BFF7A0F79A674802528F582E43402F548
:101FB00083E0753A00F53B1204CD052880D77BFFFE
:101FC0007A0F79AD1204CD90028EE0FFE52B7008F8
:101FD000BF0805755C04FF227FFB227BFF7A0F7927
:101FE000BD753A0085293B1204CD755C027F011254
:041FF0003726AF29B8
:011FF40022CA
:1034CB00C2EA75E28053D17FE4F5E375EB4875E50D
:1034DB000075E40075E70075E640F5D4F5D675E2A6
:0F34EB008875D8FFFF1207FE0FBF02F975E103C6
:0134FA0022AF
:101728004572726F723A20253032580A007374611C
:101738007274202E2E2E0A00576169742044697332
:101748006B52656164790A00253032780A00437269
:10175800656174650A002F4E455746494C452E541D
:101768005854004279746557726974650A004E6F5F
:1017780074653A200D0AD5E2B8F6B3CCD0F2CAC7E0
:10178800D2D4D7D6BDDACEAAB5A5CEBBBDF8D0D0B7
:1017980055C5CCCEC4BCFEB6C1D0B42C353439BC8A
:1017A800F2B5A5D1DDCABEB9A6C4DCA1A30D0A0055
:1017B800B3C9B9A6D0B4C8EB2025303258B4CE0A84
:1017C80000436C6F73650A00800600010000120078
:1017D800800600020000040000050200000000006E
:1017E80000090000000000000201000000000000E5
:062CF4008F288C298D2AB7
:102CFA00E4F52B900048E4F0E56D24F8FFE528A8F8
:102D0A0007088002C333D8FC900049F0A3E4F0A37B
:102D1A00F0A37480F0900384E090004DF0A3740A4D
:102D2A00F0A37428F0A3E4F0A3E553F0A3E554F06C
:102D3A00A3E555F0A3E556F0A3E4F0A3F0A3E52834
:102D4A00F0A3E4F0AF2AAE29121CA4E5647002FFD6
:102D5A0022AF2B1232EE8F64E5646003AF64220562
:0D2D6A002BE52BC39403408B75641F7F1F66
:012D77002239
:062BE6008F288C298D2AC6
:102BEC00E4F52B900048E4F0E56D24F8FFE528A807
:102BFC0007088002C333D8FC900049F0A3E4F0A38B
:102C0C00F0A3F0900384E090004DF0A3740AF0A3BD
:102C1C00742AF0A3E4F0A3E553F0A3E554F0A3E584
:102C2C0055F0A3E556F0A3E4F0A3F0A3E528F0A338
:102C3C00E4F0AF2AAE29121CA4E56470097FC8FE2B
:102C4C001236587F0022AF2B1232EE8F64E564608F
:102C5C0003AF6422052BE52BC39403408675641FD8
:022C6C007F1FC8
:012C6E002243
:1035620053E37FE5E3B40213E5D130E0037F0022A9
:10357200E5DA30E006755C027F0022755C017F1699
:013582002226
:0107FF0022D7
:10349900120FFCEFC3941050037FFF227E007F8040
:1034A9008E618F62900365EEF0A3EFF0E4F55C7531
:1034B9006D09754B029003851202EE000000007F32
:0234C9000022DF
:1036D100EF60107BFF7A177928753A008F3B12044F
:0436E100CD80FE2278
:102736001235E27F147E0012368C122EE47BFF7A6D
:102746001779351204CD1234CB123499C20FE4F541
:102756002330D80EC2D81234168F23E523B41502BF
:10276600D20F200F09E5236415600302284FC20F1C
:102776007FC87E0012368C121ED08F23E52360039D
:1027860002284F755C04F5257BFF7A177940120401
:10279600CD12313D8F23E5237002801D7BFF7A1712
:1027A6007950753A0085233B1204CD7F327E0012A4
:1027B600368C0525E525B40ACFE55CC394055003A0
:1027C60002284F7BFF7A1779561204CD786E7C006B
:1027D6007D007BFF7A17795E1203EB121A518F2365
:1027E6001236D17BFF7A17796B1204CD753AFF75D5
:1027F6003B17753C767B017A0379011204C78F2556
:10280600E4F524AF25786EE4F608EFF6087403F6CF
:10281600087401F61214388F231236D17BFF7A170B
:1028260079B8753A0085243B1204CD0524E524C306
:10283600940A40CF7BFF7A1779C91204CD786E7659
:1028460001122F588F251236D17F647E0012368CE6
:0328560002275402
:1037060021FF000000000000A1FE000000000100F3
:1030D80090037FE06556701490037CE06553700C94
:1030E800A3E065547006A3E065556046AF56AE553B
:1030F800AD54AC5390037C1202C9900365E0FEA363
:10310800E0FBCAEECA65627003EA6561700EAF56ED
:10311800AE55AD54AC539003801202C9CDEBCDCC63
:10312800EACC7F01122CF48F64EF60031236BAAF39
:0531380064227F00226B
:102E6E00900392E0FCA3E0FDA3E0FEA3E0F5568EF6
:052E7E00558D548C533A
:102E8300900383E065567014900380E06553700CE3
:102E9300A3E065547006A3E065556042AF56AE5596
:102EA300AD54AC539003801202C9AB62AA61900384
:102EB30065E06A7003A3E06B700EAF56AE55AD5478
:102EC300AC5390037C1202C9CDEBCDCCEACC7F018D
:102ED300122CF48F64EF60031236BAAF64227F00C2
:012EE30022CC
:1033D000AF56AE55AD54AC5390037C1202C9900366
:1033E00065E0FEA3E0FBCAEECA65627003EA6561B0
:1033F000700EAF56AE55AD54AC539003801202C957
:10340000CDEBCDCCEACC7F01122BE68F64EF6003CD
:063410001236BAAF64227F
:103000008F688E678D668C65E552241AF582E435EB
:1030100051F583E565F0A3E566F0E5522414F582E9
:0C302000E43551F583E567F0A3E568F0A6
:10302C00AF56AE55AD54AC539003801202C9AB628F
:10303C00AA61900365E06A7003A3E06B700EAF5653
:10304C00AE55AD54AC5390037C1202C9CDEBCDCC34
:10305C00EACC7F01122BE68F64EF60031236BAAF15
:02306C006422DC
:100C460090036CE0FCA3E0FDA3E0FEA3E0F5508E6C
:070C56004F8D4E8C4DE4FFB1
:100C5D008FD390038BE0FBB4020CAF50AE4FAD4E73
:100C6D00AC4D7801800EEBB40317AF50AE4FAD4EC7
:100C7D00AC4D780212025C8F508E4F8D4E8C4D8094
:100C8D002AC200E55030E002D200AF50AE4FAD4E5B
:100C9D00AC4D7801120249E5502FF550E54F3EF568
:100CAD004FE54E3DF54EE54D3CF54DE54B24FFFF33
:100CBD00EF554FFEE550FF900366E02FF552900380
:100CCD0065E03EF551AE4FAD4EAC4D12361E900364
:100CDD008CE0F8A3E0F9A3E0FAA3E02FF550EA3E8B
:100CED00F54FE93DF54EE83CF54D90037FE065503D
:100CFD00701490037CE0654D700CA3E0654E70069A
:100D0D00A3E0654F601D300D07122C6FEF600122BF
:100D1D00855056854F55854E54854D531230D8EF1D
:100D2D00600122E5D36027E5D3B4040474FF800687
:100D3D00E5D3B4010BE4F550F54FF54EF54D800CB0
:100D4D00855B4D855A4E85594F855850D20DC20E33
:100D5D0090038BE0FB64027041855282855183E0E4
:100D6D00F566A3E0F567856668E4F565F566C3E5A8
:100D7D006894F7E56794FF4002D20EE5D3600F85C6
:100D8D005282855183E54DF0A3E54EF0E142300EE0
:100D9D0002E142AE67AF68E4E13AEB64037067AF1E
:100DAD0052AE511237168F688E678D668C65E5656C
:100DBD0054F0FFE550540F4FF55053650FE565D3D3
:100DCD00940F5016E565B40F13E566B4FF0EE56795
:100DDD00B4FF09E568C394F74002D20EE5D3601362
:100DED00AF50AE4FAD4EAC4D855282855183120240
:100DFD00C9E142300E02E142856558856659856725
:100E0D005A85685BE142855282855183E0F568E53C
:100E1D004DC454F0FFE568540F4FF565E54EC454CD
:100E2D00F0FFE54DC4540F4FF566E54B24FFFFEF82
:100E3D00FE900366E024FFFF900365E03EFEEF6544
:100E4D00527003EE65516039855282855183A3E05E
:100E5D00F567E5D37002E10330000F8552828551AD
:100E6D0083E565F0A3E566F0E10385528285518344
:100E7D00E54DF0E54E540FFFE56754F04FA3F080BC
:100E8D0075E5D36011300004AF658002AF4D85521A
:100E9D0082855183EFF0A20DE43345D36007122C08
:100EAD006FEF60012290037CE0FCA3E0FDA3E0FE68
:100EBD00A3E02401F556E43EF555E43DF554E43C3C
:100ECD00F5531230D8EF600122900365E0FEA3E0E8
:100EDD00FFF5828E83E0F567E5D3601A300004AD2F
:100EED0066800BE54E540FFDE56754F04DFD8F8286
:100EFD008E83EDF0D20DE4F565F566300014E567EF
:100F0D00C4F854F0C868F567E568C4540F48F5682F
:100F1D00800353670FC3E56894F7E567940F4002AC
:100F2D00D20EE5D3700F200E0CAE67AF688F5B8EBF
:080F3D005AF559F5587F002216
:09220200E4F55BF55AF559F558B5
:10220B00900367E0FCA3E0FDA3E0FEA3E0FFAB5B64
:10221B00AA5AA959A858D312023840037FB122E514
:10222B005B2401FFE4355AFEE43559FDE43558FCD7
:10223B0090039A1202C98F50120C55CBEFCB90031F
:10224B009AE0FCA3E0FDA3E0FEA3E0F55B8E5A8DC4
:10225B00598C58EB600122E568700AE565456645C7
:10226B0067700261E7900369E0FF90039CE06F7079
:10227B001A900367E0FF90039AE06F700E9003686B
:10228B00E0FF90039BE06F7002410B90038BE0FF2C
:10229B0064017002410B900365E0FCA3E08C51F5E7
:1022AB0052EF6402703CE54B75F080A424FFFFE510
:1022BB00F034FFF5658F66F5678F6874022552F56C
:1022CB0052E43551F551855282F583E07004A3E059
:1022DB006075E56615667002156514AE654E70DBAC
:1022EB0061CFE54B75F040A424FFFFE5F034FFF51B
:1022FB00658F66F5678F6874042552F552E4355186
:10230B00F551855282F583E0600261BFA3E0600264
:10231B0061BF855282855183A3A3E0600261BF85B3
:10232B005282855183A3A3A3E0540F600261BF8542
:10233B005282855183A3A374FFF08552828551830A
:10234B00A3A3A3E0440FF085528285518374FFF061
:10235B00A3F0AE67AF68EF455BFFEE455AFEE5595C
:10236B00FDE558FCEEC0E0EFC0E0E56624FFFFE5BD
:10237B006534FFCBEFCBFAD0E0FFD0E0FEC3EF9B91
:10238B00F55BEE9AF55AED9400F559EC9400F5587F
:10239B00900367E0FCA3E0FDA3E0FEA3E0FFAB5BD3
:1023AB00AA5AA959A858D312023840037FB122D296
:1023BB000D7F0022E56615667002156514AE654E3D
:1023CB0060026102AE67AF68E55B4FF55BE55A4EA5
:1023DB00F55AE559F559E558F558410B90039AE034
:1023EB00FCA3E0FDA3E0FEA3E0F5508E4F8D4E8CD9
:0723FB004D7F04120C5D226E
:0D37420012220BEF64B1600122122202225C
:10080000E55CC394105007121000EF60012212340F
:10081000FBEF600122C20B786EE6FF7002FF22EF51
:10082000645C6003BF2F0575636F8014786FE664A6
:100830003A600201EBEFC39443500201EB75637120
:1008400090038BE0FBB40310900396E0FCA3E0FD63
:10085000A3E0FEA3E0FF8005E4FFFEFDFC90036C37
:100860001202C9A863E6600201EE74FFF560F55F4D
:10087000F55EF55DEB6403604C90036F7402F090DD
:100880000399E0F54C900374E0FCA3E0FDA3E0FEC7
:10089000A3E0FFEFC0E0AF4CCBEFCBD0E0FFC3EF66
:1008A0009BFFEE9400FEED9400FDEC9400FC9003A1
:1008B000741202C9AF4CE4FCFDFE12363B8F608E11
:1008C0005F8D5E8C5D90036CE0FCA3E0FDA3E0FE19
:1008D000A3E0F55B8E5A8D598C58E4F56CF56BF5F9
:1008E0006AF569F557755C127F412275636E900356
:1008F0006CE0700CA3E07008A3E07004A3E060411A
:10090000854C5790036CE0FCA3E0FDA3E0FEA3E060
:1009100024FEFFEE34FFFEED34FFFDEC34FFFC90CF
:10092000036BE0F9F812025C900374E0F8A3E0F9BD
:10093000A3E0FAA3E02FFFEA3EFEE93DFDE83C809C
:1009400026900399E0F557AF57CBEFCB900374E0B7
:10095000FCA3E0FDA3E0FEA3E0C39BFFEE9400FE3A
:10096000ED9400FDEC9400FC9003921202C9E5574F
:10097000700261F6122E6EEF600122E4900372F0B5
:10098000A3F0E54BFE900372E0FCA3E0FDC39400EE
:10099000EC9E400261D3ED2562F552EC3561F551D4
:1009A000855282F583E0FF70028126EF64E57002D4
:1009B00061C3BF05027FE5A863E6FE6F6007EE64D2
:1009C0002A600261C3EF6E70047F0180027F008F96
:1009D00067AF67EFC3940B5052AE67E5632EF8E63E
:1009E000FEE5522FF582E43551F583E0FD6E603669
:1009F000EE6007645C6003BE2F1EED6420702CEF78
:100A0000C39408500FE5522408F582E43551F5836C
:100A1000E0B420177F0B8013BE2E10E567640860DA
:100A200003BD20077F070F056780A8AE67E5632E2B
:100A3000F8E6F568EFC3940B50026123E552240BEE
:100A4000F582E43551F583E030E3026123C20EE51F
:100A500052241AFFE43551FE123771E4FCFD900375
:100A60006C1202C990038BE0B40314E5522414FF06
:100A7000E43551FE12377190036CEEF0A3EFF0E510
:100A8000686005200E02611A90036CE0FCA3E0FD93
:100A9000A3E0FEA3E0F55B8E5A8D598C58E4F56C0B
:100AA000F56BF56AF569F557E552240BF582E435E7
:100AB00051F583E030E41E74FFF560F55FF55EF5F7
:100AC0005D7D137F101234FFEF600122300E037F33
:100AD00043227F4122E552241CFFE43551FE1237A8
:100AE000168F608E5F8D5E8C5D90036CE07017A337
:100AF000E07013A3E0700FA3E0700B7557FFF56073
:100B0000F55FF55EF55D7D147F101234FFEF600137
:100B100022300E037F43227F0022E567042563F520
:100B20006301EEE568642A600261C3E552240BF5B7
:100B300082E43551F583E030E30261C3E5A1644905
:100B400060037F1122E55D455E455F45606022E5FB
:100B50005D30E7031207FFE56024FFF560E55F34D1
:100B6000FFF55FE55E34FFF55EE55D34FFF55D8022
:100B700052E4FFF565E5522FF582E43551F583E047
:100B80006420602FBF080AAE65E5632EF8762E0557
:100B900065E5522FF582E43551F583E0FEAD65E55C
:100BA000632DF8EEF6E5657008A863E6B4050276F5
:100BB000E505650FBF0BBEAF65E5632FF8E4F6D220
:100BC0000E414F900373E02420F0900372E0340054
:100BD000F02182900392E0FCA3E0FDA3E0FEA3E0FD
:100BE0002401FFE43EFEE43DFDE43CFC9003921250
:100BF00002C91557216E90036CE0700CA3E07008D9
:100C0000A3E07004A3E0601E120C46EF60012220F6
:100C10000E1490036CE565F0A3E566F0A3E567F0BC
:100C2000A3E568F001EEE4FFCEEFCE0FE5632EF80A
:100C3000E6FE600F642A600BEE645C6003BE2FE882
:060C40007FB3227F422277
:10333C00E55B24FEFFE55A34FFFEE55934FFFDE55D
:10334C005834FFFC90036BE0F9F812025C900374A4
:10335C00E0F8A3E0F9A3E0FAA3E02FFBEA3EFAE9D8
:10336C003DF9E83CF8E4FCFDFEEB2557F556EE3A4A
:0B337C00F555ED39F554EC38F55322FF
:10296D0090036CE0700EA3E0700AA3E07006A3E084
:10297D007002414F787212026F12361EEFC0E0AF37
:10298D0057CBEFCBD0E0FFC3EF9BF568EE9400F58E
:10299D0067ED9400F566EC9400F565AF68AE67AD34
:1029AD0066AC65786E12027BC31202384017786EE2
:1029BD0012026FC3EF9568FFEE9567FEED9566FD0C
:1029CD00EC9565805D90036CE0FCA3E0FDA3E0FE5B
:1029DD00A3E0F55B8E5A8D598C58AF4CE4FCFDFE8F
:1029ED00786E12027BC3120238403F855B50855AC8
:1029FD004F85594E85584DE4FF120C5DEF60012255
:102A0D00200E3F786E12026FEFC0E0AF4CCBEFCBD4
:102A1D00D0E0FFC3EF9BFFEE9400FEED9400FDECC4
:102A2D009400FC786E1202BD80B07871E6F55712F5
:102A3D00333CAF56AE55AD54AC53786E1202BD7FDC
:102A4D0000227557FF786E1202D5FFFFFFFF7F0042
:012A5D002256
:030FFC007F102241
:1036BA009003801202EEFFFFFFFF90037C1202EEDE
:0736CA00FFFFFFFFC20D220C
:0434FB007D107F10B1
:1034FF00AE5CEEC39F4005CEEDCE8D5CEE6D7002DF
:0F350F00FF22755C01123562EF6001227F83227B
:10351E00AB64BB1611755C019003851202EE0000C0
:10352E000000CFEBCF22BB1507755C02CFEBCF228D
:03353E007F0022E9
:10319B007F027E0012368C900391E564F01235624B
:1031AB00EF600122E55CC3940450037F83227E37DA
:1031BB007F061235A4900390E0900044F0E4FDFFED
:1031CB00FE12240A8F64BF16012290038AE0540F6B
:1031DB00FF1236E5900389E0540F4480FF1236E569
:0A31EB00900391E0FFF564E4F02288
:10345A00900048EDF0A3E4F0A3F0A3F0ED60047E41
:10346A008080027E0090004CEEF0900384E0900091
:10347A004DF0A37406F0A3EFF0A3E4F0A3F0A3F0D9
:0F348A00A3EDF0A3E4F0A3F0A3F0A3F0A3F022CE
:071C9D0012345A7E007F6241
:101CA4008E2E8F2F9000407455F0A37453F0A374BC
:101CB40042F0A304F075D71F90038AE0FF900391CC
:101CC400E0FD7BE87AFD122A5E8F64BF160122EFE5
:101CD40060397E007F627C007D407B1B7A00123578
:101CE4008312319B7E007F407C007D627B1B7A00E7
:101CF40012358390038AE0FF900391E0FD7BE87A3C
:101D0400FD122A5E8F64EF6002C1CA900391E06401
:101D140040F0900048E0FDA3E0FF4D7002C18FEF5A
:101D2400F52CEDF52D90004CE020E702A1E8D2015E
:101D3400E52D452C7002A1E0E52C7007E52DC39438
:101D4400404009AF2F852EE58FE48008C20175E578
:101D54000075E400900389E0FF900391E0FD7BE8C7
:101D64007AFD122A5E8F64EF601A75E50075E4004F
:101D7400EF642E600122900389E0540F4480FF1227
:101D840036E58058900391E06480F030011FE5DB74
:101D94006440704874C0252DF52D74FF352CF52C46
:101DA4007440252FF52FE4352EF52E8083AFDBAE5E
:101DB4002DEEC39F5003CFEECFE4FEEE6F601D7493
:101DC400002EF582E43400F583E0852F82852E838E
:101DD400F0052FE52F7002052E0E80DF75E50075E6
:101DE400E400C18FE52D452C7002C189E52C7008F3
:101DF400AF2DEFC394404023AD2F852EE78DE674BD
:101E0400C0252DF52D74FF352CF52C7440252FF5A8
:101E14002FE4352EF52E75D740803375E70075E62F
:101E2400408FD7E4FFE52D6F601F852F82852E83B9
:101E3400E0FE74402FF582E43400F583EEF0052FC4
:101E4400E52F7002052E0F80DCE4F52CF52D9003B0
:101E54008AE0FF900391E0FD7BE87AFD122A5E8F11
:101E640064EF601875E70075E640EF642E600122A8
:101E740090038AE0540FFF1236E58009900391E045
:101E84006440F0A1E875E70075E640900389E0FF3F
:101E9400900391E0FD7BE87AFD122A5E8F64EF6087
:101EA4000122900391E06480F075641FE5DB640D0A
:101EB4006003AF642290000CE0FE7004F564FF221E
:0C1EC400EEC39402400302319BAF642285
:1035C3007F0A7E0012368C7D127F03121C9D7F05BD
:0F35D3007E0012368CE5647002FF2212351E2234
:102DF400756D0975650F7D087F2512345A90004E54
:102E0400740AF0900053E4F0121CA0AF64EF701742
:102E1400900068E0FEBE0405756D0A8037EE640814
:102E24007032756D0B802DEF64166028EF641560A9
:102E340023EF6413601E8F661235C3856664E565EF
:102E44007E0030E3047F4080027FC812368C156513
:102E5400E56570A2E56D24F8FF7401C8EFC8088029
:0A2E640002C333D8FCF54BAF662221
:1025FA00123562EF600122E55CC3940450037F83C5
:10260A0022755C0412324A8F64EF60012290004EF8
:10261A00E06408705FC20CA3E0B40602D20C90001A
:10262A004BE0900390F0E4F565E565600790005B88
:10263A00E0FF8005900054E0FF8F66E56560079033
:10264A00005DE0FF8005900056E0FFEF64407024D3
:10265A00E56630E70CE566540F4490900389F080F4
:10266A000AE566540F441090038AF00565E565B4DF
:10267A0002B7800675641FAF6422900045E0FF121E
:10268A0037348F64EF600122E4F5657E377F0E12DE
:10269A0035A4900390E0900044F07D66AF62AE618D
:1026AA0012240A8F64EF7010E566B4011A856282FB
:1026BA00856183E0F565800FE564B42E07E4FF12B7
:1026CA0036E58003AF64227F057E0012368C12360F
:1026DA00BAE4900391F0900384F07D247F121234BF
:1026EA005AAF62AE61121CA4E5647023E5656018F6
:1026FA00900384E07012856282856183E0B40508E4
:10270A009003847401F080D27D057F040234FFE5D2
:10271A0065600E900384E0C394035005E004F080E2
:0C272A00B9E4900384F07F011232EE222B
:10313D00786E1202D500000000123562EF60012298
:10314D00E55CC3940550301225FAEF600E7F407E8A
:10315D000012368C1225FAEF600122122DF4EF6069
:10316D0003AF6422900062E0FCA3E0FDA3E0FEA3A8
:10317D00E0FF786E1202BDE4FDFF121C9DE5647048
:0E318D0002FF228564651235C3AF658F642290
:1032EE00E4FDFCE4F5A10DBD00010CBC01F5BDF43F
:1032FE00F2EFC394024013AE5CBE1205755C0580FE
:10330E0009EED394104003755C10AE64EF6014EEBA
:10331E006416600FEE6415600A1235C3CEEFCEEE62
:0E332E007001227F027E0012368C12351E22A4
:10100000E55CC39405500A1225FAEF600122122D07
:10101000F41236BA900385E0FCA3E0FDA3E0FEA342
:10102000E054F0FFEC7B707A5679347812C31202E8
:1010300038700A900388E0540FF5528003E4F552AB
:10104000E4F54CF557E4F560F55FF55EF55DF556B2
:10105000F555F554F553122E83EF600D12319B12A6
:101060002DF4122E83EF600122E552700F8562820B
:10107000856183E054FD64E97002217AE56224FE13
:10108000F582E5613401F583E0FEA3E064AA700314
:10109000EE645560037F9122854C51E551644070A8
:1010A00002216AE56224BEFFE5613401FE7C00EFA7
:1010B0002551FFEC3ECF2408CF3400FE1237168FA7
:1010C000568E558D548C53E56224BEFFE561340184
:1010D000FE7C00EF2551FFEC3EF583EF2404F58202
:1010E000E43583F583E0F565E56564056005E56550
:1010F000B40F32E5562560F556E555355FF555E5F3
:1011000054355EF554E553355DF553E557600201FE
:1011100056E5512410F55785566085555F85545E18
:1011200085535D0156E56530E70353653FE565602E
:1011300031E565C3940F502AE55294015022900383
:1011400080E0FCA3E0FDA3E0FEA3E02556F556EE0B
:101150003555F555ED3554F554EC3553F553801AA6
:10116000155274102551F551019BE5576009E54C66
:10117000700585574C01457F9222AF56AE55AD5450
:10118000AC539003851202C9122E83EF60012285B1
:101190006282856183E054FD64E960037FA122E5FA
:1011A0006224FEF582E5613401F583E0FEA3E0648C
:1011B000AA7003EE645560037FA122E562240DF559
:1011C00082E43561F583E0FFF54C90036B7407F022
:1011D000EF20E710EF25E0FF90036BE014F0E070E4
:1011E000EF754C01E5622416FFE43561FE1237719C
:1011F000E4FCFD9003781202C990037AE0FEA3E0BC
:101200004E7012E5622424FFE43561FE1237169019
:1012100003781202C9E5622413FFE43561FE123738
:1012200071E48F6C8E6BF56AF569EF4E7014E562B0
:101230002420FFE43561FE1237168F6C8E6B8D6AA9
:101240008C69E5622411FFE43561FE123771E54BCC
:1012500033333354F8147C002FFFEC3EFEE56D244D
:10126000FBFDEFC8EDC8088005CEC313CE13D8F937
:10127000FFE4FCFD9003961202C9E562240EFFE430
:101280003561FE123771E4FCFD90038C1202C990A7
:101290000399E0FF7E0090038EE0FCA3E02FFFEEB9
:1012A0003CFEE4FCFD900378E0F8A3E0F9A3E0FA4B
:1012B000A3E02FF568EA3EF567ED39F566EC38F501
:1012C00065E5622410F582E43561F583E0900378EA
:1012D000B4021FE0FCA3E0FDA3E0FEA3E02568F557
:1012E00068EE3567F567ED3566F566EC3565F565ED
:1012F00080071202EE00000000E5562568FFE55564
:101300003567FEE5543566FDE5533565FC9003749D
:101310001202C9C3E56C9568FFE56B9567FEE56A47
:101320009566FDE5699565FC90036BE0F9F812029E
:10133000499003671202C9E47FF57EFFFDFC90032C
:1013400067E0F8A3E0F9A3E0FAA3E0FBC3120238D8
:101350005023E4900370F0A3F0900369E0FEA3E053
:10136000C394F5EE940F90038B50057401F0803117
:101370007402F0802CE5622430FFE43561FE123700
:1013800071900370EEF0A3EFF0E562242CFFE435DA
:1013900061FE1237169003961202C990038B7403F4
:1013A000F090038EE0FEA3E04E6057900396E0FCC1
:1013B000A3E0FDA3E0FEA3E0FFEC4D4E4F6043E54C
:1013C000622410F582E43561F583E06401601490D5
:1013D0000378E0FCA3E0FDA3E0FEA3E0FFEC4D4EAC
:1013E0004F601FE562240BF582E43561F583E07000
:1013F00011E562240CF582E43561F583E0C39402C3
:10140000500CE552700575520101407FA3229003F4
:101410008CE0FCA3E0FDA3E0FEA3E02556FFEE3543
:1014200055FEED3554FDEC3553FC90038C1202C98A
:081430007D107F051234FF223C
:102C6F0090037CE0FCA3E0FDA3E0FEA3E0F5568E0D
:102C7F00558D548C531233D0EF600122900378E0BE
:102C8F00FCA3E0FDA3E0FEA3E0FFEC4D4E4F605030
:102C9F00EF2556F556EE3555F555ED3554F554EC03
:102CAF003553F553900365E0FCA3E0FD7F01122B34
:102CBF00E68F64900378E0F8A3E0F9A3E0FAA3E0CD
:102CCF00FBC3E5569BF556E5559AF555E55499F531
:102CDF0054E55398F553E56460061236BAAF642293
:052CEF00C20D7F002270
:10306E0012220BEF600564B1600122EF600712229D
:10307E0002EF600122122C6FEF600122AF5BAE5A9D
:10308E00AD59AC5890036C1202C9122E6EEF60014E
:10309E0022900373E02562F552900372E03561F5DC
:1030AE0051F583E552241CF582E43583F583120233
:1030BE00EE0100000090036CE0FCA3E0FDA3E0FE37
:0A30CE00A3E0FF1217F812300022F1
:082D78007FFF7EFF7DFF7CFF61
:102D80008F688E678D668C65900370E0FCA3E0FD14
:102D90004C7002FF22CFEDCFCEECCEE4FCFD9003D1
:102DA00085E0F8A3E0F9A3E0FAA3E02FF556EA3EA8
:102DB000F555ED39F554EC38F553122E83EF6001DB
:102DC00022E56224E8FFE5613401FE123716EF25A3
:102DD00068FFEE3567FEED3566FDEC3565FC1217D4
:102DE000F8E56224E8F582E5613401F5831202C951
:042DF00012302C224F
:10329E00C20BE55CC394144044122E6EEF60012203
:1032AE00900373E02562F552900372E03561F5519B
:1032BE00F583E552240BF582E43583F583E020E4B3
:1032CE001CAF60AE5FAD5EAC5D1217F8E552241C0C
:1032DE00F582E43551F5831202C902302C7F0022AB
:102F5800AF5CEFC3941250037FB422BF12449003B6
:102F68008BE06403603C90036BE0FF7401C8EFC81A
:102F7800088002C333D8FCF54C900374E0F8A3E052
:102F8800F9A3E0FAA3E0FB900399E0FFE4FCFDFE5F
:102F9800EB2FFFEE3AFEED39FDEC38FC900374128E
:102FA80002C9AF5CEFD394134008BF1407786EE6EC
:102FB8007002C20B300B0712329EEF6001221234EE
:022FC800FB22EA
:102B2700E55CC394135007120800EF6001221234CA
:102B3700FBEF600122122E6EEF600122900372E01C
:102B4700FEA3E02562F582E5613EF58374E5F012A8
:102B5700302CEF60012290036CE0F565A3E0F56689
:102B6700A3E0F567A3E0F568E56545664567456851
:102B7700606A90036CE0FCA3E0FDA3E0FEA3E02401
:102B8700FFFFEE34FFFEED34FFFDEC34FFFC900356
:102B97006C1202C9E4F55BF55AF559F55885654D90
:102BA70085664E85674F8568507F01120C5DEF6023
:102BB7000122E55B2401F55BE4355AF55AE4355902
:102BC700F559E43558F558300ED3122C6FEF6001E4
:0F2BD70022AF5BAE5AAD59AC58022D807F002261
:101A51001208008F57EF7009122B27EF7002619265
:101A610022E55764426003AF5722E54BFEC3900362
:101A710073E09400900372E09E5002619290036CB7
:101A8100E0700EA3E0700AA3E07006A3E0700261AB
:101A91003D120C46EF600122200E02619290036C10
:101AA100E0FCA3E0FDA3E0FEA3E0F55B8E5A8D59B7
:101AB1008C58123742EF60012290036CE0FCA3E0E6
:101AC100FDA3E0FEA3E0F5508E4F8D4E8C4D7F02BD
:101AD100120C5DEF600122122C6FEF600122856212
:101AE10082856183AF4BEF600AE4FEE4F0A3DEFB85
:101AF1001F80F3E4F55712333CE4900372F0A3F036
:101B0100AF56AE55AD54AC539003921202C9854CF9
:101B110065E565602012302CEF600122E556240155
:101B2100F556E43555F555E43554F554E43553F59A
:101B310053156580DC122D78EF605622900399E0F1
:101B4100F55790039274FF12028A8F56122E7DEF81
:101B5100600122E4900372F0A3F0E54BFE90037262
:101B6100E0FCA3E0FDC39400EC9E501FE5622DF55F
:101B710082E5613CF583E064E56016900373E0243F
:101B810020F0900372E03400F080CFD557B47FB2DB
:101B91002290036CE0FCA3E0FDA3E0FEA3E0F55B73
:101BA1008E5A8D598C58E5B15492648060037F112F
:101BB10022123742EF600122122C6FEF600122AF37
:101BC1005BAE5AAD59AC5890036C1202C9122D7814
:101BD100EF600122122E6EEF600122900373E02567
:101BE10062F552900372E03561F551E4FFEFC39461
:101BF1000B50047E2080027E00E5522FF582E435F1
:101C010051F583EEF00FBF20E4E5522418F582E48C
:101C11003551F5837421F0A37430F0E552241CF59D
:101C210082E43551F5837401F0E4FFEFC3940B5066
:101C310023A863E6FE601DEEB42E047F080563A8A9
:101C410063E6FEE5522FF582E43551F583EEF00FA0
:101C5100056380D790036CE0FCA3E0FDA3E0FEA345
:101C6100E0FF1217F8123000EF60012290036CE0E0
:101C7100FCA3E0FDA3E0FEA3E0F55B8E5A8D598C39
:101C810058E4F560F55FF55EF55DF56CF56BF56AA9
:0C1C9100F569F5577D147F101234FF2216
:10180000D20BE54BFE90036BE0FBE4C8EBC808800D
:1018100005C333CE33CED8F924FFFFEE34FFFEEFFD
:101820002560FFEE355FFEE4355EFDE4355DFCE5E9
:101830006D2BF9F81202499003A41202C9AF6CAEE5
:101840006BAD6AAC69C8E9C81202498F508E4F8DE2
:101850004E8C4D9003A4E0F8A3E0F9A3E0FAA3E0D6
:10186000FBD312023840249003A4E0FCA3E0FDA3C4
:10187000E0FEA3E09550FFEE954FFEED954EFDEC9A
:10188000954DFC9003A41202C9801590036CE0FCF6
:10189000A3E0FDA3E0FEA3E0F55B8E5A8D598C58C2
:1018A00090036CE0701FA3E0701BA3E07017A3E02F
:1018B0007013E55D455E455F45607002FF221230A2
:1018C0006EEF601522E55D455E455F4560700A90EC
:1018D00003A41202EE00000001AF5BAE5AAD59AC9A
:1018E00058786E1202BD9003A4E0FCA3E0FDA3E0D3
:1018F000FEA3E024FFFFEE34FFFEED34FFFDEC34E9
:10190000FFFC9003A41202C9AF5BAE5AAD59AC58AC
:101910008F508E4F8D4E8C4D78721202BDE4FF12A7
:101920000C5DEF600122200E0221BA9003A4E0704A
:101930000CA3E07008A3E07004A3E060067E007FC3
:101940000180047E007F00EF4E7010786E12026FEF
:101950008F5B8E5A8D598C587F00229003A4E0FC37
:10196000A3E0FDA3E0FEA3E0FF12022A122D80EF08
:10197000600122AF5BAE5AAD59AC5878721202BD0D
:10198000123742EF600122787212026F8F508E4F31
:101990008D4E8C4D7F02120C5DEF6001229003A4EE
:1019A00074FF12028AEC4D4E4F70C8786E12026FAF
:1019B0008F5B8E5A8D598C58414D9003A4E0600284
:1019C00001E6A3E0600201E6A3E0600201E6A3E015
:1019D000600201E6787212026F8F688E678D668CE6
:1019E0006585654D85664E85674F8568507F011218
:1019F0000C5DEF6001229003A4E0FCA3E0FDA3E0F6
:101A0000FEA3E02401FFE43EFEE43DFDE43CFC9047
:101A100003A41202C9300EC99003A4E0FCA3E0FDA8
:101A2000A3E0FEA3E0FF122D80EF60012290036C83
:101A3000E0FCA3E0FDA3E0FEA3E0F55B8E5A8D5928
:101A40008C58E4F56CF56BF56AF569F557122C6F57
:011A50002273
:10285900E55CC3941350037FB422122E6EEF60011E
:1028690022C210900373E02562F552900372E0359D
:1028790061F5517876E6FFE552240BF582E435518E
:10288900F583E0F6EFF4600FE552240BF582E435A9
:1028990051F583EFF0D2107974E7F5667875E6F5AE
:1028A90065E5522416FFE43551FE1237717874EE4E
:1028B900F608EFF6E566F47003E565F46014E55291
:1028C9002416F582E43551F583E565F0A3E566F054
:1028D900D2107972E7F5667873E6F565E552241842
:1028E900FFE43551FE1237717872EEF608EFF6E51E
:1028F90066F47003E565F46014E5522418F582E482
:102909003551F583E565F0A3E566F0D210786E12CE
:10291900026F8F688E678D668C65E552241CFFE413
:102929003551FE123716786E1202BDE565556655AA
:10293900675568F46025AF68AE67AD66AC658F60B2
:102949008E5F8D5E8C5D1217F8E552241CF582E4CA
:102959003551F5831202C9D210C20B30100302306F
:042969002C7F00229D
:1036F600E4FF746E2FF876FF0FBF0AF612285922E0
:10338700E55C641460037FB42290036CE0FCA3E067
:10339700FDA3E0FEA3E0F55B8E5A8D598C58E4F54A
:1033A7006CF56BF56AF56990036CE0700CA3E0703F
:1033B70008A3E07004A3E06005E4F55780037557A0
:0933C700FF7D157F141234FF2272
:1031F500E55C64156007123387EF600122AF6CAEA2
:103205006BAD6AAC6978721202BD786E12026F8F6F
:103215006C8E6B8D6A8C69AB60AA5FA95EA85DC375
:10322500120238500C85606C855F6B855E6A855D22
:1032350069AF6CAE6BAD6AAC6912361E786E120260
:05324500BD12296D22FD
:10200000E55C64156007123387EF600122786EE6A5
:10201000FF08E67872CFF608EFF6E4786EF608F679
:10202000E557B4FF037F00227873E618467002215B
:10203000FFC3E560956CF568E55F956BF567E55E58
:10204000956AF566E55D9569F565E56545664567FB
:102050004568700221FFE565F4700221FF12333CF0
:10206000E5654566600674FFF567F568D3E5687851
:102070007396E56718964007E6F56708E6F568E5A4
:102080004BFEC3E5689400E5679E50022138E56C7D
:1020900060022138E54B14556B60022138E567FF7B
:1020A000E56D24F8FEEFC8EEC8088002C313D8FC23
:1020B000FF7567008F68C3E54C9557FFAE68EED398
:1020C0009F40057567008F68AF687971E7786F2664
:1020D000FD19E71836FC122CF4EF600122AF68EF0F
:1020E0002557F557AF68E56D24F8FEEFC8EEC80830
:1020F0008002C333D8FC756800F567AE67AF68E44B
:10210000FCFDE56C2FF56CE56B3EF56BED356AF586
:102110006AEC3569F569C37873E69568F618E69553
:1021200067F6786FE56826F618E56736F6E557C373
:10213000954C5002012821D1E54B24FFFFEF556B50
:10214000FCE54BFEC3E4956CFFEE9CFED3E5689F77
:10215000E5679E40048E678F68122E83EF60012230
:10216000E54B24FFFFEF556BFEE56C2562FFEE3576
:1021700061FE7971E7786F26FD19E71836FCAB68C8
:10218000AA67123583AE67AF68E4FCFDE56C2FF5F6
:102190006CE56B3EF56BED356AF56AEC3569F56912
:1021A000C37873E69568F618E69567F6786FE56884
:1021B00026F618E56736F6E56C60020128E54B1453
:1021C000556B600201280557E557C3954C50020135
:1021D00028855B50855A4F85594E85584DE4FF122E
:1021E0000C5DEF600122300E117557FF856C608524
:1021F0006B5F856A5E85695D8005E4F55701287F20
:022200000022BA
:10143800E55C64156007123387EF600122786EE679
:10144800FE08E6FF7872EEF6FE08EFF64E700630FC
:101458000B0302329EE4786EF608F67873E61846B7
:101468007002E11BE557F4600281F790036CE070AD
:101478000CA3E07008A3E07004A3E0604DE55CB441
:10148800120B90038BE0640360037FB122855B6CD1
:10149800855A6B85596A855869123742EF6001226F
:1014A800856C50856B4F856A4E85694D7F02120C9D
:1014B8005DEF600122900365E065617004A3E0655B
:1014C80062700E122C6FEF60082212306EEF60010E
:1014D800227FFF7EFF7DFF7CFF122D80EF600122BF
:1014E80085606C855F6B855E6A855D69E4F557127A
:1014F800333CE54B24FFFFEFAD6C556BFCC3E54C6B
:101508009557FF7E00E56D24F8FBEFC8EBC808800F
:1015180005C333CE33CED8F9FEC3E49DF566EE9C01
:10152800F565D3E566787396E56518964007E6F5A0
:101538006508E6F566E54BFEC3E5669400E5659E3D
:101548005002C108E56C6002C108E54B14556B6098
:1015580002C108E565FFE56D24F8FEEFC8EEC8088E
:101568008002C313D8FCFF7565008F66AF6679717A
:10157800E7786F26FD19E71836FC122BE6EF6001B5
:1015880022AF66EF2557F557AF66E56D24F8FEEFF5
:10159800C8EEC8088002C333D8FC756600F565AE8E
:1015A80065AF66E4FCFDE56C2FF56CE56B3EF56B0D
:1015B800ED356AF56AEC3569F569C37873E69566C1
:1015C800F618E69565F6786FE56626F618E5653649
:1015D800F6AF6CAE6BAD6AAC69AB60AA5FA95EA8EA
:1015E8005DC3120238500E856C60856B5F856A5E3C
:1015F80085695DD20BE557C3954C50028163C1F9EB
:10160800E54B24FFFFEF556BFCE54BFEC3E4956CFF
:10161800FFEE9CFED3E5669FE5659E40048E658FD0
:1016280066E56C701DE54B14556B7016AF6CAE6BB0
:10163800AD6AAC69AB60AA5FA95EA85DD312023837
:101648004007122E83EF6001227971E7786F26FF39
:1016580019E71836FEEEC0E0EFC0E0E54B24FFFFC7
:10166800EF556BFEE56C2562FDEE3561FCD0E0FFC1
:10167800D0E0FEAB66AA65123583AE65AF66E4FCC2
:10168800FDE56C2FF56CE56B3EF56BED356AF56A9B
:10169800EC3569F569C37873E69566F618E69565DD
:1016A800F6786FE56626F618E56536F612302CEF03
:1016B800600122AF6CAE6BAD6AAC69AB60AA5FA982
:1016C8005EA85DC3120238500E856C60856B5F851D
:1016D8006A5E85695DD20BE56C60028163E54B1437
:1016E800556B600281630557E557C3954C500281DD
:1016F80063855B50855A4F85594E85584DE4FF12D6
:101708000C5DEF600122300E057557FF8163E4F52B
:10171800578163300D07122C6FEF6001227F002282
:103716008F828E83E0FFA3E0FEA3E0FDA3E0FC2200
:0A3771008F828E83E0FFA3E0FE22AA
:0717F800EFCCFFEECDFE2255
:10361E00C3E4CC13CD13CE13FFE56D24F7600DF884
:0D362E00C3ED13FDEE13FEEF13FFD8F422E1
:10363B00C3E4CF33CE33CD33FCE56D24F7600DF807
:0D364B00C3EE33FEED33FDEC33FCD8F4226A
:1035830005A28D828C8315A28F828E837F00EA60D1
:1035930007E0A3A5DFFBDAF9EB6005E0A3A5DBFBFE
:0135A3002205
:0300000002375B69
:0C375B00787FE4F6D8FD75818D022736DA
:10000300E709F608DFFA8046E709F208DFFA803EDF
:1000130088828C83E709F0A3DFFA8032E309F608CC
:10002300DFFA8078E309F208DFFA807088828C8334
:10003300E309F0A3DFFA806489828A83E0A3F608E8
:10004300DFFA805889828A83E0A3F208DFFA804CC2
:1000530080D280FA80C680D4806980F28033801099
:1000630080A680EA809A80A880DA80E280CA803302
:1000730089828A83ECFAE493A3C8C582C8CCC5837A
:10008300CCF0A3C8C582C8CCC583CCDFE9DEE7804A
:100093000D89828A83E493A3F608DFF9ECFAA9F0C9
:1000A300EDFB2289828A83ECFAE0A3C8C582C8CC1F
:1000B300C583CCF0A3C8C582C8CCC583CCDFEADE38
:1000C300E880DB89828A83E493A3F208DFF980CC9A
:1000D30088F0EF60010E4E60C388F0ED2402B40493
:1000E3000050B9F582EB2402B4040050AF2323453A
:0600F3008223900053730C
:1000F900BB010689828A83E0225002E722BBFE0205
:09010900E32289828A83E4932237
:10011200BB010989828A83F8E028F022500327F77D
:1001220022BBFE05F8E328F3228A838982F8E4934E
:02013200282281
:10013400BB010689828A83F0225002F722BBFE01AA
:02014400F322A4
:10014600C5F0F8A3E028F0C5F0F8E5821582700244
:060156001583E038F022E1
:10015C0075F008758200EF2FFFEE33FECD33CDCC5A
:10016C0033CCC58233C5829BED9AEC99E5829840DD
:10017C000CF582EE9BFEED9AFDEC99FC0FD5F0D6BA
:10018C00E4CEFBE4CDFAE4CCF9A88222B800C1B9E4
:10019C000059BA002DEC8BF084CFCECDFCE5F0CB22
:1001AC00F97818EF2FFFEE33FEED33FDEC33FCEB5B
:1001BC0033FB10D703994004EB99FB0FD8E5E4F916
:1001CC00FA227818EF2FFFEE33FEED33FDEC33FC03
:1001DC00C933C910D7059BE99A4007EC9BFCE99AF7
:1001EC00F90FD8E0E4C9FAE4CCFB2275F010EF2F3C
:1001FC00FFEE33FEED33FDCC33CCC833C810D7073C
:10020C009BEC9AE899400AED9BFDEC9AFCE899F876
:0E021C000FD5F0DAE4CDFBE4CCFAE4C8F92209
:0E022A00C3E49FFFE49EFEE49DFDE49CFC22E5
:10023800EB9FF5F0EA9E42F0E99D42F0E89C45F01C
:010248002293
:10024900E8600FECC313FCED13FDEE13FEEF13FF93
:03025900D8F122B7
:10025C00E8600FEFC333FFEE33FEED33FDEC33FC00
:03026C00D8F122A4
:0C026F00E6FC08E6FD08E6FE08E6FF22BB
:0D027B00E6FB08E6F908E6FA08E6CBF822F3
:100288007401FF3395E0FEFDFCA3A3A3E02FFFF06C
:10029800E582158270021583E03EFEF0E582158244
:1002A80070021583E03DFDF0E5821582700215832A
:0502B800E03CFCF02217
:0C02BD00ECF608EDF608EEF608EFF6226D
:0C02C900ECF0A3EDF0A3EEF0A3EFF022A8
:1002D500D083D082E493F608740193F608740293F0
:0902E500F608740393F674047327
:1002EE00A8828583F0D083D08212030512030512F3
:1002FE000305120305E473E493A3C583C5F0C58318
:10030E00C8C582C8F0A3C583C5F0C583C8C582C859
:01031E0022BC
:10046B00E546243AF8E60546227837300902783A11
:10047B00E475F0011204350200F92002EB7F2ED255
:10048B00028018EF540F2490D43440D4FF30060B65
:10049B00EF24BFB41A0050032461FFE54760021537
:1004AB0047054AE54A7002054930090D7837E4756E
:1004BB00F001120435EF020134020FD57403D20997
:1004CB008003E4C209F5468B378A388939E4F5474E
:1004DB00F549F54AE54760077F201204A680F575BC
:1004EB0048FFC203C202C204C205C207C208C20A45
:1004FB00120474FF700D3009057F001204B7AF4A68
:10050B00AE4922B4255FC2D5C206120474FF24D0B3
:10051B00B40A00501A75F00A784730D50508B6FFB3
:10052B000106C6A426F620D5047002D20580D92474
:10053B00CFB41A00EF5004C2E5D2060206B7D203BD
:10054B0080C6D20280C0D20480BCD2D580BAD2077A
:10055B0080B47F201204A62004077401B547004025
:10056B00F112046BFF1204A60204DFD20AD2088038
:10057B009512046BFB12046BFA12046BF94A4B7065
:10058B000679887A077BFF20042EE547602A7E00D8
:10059B008E8275830012040860060EEE654870F0BB
:1005AB00C2D5EBC0E0EAC0E0E9C0E0EE1206FED037
:1005BB00E0F9D0E0FAD0E0FB1200F9FF60AAEBC043
:1005CB00E0EAC0E0E9C0E01204A6D0E02401F9D0D3
:1005DB00E03400FAD0E0FBE5480460DCD548D98074
:1005EB00877BFF7A0679FAD204809C791080027996
:1005FB0008C208C20A8008D2D5790A8004790AC2D7
:10060B00D5E548047002F548E4FAFDFEFF12046BD1
:10061B00FC7B0820031312046BFD7B1030020A12C3
:10062B00046BFE12046BFF7B20EC3382D592D5500A
:10063B0013C3E43002069FFFE49EFEE42003039DF8
:10064B00FDE49CFCE4CBF8C203EC700CCFCECDCC1C
:10065B00E824F8F870F38017C3EF33FFEE33FEEDA9
:10066B0033FDEC33FCEB33FB994002FB0FD8E9EB8A
:10067B00300305F8D0E0C448B203C0E00AEC4D4E9D
:10068B004F78207B0070C2EAB5480040BCC0E01236
:10069B000700D0F0D0E0200304C4C0E0C4B203C014
:1006AB00F012048FD0F0D5F0EB0204DF12044505F5
:1006BB007C5305F658054D4C05494205FA4F060289
:0F06CB004406024905624306085505EC4605EC56
:1006DA004505EC4707A85005512D05552E05782BE1
:1006EA0005592305762007912A051148000005704F
:1006FA003F3F3F00790AA2D5200514300709B910F7
:10070A00020404B9080104A2D520080250010420F9
:10071A0004689204B547005034C0E07F20300519C0
:10072A007F30A20472087207500F120757C204C220
:10073A0008C207C20A7F30800F300703E9C0E012FF
:10074A0004A6300703D0E0F9D0E0B547CC3007174C
:10075A007F30B9100C1204A67F583006077F7880C4
:10076A0003B908031204A63004057F2D0204A67FEC
:10077A0020200AF87F2B2008F322920480CF286ECB
:10078A00756C6C2900D20312046B3003F8C203782B
:10079A004730D50108F60205112D50434958120475
:1007AA006B2403B405004001E49007A39312049755
:0D07BA00743A120497D2057547040205F643
:10031F00E709F60870FA8046E709F20870FA803E9E
:10032F0088828C83E709F0A370FA807EE309F608D0
:10033F0070FA8076E309F20870FA806E88828C83F7
:10034F00E309F0A370FA806289828A83E0A3F6083A
:10035F0070FA805689828A83E0A3F20870FA804A85
:10036F0080D280FA80C680D4806580F28031801080
:10037F0080A680EA809A80A880DA80E280CA8031E5
:10038F0089828A83ECFAE493A3C8C582C8CCC5835B
:10039F00CCF0A3C8C582C8CCC583CC70E9800D89C9
:1003AF00828A83E493A3F60870F9ECFAA9F0EDFBC7
:1003BF002289828A83ECFAE0A3C8C582C8CCC583A0
:1003CF00CCF0A3C8C582C8CCC583CC70EA80DD89C8
:1003DF00828A83E493A3F20870F980CE88F0ED242B
:1003EF0002B4040050C4F582EB2402B4040050BAE6
:0903FF00232345822390036F7350
:10040800BB010CE58229F582E5833AF583E02250A9
:1004180006E92582F8E622BBFE06E92582F8E222F3
:0D042800E58229F582E5833AF583E493220D
:10043500FAE6FB0808E6F925F0F618E6CA3AF622C8
:10044500D083D082F8E4937012740193700DA3A346
:1004550093F8740193F5828883E47374029368605A
:06046500EFA3A3A380DF5A
:100FD500EFB40A07740D120FE0740A309811A8993E
:100FE500B8130CC2983098FDA899C298B811F6307C
:070FF50099FDC299F5992254
:00000001FF
