:1008AF00546F7563684B65792064656D6F20737441
:1008BF00617274202E2E2E0A002059256420000A02
:1008CF0000636820256420707265737365642C76ED
:1008DF00616C75653A25640A00636820256420758C
:1008EF00702C76616C75653A25640A001E1E1E1EFB
:0C08FF001E1E1E1E1E1E1E1E1E1E1E1E85
:05004D0042004E00001E
:10097900D3EF9DEE9C4007EF9DFFEE9CFE22C3ED59
:060989009FFFEC9EFE2220
:0A09D90043A03C5394C343953C2215
:10000300EFD394035029ED6014EF2402FF7401C869
:10001300EFC8088002C333D8FCF452A022EF2402B5
:10002300FF7401C8EFC8088002C333D8FC42A02282
:1003BB009000007464F07E017F407D007B017A0029
:1003CB0079001206C41209A37F147E0012094B1286
:1003DB00078E7BFF7A0879AF1200C11209D9120080
:1003EB0000E490004EF0A3F07F64FE12094B9000E6
:1003FB00017408F0900001E0FF9008FB93FD1200E0
:10040B0000900001E0FD25E0242EF582E43400F598
:10041B0083EEF0A3EFF07BFF7A0879C8ED25E0249B
:10042B002EF582E43400F583E0FFA3E0900009CFC2
:10043B00F0A3EFF01200C1900001E004F0E0B40C67
:10044B00B37BFF7A0879CE1200C1900000E06022E6
:10045B00A37408F0900001E0640C60EEE0FF9008DC
:10046B00FB93FD120000900000E014F0A3E004F0F9
:10047B0080E29000017408F0900001E0640C60CA07
:10048B00E0FF9008FB93FD120000900002EEF0FCE1
:10049B00A3EFF0FD900001E025E0242EF582E4347B
:1004AB0000F583E0FEA3E0FF120979900004EEF063
:1004BB00A3EFF0D394E8EE94034077900001E0FFB4
:1004CB0074017E00C8EFC8088005C333CE33CED885
:1004DB00F9FF90004EE05EFEA3E05F4E70317BFFB4
:1004EB007A0879D0900001E0FF900009E4F0A3EFC7
:1004FB00F0900002E0FFA3E090000BCFF0A3EFF031
:10050B001200C1900001E024F8FF7D01120003905E
:10051B000001E0FF74017E00C8EFC8088005C333FB
:10052B00CE33CED8F9FF90004EE04EF0A3E04FF063
:10053B008073C3900005E09432900004E094005067
:10054B0064900001E0F974017E00C8E9C8088005D9
:10055B00C333CE33CED8F9FF90004EE05EFCA3E060
:10056B005F4C6041EFF4FFEEF4FE90004EE05EF066
:10057B00A3E05FF07BFF7A0879E8900001E0FF9041
:10058B000009E4F0A3EFF0900002E0FFA3E090007D
:10059B000BCFF0A3EFF01200C1900001E024F8FFA5
:0E05AB00E4FD120003900001E004F00204835E
:10098F0053BC7F43BC2043BC1075BEE675BF02D27B
:04099F00ECD2AF22C5
:0E09B5004392C04393C09021E9E04420F02219
:0B09C300E5BF30E0FB75BF01AFBD22B7
:0B09CE008FBDE5BF30E1FB75BF0222CA
:030053000209326D
:07093200C0E0C0D075D00841
:0D093900E5BF30E00875BF01AFBD1209CE6B
:05094600D0D0D0E0322A
:1009A30075A15575A1AAE5B954F84405F5B9E4F55F
:0209B300A1227F
:10003300EF4E601505A105A105A105A105A105A127
:0A00430005A1EF1F70EA1E80E722FE
:10094B00AD07AC06ED4C600E7FE87E03120033ED75
:07095B001D70F11C80EE226B
:0809ED009021E9E04410F02222
:10078E00C29FD29EC29DC2CDC2CC4387809000062E
:10079E0012069300000082E47B0AFAF9F890000634
:1007AE00E0FCA3E0FDA3E0FEA3E0FF1205F5900040
:1007BE000AEBF0900006E0FCA3E0FDA3E0FEA3E050
:1007CE00FFE47B0AFAF9F81205F590000612068787
:1007DE0090000AE0C39405401F900006E0FCA3E0E1
:1007EE00FDA3E0FEA3E02401FFE43EFEE43DFDE4B4
:1007FE003CFC900006120687E589540F4420F589CB
:10080E0043C9A0900006A3A3A3E0F404F58DD28EF5
:04081E00D299D29CFD
:0108220022B3
:0809F5003098FDC298AF992271
:0809FD008F993099FDC2992287
:1009620075A15575A1AAEF600543B101800353B18A
:07097200FEE4F5A1F5FF22F0
:030A05008FFF223E
:0A09E30075A15575A1AA43B11022B9
:03000000020823D0
:0C082300787FE4F6D8FD75812102086A98
:1005B90075F008758200EF2FFFEE33FECD33CDCCF9
:1005C90033CCC58233C5829BED9AEC99E58298407C
:1005D9000CF582EE9BFEED9AFDEC99FC0FD5F0D659
:1005E900E4CEFBE4CDFAE4CCF9A88222B800C1B983
:1005F9000059BA002DEC8BF084CFCECDFCE5F0CBC1
:10060900F97818EF2FFFEE33FEED33FDEC33FCEBF9
:1006190033FB10D703994004EB99FB0FD8E5E4F9B4
:10062900FA227818EF2FFFEE33FEED33FDEC33FCA1
:10063900C933C910D7059BE99A4007EC9BFCE99A95
:10064900F90FD8E0E4C9FAE4CCFB2275F010EF2FDA
:10065900FFEE33FEED33FDCC33CCC833C810D707DA
:100669009BEC9AE899400AED9BFDEC9AFCE899F815
:0E0679000FD5F0DAE4CDFBE4CCFAE4C8F922A8
:0C068700ECF0A3EDF0A3EEF0A3EFF022E6
:10069300A8828583F0D083D0821206AA1206AA12FA
:1006A30006AA1206AAE473E493A3C583C5F0C5831F
:1006B300C8C582C8F0A3C583C5F0C583C8C582C8B1
:0106C3002214
:10005600E5102409F582E43400F583E005102290CA
:100066000006300703900009E475F0011207480204
:1000760006F02000E97F2ED2008018EF540F24905E
:10008600D43440D4FF30040BEF24BFB41A0050031D
:100096002461FFE511600215110514E514700205CF
:1000A6001330070E900006E475F001120748EF02C0
:1000B600073602090B7403D2078003E4C207F51062
:1000C60090000612075FE4F511F513F514E51160CB
:1000D600077F2012009980F57512FFC201C200C287
:1000E60002C203C205C206C208120065FF700D30C7
:1000F60007057F001200AAAF14AE1322B4255FC213
:10010600D5C204120065FF24D0B40A00501A75F057
:100116000A781130D50508B6FF0106C6A426F620D2
:10012600D5047002D20380D924CFB41A00EF50044C
:10013600C2E5D2040202ABD20180C6D20080C0D290
:100146000280BCD2D580BAD20580B47F2012009935
:100156002002077401B5110040F1120056FF12008B
:10016600990200D3D208D2068095120056FB1200DF
:1001760056FA120056F94A4B7006797C7A037BFFD1
:1001860020022EE511602A7E008E827583001207FA
:100196000960060EEE651270F0C2D5EBC0E0EAC04B
:1001A600E0E9C0E0EE1202F2D0E0F9D0E0FAD0E0E9
:1001B600FB1206F0FF60AAEBC0E0EAC0E0E9C0E08F
:1001C600120099D0E02401F9D0E03400FAD0E0FB27
:1001D600E5120460DCD512D980877BFF7A0279EEBE
:1001E600D202809C791080027908C206C208800873
:1001F600D2D5790A8004790AC2D5E512047002F5CF
:1002060012E4FAFDFEFF120056FC7B0820011312D1
:100216000056FD7B1030000A120056FE120056FFF3
:100226007B20EC3382D592D55013C3E43000069F71
:10023600FFE49EFEE42001039DFDE49CFCE4CBF874
:10024600C201EC700CCFCECDCCE824F8F870F38068
:1002560017C3EF33FFEE33FEED33FDEC33FCEB3328
:10026600FB994002FB0FD8E9EB300105F8D0E0C45A
:1002760048B201C0E00AEC4D4E4F78207B0070C2B8
:10028600EAB5120040BCC0E01202F4D0F0D0E02083
:100296000104C4C0E0C4B201C0F0120082D0F0D59F
:1002A600F0EB0200D312076801705301EA580141CE
:1002B6004C013D4201EE4F01F64401F64901564319
:0802C60001FC5501E04601E0D6
:1002CE004501E047039C5001452D01492E016C2B41
:1002DE00014D23016A2003852A01054800000164AF
:1002EE003F3F3F00790AA2D5200314300509B9100B
:1002FE00020404B9080104A2D5200602500104200C
:10030E0002689202B511005034C0E07F203003190C
:10031E007F30A20272067205500F12034BC202C248
:10032E0006C205C2087F30800F300503E9C0E01217
:10033E000099300503D0E0F9D0E0B511CC300517A7
:10034E007F30B9100C1200997F583004077F7880E7
:10035E0003B908031200993002057F2D0200997F20
:10036E00202008F87F2B2006F322920280CF286EE1
:10037E00756C6C2900D2011200563001F8C201785A
:10038E001130D50108F60201052D504349581200CF
:10039E00562403B405004001E49003979312008A9B
:0D03AE00743A12008AD2037511040201EAAC
:1006C400EF4E6012EF60010EEDBB010B89828A834D
:1006D400F0A3DFFCDEFA2289F05007F709DFFCA95A
:0C06E400F022BBFEFCF309DFFCA9F022B1
:10082F000203BBE493A3F8E493A34003F68001F221
:10083F0008DFF48029E493A3F85407240CC8C333CA
:10084F00C4540F4420C8834004F456800146F6DF99
:10085F00E4800B010204081020408090004DE47EDC
:10086F00019360BCA3FF543F30E509541FFEE4938E
:10087F00A360010ECF54C025E060A840B8E493A355
:10088F00FAE493A3F8E493A3C8C582C8CAC583CA80
:10089F00F0A3C8C582C8CAC583CADFE9DEE780BE38
:0100520000AD
:1006F000BB010689828A83E0225002E722BBFE0208
:09070000E32289828A83E493223A
:10070900BB010CE58229F582E5833AF583E02250A5
:1007190006E92582F8E622BBFE06E92582F8E222EF
:0D072900E58229F582E5833AF583E4932209
:10073600BB010689828A83F0225002F722BBFE01A2
:02074600F3229C
:10074800F8E0FBA3A3E0F925F0F0E582158270023A
:070758001583E0FA38F022DE
:09075F00EBF0A3EAF0A3E9F0229B
:10076800D083D082F8E4937012740193700DA3A320
:1007780093F8740193F5828883E473740293686034
:06078800EFA3A3A380DF34
:10090B00EFB40A07740D120916740A309811A899DE
:10091B00B8130CC2983098FDA899C298B811F6304C
:07092B0099FDC299F5992224
:00000001FF
