:101689005553422064657620696E0A0055534220FD
:10169900646576206F75740A0052657365742068F5
:1016A9006F737420706F72740A0044697361626C9D
:1016B9006520686F737420706F727420626563614E
:1016C900757365206F6620646973636F6E6E6563F9
:1016D900740A0047657444657644657363723A20F9
:1016E90000782530325820000A0047657443666740
:1016F90044657363723A2000496E6974526F6F745E
:1017090044657620457272203D20253032580A0002
:10171900800600010000120080060002000004009B
:1017290000050200000000000009000000000000A0
:10173900010B000000000000020100000000000091
:10174900A006002900000900210A0000000000008D
:10175900810600220000FF00A10000000000F10343
:10176900C033000000000200403500000000000006
:101779000004102327354357434800574348554130
:10178900525444656D6F0057434820416363657344
:10179900736F7279205465737400312E3000687448
:1017A90074703A2F2F7763682E636E005743484150
:1017B90063636573736F7279310040340000000010
:1017C90004004034000001000C0040340000020015
:1017D90013004034000003000400403400000400FA
:0A17E9000E004034000005000E0061
:0407FB007561012201
:10307E00E4F53BE5DA30E01FE56164016005E5D17A
:10308E0020E02E1207FB7561027BFF7A16798912FA
:10309E0004CD753B15801AE561C3940240131207E7
:1030AE00FB7BFF7A1679951204CDE53B7003753BD9
:0330BE0016AF3B0F
:0130C10022EC
:0C33C500EF547FFFE5E354804FF5E32256
:0E33A900EF600753E2BF53D27F2243E240227F
:1007C7009002807408F0E4FF1233C553D1FE7F0115
:1007D7001233A9E5D154FB4402F5D17F147E0012F0
:1007E70032FF53D1FDE5DA30E0FB7F017E001232A4
:0407F700FFC2D82243
:10329900E561C394025003756102E5DA30E009750E
:0B32A900D24043D1017F00227F16229B
:102EB100AE07EE603F75F00CA42476F582E434028F
:102EC100F583E0FF1233C5EE75F00CA42477F5828B
:102ED100E43402F583E0FF1233A9EE75F00CA4246B
:102EE10077F582E43402F583E0701743D2807F6482
:102EF100FE0232CE900332E0FF1233C5A3E0FF128F
:032F010033A922CF
:1032B4007F907E0120D909EF1F70011EEF4E70F43C
:0932C40030D9047F0080027FFE76
:0132CD0022DE
:062785008F388A398B3AFF
:10278B00AF058FD68FD4E4F5DD8538D5C2D97F90D0
:10279B007E0120D909EF1F70011EEF4E70F4E4F596
:1027AB00D520D9037FFE2230D821C2D812307EBF6C
:1027BB001502D20FE561B401037F1622E561B40265
:1027CB00037F15227FC87E001232CE30D95B30DEFC
:1027DB00037F0022E5D9540FFFBF0E028037BF0ADB
:1027EB0020E53A45397003EF8038C3E53A94FFE5AD
:1027FB003994FF5008E53A153A7002153915DD800A
:10280B002BE538C4540F24F7600D24FC6004240C12
:10281B007014EF6017800BBF0305EF640B600DEFB7
:10282B00600A4420FF227FFE2275D8FF7F0F7E00B7
:10283B001232CE05DDAFDDEFC394035003022794B4
:02284B007F20EC
:01284D002268
:081E7C00900042F0E4FDFFFEBE
:101E8400E4F532F533AA06A9077B0190037B04F03D
:101E9400A3EAF0A3E9F0AF05A9071B8B357536005B
:101EA40089377FC87E001232CEE536453745356026
:101EB4000AAB35AA36A937E412013475D7087B106A
:101EC4007A27E4FD7FD01227858F34E53460012220
:101ED40075D6D075D4D075D701900047E0FE900038
:101EE40046E0FDEEF532EDF533E53345327003029D
:101EF400203590037BE0FBA3E0FAA3E0F9EA494B29
:101F04007003022035900040E020E703021FAAE599
:101F14003345327003021FA47FC87E001232CE7B89
:101F2400107A27ADD47F901227858F34E534600171
:101F340022AFDBC3EF9533E495325004AFDB80026C
:101F4400AF33EFFDC3E5339DF533E5329400F5324D
:101F5400E53645374535600AAB35AA36A937EF1261
:101F64000112E4FEEE6F602874002EF582E4340062
:101F7400F583E0FD90037BE0FBA3E0FAA3E0F9ED39
:101F840012013490037CE475F0011201460E80D4F2
:101F9400E5DB600C900280E01455DB7003021F1334
:101FA400E4F5D7022035E533453270030220357F4E
:101FB400C87E001232CE900280E0FFFDC3E5339D5F
:101FC400E532940040028002AF338FD7E4FFEF651F
:101FD400D7602890037BE0FBA3E0FAA3E0F91200AA
:101FE400F9FE74402FF582E43400F583EEF090039B
:101FF4007CE475F0011201460F80D37B107A27AD83
:10200400D67F101227858F34E534600122AFD7C301
:10201400E5339FF533E5329400F532E5364537452F
:10202400356083AB35AA36A937E5D7120112021FF2
:10203400AA7FC87E001232CEE5D760047F9080026A
:102044007F107B107A277DC01227858F34E534609A
:102054000122E5D77002FF22E5DB7002FF227F1721
:012064002259
:100FE100E4FD8F828E83E493FC74402DF582E4341A
:0E0FF10000F583ECF00FBF00010E0DBD08E40B
:010FFF0022CF
:103101009002807408F07E177F19120FE17E027F12
:10311100B17D2F121E84EF6001229002B8E090026F
:1031210080F090171FE493FFE52FC39F50037F1793
:03313100227F00FA
:013134002278
:102E5D007E177F21120FE17E027FB17D2F121E841E
:102E6D00EF6001229002B3E0F52F7E177F21120F44
:102E7D00E1900046E52FF07E027FB17D2F121E847A
:102E8D00EF600122E52FD394404003752F40AF2F03
:102E9D007E0078407C007D017B017A0279B11200C1
:032EAD00D37F00D0
:012EB00022FF
:0231FE008F2F11
:103200007E177F29120FE1E52F121E7CEF6001224D
:0E321000AF2F1233C57F0A7E001232FF7F00FF
:01321E00228D
:0E33B700AB077E177F31120FE1EB121E7C2256
:10336800AB077E177F41120FE1900044EB121E7FDE
:013378002232
:1021F400E4F52E7BFF7A1679A21204CDE4F52AE5E4
:102204002AC3952E50157F647E001232FFE52ED32B
:10221400940A4003AF2B22052A80E41207C7E4F591
:102224002AF52B7F017E001232FF123299EF700BD8
:10223400F52A052BE52BD394645009052AE52AC316
:10224400946440DFE52A600F1207FB7BFF7A16795E
:10225400B31204CD7F16227F011233A91231018FEC
:102264002BE52B60030223217BFF7A1679DC120411
:10227400CDE4F52A90171FE493FFE52AC39F501E6F
:102284007BFF7A1679EA74B1252AF582E43402F5E3
:1022940083E0753F00F5401204CD052A80D67BFF0C
:1022A4007A1679F11204CD9002B5E0F52D90172B32
:1022B400E493FF1231FE8F2BE52B7061122E5D8F9C
:1022C4002BE52B70589002B6E0F52C7BFF7A16793B
:1022D400F31204CDE4F52A9002B3E0FFE52AC39F8C
:1022E400501E7BFF7A1679EA74B1252AF582E4340C
:1022F40002F583E0753F00F5401204CD052A80D72E
:102304007BFF7A1679F11204CD9002BFE0FFE52D30
:102314007008BF0805756104FF227FFB227BFF7AEA
:10232400177901753F00852B401204CD7561027F3A
:09233400011233A9052E0222005A
:10316700C2EAE4F5E39021E17448F075E50075E4FF
:103177000075E70075E640E4F5D4F5D675E2887585
:0A318700D8FF1207FBA37403F02227
:1033890021FF000000000000A1FE00000000010074
:102D4000900358E0655B7014900355E06558700C73
:102D5000A3E065597006A3E0655A6046AF5BAE5AC2
:102D6000AD59AC589003551202C990033EE0FEA342
:102D7000E0FBCAEECA65677003EA6566700EAF5B7A
:102D8000AE5AAD59AC589003591202C9CDEBCDCC17
:102D9000EACC7F011229928F69EF60031232E8AF0B
:052DA00069227F002202
:102B0C0090036BE0FCA3E0FDA3E0FEA3E0F55B8E7D
:052B1C005A8D598C5890
:102B210090035CE0655B7014900359E06558700C8C
:102B3100A3E065597006A3E0655A6042AF5BAE5AE7
:102B4100AD59AC589003591202C9AB67AA669003FC
:102B51003EE06A7003A3E06B700EAF5BAE5AAD59F5
:102B6100AC589003551202C9CDEBCDCCEACC7F0114
:102B71001229928F69EF60031232E8AF69227F0058
:012B81002231
:10303800AF5BAE5AAD59AC589003551202C9900314
:103048003EE0FEA3E0FBCAEECA65677003EA656668
:10305800700EAF5BAE5AAD59AC589003591202C905
:10306800CDEBCDCCEACC7F01120F588F69EF60030E
:063078001232E8AF6922EC
:102C68008F6D8E6C8D6B8C6AE557241AF582E4356E
:102C780056F583E56AF0A3E56BF0E5572414F58271
:0C2C8800E43556F583E56CF0A3E56DF033
:102C9400AF5BAE5AAD59AC589003591202C9AB6739
:102CA400AA6690033EE06A7003A3E06B700EAF5B0C
:102CB400AE5AAD59AC589003551202C9CDEBCDCCE8
:102CC400EACC7F01120F588F69EF60031232E8AF2C
:022CD400692273
:100C5900900345E0FCA3E0FDA3E0FEA3E0F5558E7B
:070C6900548D538C52E4FF8F
:100C70008FD3900364E0FBB4020CAF55AE54AD5378
:100C8000AC527801800EEBB40317AF55AE54AD53A0
:100C9000AC52780212025C8F558E548D538C528068
:100CA0002AC200E55530E002D200AF55AE54AD5334
:100CB000AC527801120249E5552FF555E5543EF541
:100CC00054E5533DF553E5523CF552E55024FFFF02
:100CD000EF5554FEE555FF90033FE02FF557900385
:100CE0003EE03EF556AE54AD53AC5212325F900327
:100CF00065E0F8A3E0F9A3E0FAA3E02FF555EA3E9A
:100D0000F554E93DF553E83CF552900358E065553C
:100D10007014900355E06552700CA3E065537006A3
:100D2000A3E06554601D300D0712290DEF6001220C
:100D300085555B85545A855359855258122D40EF7D
:100D4000600122E5D36027E5D3B4040474FF800674
:100D5000E5D3B4010BE4F555F554F553F552800C89
:100D6000856052855F53855E54855D55D20DC20EF8
:100D7000900364E0FB64027041855782855683E0EE
:100D8000F56BA3E0F56C856B6DE4F56AF56BC3E577
:100D90006D94F7E56C94FF4002D20EE5D3600F85A9
:100DA0005782855683E552F0A3E553F0E155300EA6
:100DB00002E155AE6CAF6DE4E14DEB64037067AFDB
:100DC00057AE561233998F6D8E6C8D6B8C6AE56AB7
:100DD00054F0FFE555540F4FF555536A0FE56AD3AC
:100DE000940F5016E56AB40F13E56BB4FF0EE56C73
:100DF000B4FF09E56DC394F74002D20EE5D360134A
:100E0000AF55AE54AD53AC5285578285568312020E
:100E1000C9E155300E02E155856A5D856B5E856CD2
:100E20005F856D60E155855782855683E0F56DE5F8
:100E300052C454F0FFE56D540F4FF56AE553C454A6
:100E4000F0FFE552C4540F4FF56BE55024FFFFEF60
:100E5000FE90033FE024FFFF90033EE03EFEEF657F
:100E6000577003EE65566039855782855683A3E037
:100E7000F56CE5D37002E11630000F855782855678
:100E800083E56AF0A3E56BF0E1168557828556830A
:100E9000E552F0E553540FFFE56C54F04FA3F0809A
:100EA00075E5D36011300004AF6A8002AF528557F8
:100EB00082855683EFF0A20DE43345D360071229F3
:100EC0000DEF600122900355E0FCA3E0FDA3E0FEDE
:100ED000A3E02401F55BE43EF55AE43DF559E43C1A
:100EE000F558122D40EF60012290033EE0FEA3E092
:100EF000FFF5828E83E0F56CE5D3601A300004AD17
:100F00006B800BE553540FFDE56C54F04DFD8F8263
:100F10008E83EDF0D20DE4F56AF56B300014E56CCC
:100F2000C4F854F0C868F56CE56DC4540F48F56D0D
:100F30008003536C0FC3E56D94F7E56C940F40028A
:100F4000D20EE5D3700F200E0CAE6CAF6D8F608E9D
:080F50005FF55EF55D7F0022F4
:091C7C00E4F560F55FF55EF55D2D
:101C8500900340E0FCA3E0FDA3E0FEA3E0FFAB6012
:101C9500AA5FA95EA85DD312023840037FB122E591
:101CA500602401FFE4355FFEE4355EFDE4355DFC4F
:101CB5009003731202C98F55120C68CBEFCB9003BA
:101CC50073E0FCA3E0FDA3E0FEA3E0F5608E5F8D6D
:101CD5005E8C5DEB600122E56D700AE56A456B453A
:101CE5006C7002C161900342E0FF900375E06F7074
:101CF5001A900340E0FF900373E06F700E9003416C
:101D0500E0FF900374E06F70028185900364E0FF4B
:101D150064017002818590033EE0FCA3E08C56F5DA
:101D250057EF6402703CE55075F080A424FFFFE591
:101D3500F034FFF56A8F6BF56C8F6D74022557F5DE
:101D450057E43556F556855782F583E07004A3E0D0
:101D55006075E56B156B7002156A14AE6A4E70DB23
:101D6500C149E55075F040A424FFFFE5F034FFF5C7
:101D75006A8F6BF56C8F6D74042557F557E43556EE
:101D8500F556855782F583E06002C139A3E060020C
:101D9500C139855782855683A3A3E06002C1398581
:101DA5005782855683A3A3A3E0540F6002C13985EA
:101DB5005782855683A3A374FFF085578285568382
:101DC500A3A3A3E0440FF085578285568374FFF0E3
:101DD500A3F0AE6CAF6DEF4560FFEE455FFEE55ECF
:101DE500FDE55DFCEEC0E0EFC0E0E56B24FFFFE53F
:101DF5006A34FFCBEFCBFAD0E0FFD0E0FEC3EF9B18
:101E0500F560EE9AF55FED9400F55EEC9400F55DF6
:101E1500900340E0FCA3E0FDA3E0FEA3E0FFAB6080
:101E2500AA5FA95EA85DD312023840037FB122D212
:101E35000D7F0022E56B156B7002156A14AE6A4EB4
:101E45006002A17CAE6CAF6DE5604FF560E55F4E5D
:101E5500F55FE55EF55EE55DF55D8185900373E013
:101E6500FCA3E0FDA3E0FEA3E0F5558E548D538C55
:071E7500527F04120C7022E1
:0D17F300121C85EF64B1600122121C7C22E3
:10080000E561C394105007121000EF60012212310D
:10081000B8EF600122C20B7873E6FF7002FF22EF8F
:10082000645C6003BF2F0575687480147874E66497
:100830003A600201EBEFC39443500201EB75687616
:10084000900364E0FBB4031090036FE0FCA3E0FDB1
:10085000A3E0FEA3E0FF8005E4FFFEFDFC9003455E
:100860001202C9A868E6600201EE74FFF565F5643E
:10087000F563F562EB6403604C9003487402F090FA
:100880000372E0F55190034DE0FCA3E0FDA3E0FE10
:10089000A3E0FFEFC0E0AF51CBEFCBD0E0FFC3EF61
:1008A0009BFFEE9400FEED9400FDEC9400FC9003A1
:1008B0004D1202C9AF51E4FCFDFE12327C8F658EF1
:1008C000648D638C62900345E0FCA3E0FDA3E0FE31
:1008D000A3E0F5608E5F8D5E8C5DE4F571F570F5DB
:1008E0006FF56EF55C7561127F4122756873900338
:1008F00045E0700CA3E07008A3E07004A3E0604141
:1009000085515C900345E0FCA3E0FDA3E0FEA3E07D
:1009100024FEFFEE34FFFEED34FFFDEC34FFFC90CF
:100920000344E0F9F812025C90034DE0F8A3E0F90B
:10093000A3E0FAA3E02FFFEA3EFEE93DFDE83C809C
:1009400026900372E0F55CAF5CCBEFCB90034DE0FB
:10095000FCA3E0FDA3E0FEA3E0C39BFFEE9400FE3A
:10096000ED9400FDEC9400FC90036B1202C9E55C71
:1009700070028109122B0CEF600122E490034BF00E
:10098000A3F0E550FE90034BE0FCA3E0FDC3940010
:10099000EC9E400261E6ED2567F557EC3566F556AD
:1009A000855782F583E0FF70028139EF64E57002BC
:1009B00061D6BF05027FE5A868E6FE6F6007EE64BA
:1009C0002A600261D6EF6E70047F0180027F008F83
:1009D0006CAF6CEFC3940B5052AE6CE5682EF8E62A
:1009E000FEE5572FF582E43556F583E0FD6E60365F
:1009F000EE6007645C6003BE2F1EED6420702CEF78
:100A0000C39408500FE5572408F582E43556F58362
:100A1000E0B420177F0B8013BE2E10E56C640860D5
:100A200003BD20077F070F056C80A8AE6CE5682E1C
:100A3000F8E6F56DEFC3940B50026123E557240BE4
:100A4000F582E43556F583E030E3026123C20EE51A
:100A500057241AFFE43556FE1233DDE4FCFD900303
:100A6000451202C9900364E0B40314E5572414FF4F
:100A7000E43556FE1233DD900345EEF0A3EFF0E5CA
:100A80006D6005200E02611A900345E0FCA3E0FDB5
:100A9000A3E0FEA3E0F5608E5F8D5E8C5DE4F571F2
:100AA000F570F56FF56EF55CE557240BF582E435CE
:100AB00056F583E030E41E74FFF565F564F563F5E3
:100AC000627D137F101231BCEF600122300E037F74
:100AD00043227F4122E557241CFFE43556FE1233A2
:100AE000998F658E648D638C62900345E07017A3C7
:100AF000E07013A3E0700FA3E0700B755CFFF56569
:100B0000F564F563F5627D147F101231BCEF60016E
:100B100022300E037F43227F0022E56C042568F516
:100B20006801EEE56D642A600261D6E557240BF595
:100B300082E43556F583E030E30261D6E5A1540F37
:100B4000FFE5A154E0FEBE400CEFC394044006EF65
:100B5000D3940940037F1122E562456345644565EE
:100B60006022E56230E7031207FFE56524FFF565C3
:100B7000E56434FFF564E56334FFF563E56234FF53
:100B8000F5628052E4FFF56AE5572FF582E43556A9
:100B9000F583E06420602FBF080AAE6AE5682EF88E
:100BA000762E056AE5572FF582E43556F583E0FE8B
:100BB000AD6AE5682DF8EEF6E56A7008A868E6B457
:100BC000050276E5056A0FBF0BBEAF6AE5682FF830
:100BD000E4F6D20E414F90034CE02420F090034BFA
:100BE000E03400F0218290036BE0FCA3E0FDA3E081
:100BF000FEA3E02401FFE43EFEE43DFDE43CFC9066
:100C0000036B1202C9155C216E900345E0700CA3C2
:100C1000E07008A3E07004A3E0601E120C59EF60BE
:100C20000122200E14900345E56AF0A3E56BF0A3C2
:100C3000E56CF0A3E56DF001EEE4FFCEEFCE0FE53D
:100C4000682EF8E6FE600F642A600BEE645C6003B9
:090C5000BE2FE87FB3227F42228F
:102FA200E56024FEFFE55F34FFFEE55E34FFFDE5EC
:102FB2005D34FFFC900344E0F9F812025C90034D8B
:102FC200E0F8A3E0F9A3E0FAA3E02FFBEA3EFAE976
:102FD2003DF9E83CF8E4FCFDFEEB255CF55BEE3ADE
:0B2FE200F55AED39F559EC38F558228E
:10269400900345E0700EA3E0700AA3E07006A3E087
:1026A4007002E176787712026F12325FEFC0E0AF0A
:1026B4005CCBEFCBD0E0FFC3EF9BF56DEE9400F560
:1026C4006CED9400F56BEC9400F56AAF6DAE6CADF7
:1026D4006BAC6A787312027BC312023840177873AA
:1026E40012026FC3EF956DFFEE956CFEED956BFDD9
:1026F400EC956A805D900345E0FCA3E0FDA3E0FE59
:10270400A3E0F5608E5F8D5E8C5DAF51E4FCFDFE51
:10271400787312027BC3120238403F856055855F8F
:1027240054855E53855D52E4FF120C70EF60012204
:10273400200E3F787312026FEFC0E0AF51CBEFCBA6
:10274400D0E0FFC3EF9BFFEE9400FEED9400FDECA0
:102754009400FC78731202BD80B07876E6F55C12C2
:102764002FA2AF5BAE5AAD59AC5878731202BD7F3D
:102774000022755CFF78731202D5FFFFFFFF7F0014
:012784002232
:033410007F122206
:1032E8009003591202EEFFFFFFFF9003551202EE02
:0732F800FFFFFFFFC20D22E2
:0431B8007D107F10F7
:1031BC00AE61EEC39F4005CEEDCE8D61EE6D70021B
:0F31CC00FF22756101122FEDEF6001227F832238
:1031DB00AB69BB161175610190035E1202EE000024
:1031EB000000CFEBCF22BB1507756102CFEBCF22CF
:0331FB007F002230
:102E03007F027E001232FF90036AE569F0122FED14
:102E1300EF600122E561C3940450037F83227E3374
:102E23007F89120FE1900369E0900044F0E4FDFF15
:102E3300FE121E848F69BF160122900363E0540FB4
:102E4300FF123368900362E0540F4480FF1233682B
:0A2E530090036AE0FFF569E4F02245
:1030C200900048EDF0A3E4F0A3F0A3F0ED60047EDD
:1030D2008080027E0090004CEEF090035DE0900054
:1030E2004DF0A37406F0A3EFF0A3E4F0A3F0A3F075
:0F30F200A3EDF0A3E4F0A3F0A3F0A3F0A3F0226A
:071A49001230C27E007F6233
:101A50008E308F319000407455F0A37453F0A3740E
:101A600042F0A304F075D71F900363E0FF90036A70
:101A7000E0FD7B007AFF1227858F69BF160122EFF8
:101A800060397E007F627C007D407B1B7A001232D1
:101A90001F122E037E007F407C007D627B1B7A003C
:101AA00012321F900363E0FF90036AE0FD7B007A2F
:101AB000FF1227858F69EF6002817690036AE064E8
:101AC00040F0900048E0FDA3E0FF4D7002813BEF45
:101AD000F52EEDF52F90004CE020E7026194D20145
:101AE000E52F452E7002618CE52E7007E52FC3941B
:101AF000404009AF318530E58FE48008C20175E5CB
:101B00000075E400900362E0FF90036AE0FD7B0053
:101B10007AFF1227858F69EF601A75E50075E4007A
:101B2000EF642E600122900362E0540F4480FF12A4
:101B30003368805890036AE06480F030011FE5DB71
:101B40006440704874C0252FF52F74FF352EF52E94
:101B500074402531F531E43530F5308083AFDBAEAC
:101B60002FEEC39F5003CFEECFE4FEEE6F601D74E7
:101B7000002EF582E43400F583E0853182853083E0
:101B8000F00531E531700205300E80DF75E5007536
:101B9000E400813BE52F452E70028135E52E70086B
:101BA000AF2FEFC394404023AD318530E78DE6740D
:101BB000C0252FF52F74FF352EF52E74402531F5F5
:101BC00031E43530F53075D740803375E70075E680
:101BD000408FD7E4FFE52F6F601F8531828530830A
:101BE000E0FE74402FF582E43400F583EEF0053119
:101BF000E531700205300F80DCE4F52EF52F9003FF
:101C000063E0FF90036AE0FD7B007AFF1227858F77
:101C100069EF601875E70075E640EF642E600122F9
:101C2000900363E0540FFF123368800990036AE069
:101C30006440F0619475E70075E640900362E0FF50
:101C400090036AE0FD7B007AFF1227858F69EF60C1
:101C5000012290036AE06480F075691FE5DB640D82
:101C60006003AF692290000CE0FE7004F569FF226A
:0C1C7000EEC394024003022E03AF692271
:103240007F0A7E001232FF7D127F03121A497F052A
:0F3250007E001232FFE5697002FF221231DB228D
:102A9200757209756A0F7D087F251230C290004E4B
:102AA200740AF0900053E4F0121A4CAF69EF7017F9
:102AB200900068E0FEBE040575720A8037EE640875
:102AC200703275720B802DEF64166028EF6415600A
:102AD20023EF6413601E8F6B123240856B69E56AC7
:102AE2007E0030E3047F4080027FC81232FF156A05
:102AF200E56A70A2E57224F8FF7401C8EFC8088085
:0A2B020002C333D8FCF550AF6B227C
:10233D00122FEDEF600122E561C3940450037F83FA
:10234D0022756104122E5D8F69EF60012290004E9F
:10235D00E06408705FC20CA3E0B40602D20C9000DA
:10236D004BE0900369F0E4F56AE56A600790005B65
:10237D00E0FF8005900054E0FF8F6BE56A600790E9
:10238D00005DE0FF8005900056E0FFEF6440702493
:10239D00E56B30E70CE56B540F4490900362F080D1
:1023AD000AE56B540F4410900363F0056AE56AB4B7
:1023BD0002B7800675691FAF6922900045E0FF12D4
:1023CD0033B78F69EF600122E4F56A7E337F911296
:1023DD000FE1900369E0900044F07D6BAF67AE664E
:1023ED00121E848F69EF7010E56BB4011A85678238
:1023FD00856683E0F56A800FE569B42E07E4FF1268
:10240D0033688003AF69227F057E001232FF1232DE
:10241D00E8E490036AF090035DF07D247F121230A2
:10242D00C2AF67AE66121A50E5697023E56A60188F
:10243D0090035DE07012856782856683E0B40508C0
:10244D0090035D7401F080D27D057F040231BCE5FF
:10245D006A600E90035DE0C394035005E004F080C4
:0C246D00B9E490035DF07F01122F5422AF
:102DA50078731202D500000000122FEDEF600122AA
:102DB500E561C39405503012233DEF600E7F407EE0
:102DC500001232FF12233DEF600122122A92EF60BA
:102DD50003AF6922900062E0FCA3E0FDA3E0FEA33F
:102DE500E0FF78731202BDE4FDFF121A49E5697030
:0E2DF50002FF2285696A123240AF6A8F69229E
:102F5400E4FDFCE4F5A10DBD00010CBC01F5BDF4DC
:102F6400F2EFC394024013AE61BE12057561058091
:102F740009EED394104003756110AE69EF6014EE4E
:102F84006416600FEE6415600A123240CEEFCEEE86
:0E2F94007001227F027E001232FF1231DB221A
:10100000E561C39405500A12233DEF600122122AC4
:10101000921232E890035EE0FCA3E0FDA3E0FEA3A1
:10102000E054F0FFEC7B707A5679347812C31202E8
:1010300038700A900361E0540FF5578003E4F557C8
:10104000E4F551F55CE4F565F564F563F562F55B8F
:10105000F55AF559F558122B21EF600D122E031297
:101060002A92122B21EF600122E557700F856782CB
:10107000856683E054FD64E97002217AE56724FE09
:10108000F582E5663401F583E0FEA3E064AA70030F
:10109000EE645560037F9122855156E55664407099
:1010A00002216AE56724BEFFE5663401FE7C00EF9D
:1010B0002556FFEC3ECF2408CF3400FE1233998F23
:1010C0005B8E5A8D598C58E56724BEFFE566340166
:1010D000FE7C00EF2556FFEC3EF583EF2404F582FD
:1010E000E43583F583E0F56AE56A64056005E56A41
:1010F000B40F32E55B2565F55BE55A3564F55AE5D5
:10110000593563F559E5583562F558E55C600201DB
:1011100056E5562410F55C855B65855A64855963F0
:101120008558620156E56A30E703536A3FE56A6015
:1011300031E56AC3940F502AE55794015022900379
:1011400059E0FCA3E0FDA3E0FEA3E0255BF55BEE28
:10115000355AF55AED3559F559EC3558F558801A88
:10116000155774102556F556019BE55C6009E5514D
:101170007005855C5101457F9222AF5BAE5AAD5937
:10118000AC5890035E1202C9122B21EF6001228538
:101190006782856683E054FD64E960037FA122E5F0
:1011A0006724FEF582E5663401F583E0FEA3E06482
:1011B000AA7003EE645560037FA122E567240DF554
:1011C00082E43566F583E0FFF5519003447407F03F
:1011D000EF20E710EF25E0FF900344E014F0E0700B
:1011E000EF755101E5672416FFE43566FE1233DD25
:1011F000E4FCFD9003511202C9900353E0FEA3E00A
:101200004E7012E5672424FFE43566FE1233999090
:1012100003511202C9E5672413FFE43566FE123359
:10122000DDE48F718E70F56FF56EEF4E7014E5672B
:101230002420FFE43566FE1233998F718E708D6F16
:101240008C6EE5672411FFE43566FE1233DDE55050
:1012500033333354F8147C002FFFEC3EFEE5722448
:10126000FBFDEFC8EDC8088005CEC313CE13D8F937
:10127000FFE4FCFD90036F1202C9E567240EFFE452
:101280003566FE1233DDE4FCFD9003651202C99061
:101290000372E0FF7E00900367E0FCA3E02FFFEE07
:1012A0003CFEE4FCFD900351E0F8A3E0F9A3E0FA72
:1012B000A3E02FF56DEA3EF56CED39F56BEC38F5F2
:1012C0006AE5672410F582E43566F583E090035102
:1012D000B4021FE0FCA3E0FDA3E0FEA3E0256DF552
:1012E0006DEE356CF56CED356BF56BEC356AF56ACA
:1012F00080071202EE00000000E55B256DFFE55A55
:10130000356CFEE559356BFDE558356AFC90034DAB
:101310001202C9C3E571956DFFE570956CFEE56F2E
:10132000956BFDE56E956AFC900344E0F9F81202B6
:10133000499003401202C9E47FF57EFFFDFC900353
:1013400040E0F8A3E0F9A3E0FAA3E0FBC3120238FF
:101350005023E4900349F0A3F0900342E0FEA3E0A1
:10136000C394F5EE940F90036450057401F080313E
:101370007402F0802CE5672430FFE43566FE1233FA
:10138000DD900349EEF0A3EFF0E567242CFFE43590
:1013900066FE12339990036F1202C99003647403BE
:1013A000F0900367E0FEA3E04E605790036FE0FC0F
:1013B000A3E0FDA3E0FEA3E0FFEC4D4E4F6043E54C
:1013C000672410F582E43566F583E06401601490CB
:1013D0000351E0FCA3E0FDA3E0FEA3E0FFEC4D4ED3
:1013E0004F601FE567240BF582E43566F583E070F6
:1013F00011E567240CF582E43566F583E0C39402B9
:10140000500CE557700575570101407FA3229003EA
:1014100065E0FCA3E0FDA3E0FEA3E0255BFFEE3565
:101420005AFEED3559FDEC3558FC9003651202C9A2
:081430007D107F051231BC2282
:10290D00900355E0FCA3E0FDA3E0FEA3E0F55B8E94
:10291D005A8D598C58123038EF600122900351E0D6
:10292D00FCA3E0FDA3E0FEA3E0FFEC4D4E4F605095
:10293D00EF255BF55BEE355AF55AED3559F559EC4A
:10294D003558F55890033EE0FCA3E0FD7F01120FD2
:10295D00588F69900351E0F8A3E0F9A3E0FAA3E0E2
:10296D00FBC3E55B9BF55BE55A9AF55AE55999F57D
:10297D0059E55898F558E56960061232E8AF6922B5
:05298D00C20D7F0022D5
:102CD600121C85EF600564B1600122EF6007121CCB
:102CE6007CEF60012212290DEF600122AF60AE5F1A
:102CF600AD5EAC5D9003451202C9122B0CEF60016C
:102D06002290034CE02567F55790034BE03566F5B6
:102D160056F583E557241CF582E43583F5831202C4
:102D2600EE01000000900345E0FCA3E0FDA3E0FEF9
:0A2D3600A3E0FF123409122C6822FA
:082A16007FFF7EFF7DFF7CFFC6
:102A1E008F6D8E6C8D6B8C6A900349E0FCA3E0FD8C
:102A2E004C7002FF22CFEDCFCEECCEE4FCFD900336
:102A3E005EE0F8A3E0F9A3E0FAA3E02FF55BEA3E2F
:102A4E00F55AED39F559EC38F558122B21EF600196
:102A5E0022E56724E8FFE5663401FE123399EF257F
:102A6E006DFFEE356CFEED356BFDEC356AFC123408
:102A7E0009E56724E8F582E5663401F5831202C99B
:042A8E00122C942250
:102F0400C20BE561C394144044122B0CEF60012200
:102F140090034CE02567F55790034BE03566F55672
:102F2400F583E557240BF582E43583F583E020E44B
:102F34001CAF65AE64AD63AC62123409E557241C62
:102F4400F582E43556F5831202C9022C947F0022DF
:102BF600AF61EFC3941250037FB422BF1244900317
:102C060064E06403603C900344E0FF7401C8EFC8CD
:102C1600088002C333D8FCF55190034DE0F8A3E0D9
:102C2600F9A3E0FAA3E0FB900372E0FFE4FCFDFEEB
:102C3600EB2FFFEE3AFEED39FDEC38FC90034D121A
:102C460002C9AF61EFD394134008BF14077873E647
:102C56007002C20B300B07122F04EF6001221231F3
:022C6600B82292
:10284E00E561C394135007120800EF6001221231A4
:10285E00B8EF600122122B0CEF60012290034BE0C7
:10286E00FEA3E02567F582E5663EF58374E5F0127A
:10287E002C94EF600122900345E0F56AA3E0F56B1E
:10288E00A3E0F56CA3E0F56DE56A456B456C456D0F
:10289E00606A900345E0FCA3E0FDA3E0FEA3E02404
:1028AE00FFFFEE34FFFEED34FFFDEC34FFFC900332
:1028BE00451202C9E4F560F55FF55EF55D856A5275
:1028CE00856B53856C54856D557F01120C70EF60CE
:1028DE000122E5602401F560E4355FF55FE4355EC5
:1028EE00F55EE4355DF55D300ED312290DEF600116
:0F28FE0022AF60AE5FAD5EAC5D022A1E7F00228E
:101800001208008F5CEF700912284EEF7002214120
:1018100022E55C64426003AF5C22E550FEC39003A6
:101820004CE0940090034BE09E5002214190034510
:10183000E0700EA3E0700AA3E07006A3E07002015E
:10184000EC120C59EF600122200E02214190034559
:10185000E0FCA3E0FDA3E0FEA3E0F5608E5F8D5EFB
:101860008C5D1217F3EF600122900345E0FCA3E0CA
:10187000FDA3E0FEA3E0F5558E548D538C527F02FC
:10188000120C70EF60012212290DEF6001228567B2
:1018900082856683AF50EF600AE4FEE4F0A3DEFBCE
:1018A0001F80F3E4F55C122FA2E490034BF0A3F049
:1018B000AF5BAE5AAD59AC5890036B1202C985515B
:1018C0006AE56A6020122C94EF600122E55B240136
:1018D000F55BE4355AF55AE43559F559E43558F5D0
:1018E00058156A80DC122A16EF605622900372E0C7
:1018F000F55C90036B74FF12028A8F5B122B1BEF57
:10190000600122E490034BF0A3F0E550FE90034BFE
:10191000E0FCA3E0FDC39400EC9E501FE5672DF5AD
:1019200082E5663CF583E064E5601690034CE024B4
:1019300020F090034BE03400F080CFD55CB47FB250
:1019400022900345E0FCA3E0FDA3E0FEA3E0F560E8
:101950008E5F8D5E8C5DE5B130E4037F112212173E
:10196000F3EF60012212290DEF600122AF60AE5F3C
:10197000AD5EAC5D9003451202C9122A16EF6001FC
:1019800022122B0CEF60012290034CE02567F557E3
:1019900090034BE03566F556E4FFEFC3940B50041B
:1019A0007E2080027E00E5572FF582E43556F583D0
:1019B000EEF00FBF20E4E5572418F582E43556F524
:1019C000837421F0A37430F0E557241CF582E435CC
:1019D00056F5837401F0E4FFEFC3940B5023A8681D
:1019E000E6FE601DEEB42E047F080568A868E6FEDA
:1019F000E5572FF582E43556F583EEF00F05688044
:101A0000D7900345E0FCA3E0FDA3E0FEA3E0FF12B6
:101A10003409122C68EF600122900345E0FCA3E03A
:101A2000FDA3E0FEA3E0F5608E5F8D5E8C5DE4F5C6
:101A300065F564F563F562F571F570F56FF56EF5B2
:091A40005C7D147F101231BC2200
:10143800D20BE550FE900344E0FBE4C8EBC80880FB
:1014480005C333CE33CED8F924FFFFEE34FFFEEFC9
:101458002565FFEE3564FEE43563FDE43562FCE5A1
:10146800722BF9F81202499003771202C9AF71AED4
:1014780070AD6FAC6EC8E9C81202498F558E548D95
:10148800538C52900377E0F8A3E0F9A3E0FAA3E0C5
:10149800FBD31202384024900377E0FCA3E0FDA3BD
:1014A800E0FEA3E09555FFEE9554FEED9553FDEC57
:1014B8009552FC9003771202C98015900345E0FC11
:1014C800A3E0FDA3E0FEA3E0F5608E5F8D5E8C5D7A
:1014D800900345E0701FA3E0701BA3E07017A3E022
:1014E8007013E5624563456445657002FF22122C5E
:1014F800D6EF601522E562456345644565700A903C
:1015080003771202EE00000001AF60AE5FAD5EAC83
:101518005D78731202BD900377E0FCA3E0FDA3E0C1
:10152800FEA3E024FFFFEE34FFFEED34FFFDEC34B4
:10153800FFFC9003771202C9AF60AE5FAD5EAC5D91
:101548008F558E548D538C5278771202BDE4FF125A
:101558000C70EF600122200E02A1F2900377E07078
:101568000CA3E07008A3E07004A3E060067E007F8F
:101578000180047E007F00EF4E7010787312026FB6
:101588008F608E5F8D5E8C5D7F0022900377E0FC1C
:10159800A3E0FDA3E0FEA3E0FF12022A122A1EEF39
:1015A800600122AF60AE5FAD5EAC5D78771202BDC0
:1015B8001217F3EF600122787712026F8F558E545D
:1015C8008D538C527F02120C70EF600122900377CA
:1015D80074FF12028AEC4D4E4F70C8787312026F76
:1015E8008F608E5F8D5E8C5DC185900377E06002B1
:1015F800A11EA3E06002A11EA3E06002A11EA3E059
:101608006002A11E787712026F8F6D8E6C8D6B8CC5
:101618006A856A52856B53856C54856D557F0112B6
:101628000C70EF600122900377E0FCA3E0FDA3E0DB
:10163800FEA3E02401FFE43EFEE43DFDE43CFC9013
:1016480003771202C9300EC9900377E0FCA3E0FDCE
:10165800A3E0FEA3E0FF122A1EEF600122900345DB
:10166800E0FCA3E0FDA3E0FEA3E0F5608E5F8D5EE5
:101678008C5DE4F571F570F56FF56EF55C12290D6A
:01168800223F
:10247900E561C3941350037FB422122B0CEF600162
:1024890022C21090034CE02567F55790034BE035C5
:1024990066F556787BE6FFE557240BF582E4355659
:1024A900F583E0F6EFF4600FE557240BF582E43588
:1024B90056F583EFF0D2107979E7F56B787AE6F57E
:1024C9006AE5572416FFE43556FE1233DD7879EEB6
:1024D900F608EFF6E56BF47003E56AF46014E55766
:1024E9002416F582E43556F583E56AF0A3E56BF029
:1024F900D2107977E7F56B7878E6F56AE55724180D
:10250900FFE43556FE1233DD7877EEF608EFF6E58F
:102519006BF47003E56AF46014E5572418F582E456
:102529003556F583E56AF0A3E56BF0D2107873129E
:10253900026F8F6D8E6C8D6B8C6AE557241CFFE4DE
:102549003556FE12339978731202BDE56A556B55FB
:102559006C556DF46025AF6DAE6CAD6BAC6A8F6573
:102569008E648D638C62123409E557241CF582E46C
:102579003556F5831202C9D210C20B301003022C52
:04258900947F002219
:10337900E4FF74732FF876FF0FBF0AF6122479223F
:103399008F828E83E0FFA3E0FEA3E0FDA3E0FC2281
:0A33DD008F828E83E0FFA3E0FE2242
:07340900EFCCFFEECDFE2227
:10325F00C3E4CC13CD13CE13FFE57224F7600DF842
:0D326F00C3ED13FDEE13FEEF13FFD8F422A4
:10327C00C3E4CF33CE33CD33FCE57224F7600DF8C5
:0D328C00C3EE33FEED33FDEC33FCD8F4222D
:10321F0005A28D828C8315A28F828E837F00EA6038
:10322F0007E0A3A5DFFBDAF9EB6005E0A3A5DBFB65
:01323F00226C
:10258D004572726F723A20253032580A00576169D0
:10259D00742044657669636520496E3A253032783A
:1025AD000A00537461727420554449534B5F64653E
:1025BD006D6F20404348353439554649206C69626A
:1025CD00726172790A0057616974204469736B52A4
:1025DD00656164790A002F4335312F43483534390D
:1025ED004846542E43004F70656E3A253032780AB6
:1025FD0000B2BBB4E6D4DAB8C3CEC4BCFEBCD0D4F2
:10260D00F2C1D0B3F6B8F9C4BFC2BCCBF9D3D0CEAA
:10261D00C4BCFE0A002F2A002F4335312F2A004C4F
:10262D006973742066696C652025730A006D617489
:10263D0063682066696C652025303464233A202553
:10264D00730A0055C5CCD1DDCABECDEAB3C90A00A7
:10265D0055C5CCC3BBD3D0D7BCB1B8BAC320455236
:10266D0052203D253032580A00B3F5CABCBBAF55D8
:10267D00C5CCCAA7B0DCA3ACC7EBB0CECFC255C595
:07268D00CCD6D8CAD40A0024
:062992008F2A8C2B8D2C16
:10299800E4F52D900048E4F0E57224F8FFE52AA854
:1029A80007088002C333D8FC900049F0A3E4F0A3E1
:1029B800F0A37480F090035DE090004DF0A3740ADA
:1029C800F0A37428F0A3E4F0A3E558F0A3E559F0C8
:1029D800A3E55AF0A3E55BF0A3E4F0A3F0A3E52A8E
:1029E800F0A3E4F0AF2CAE2B121A50E5697002FF89
:1029F80022AF2D122F548F69E5696003AF69220554
:0D2A08002DE52DC39403408B75691F7F1FC2
:012A1500229E
:060F58008F2A8C2B8D2C6A
:100F5E00E4F52D900048E4F0E57224F8FFE52AA8A8
:100F6E0007088002C333D8FC900049F0A3E4F0A335
:100F7E00F0A3F090035DE090004DF0A3740AF0A38F
:100F8E00742AF0A3E4F0A3E558F0A3E559F0A3E525
:100F9E005AF0A3E55BF0A3E4F0A3F0A3E52AF0A3D7
:100FAE00E4F0AF2CAE2B121A50E56970097FC8FE23
:100FBE001232CE7F0022AF2D122F548F69E5696059
:100FCE0003AF6922052DE52DC39403408675691F75
:020FDE007F1F73
:010FE00022EE
:102FED0053E37FE5E3C4540F14F532E5E324FEFF0C
:102FFD00C394045030EF30E104AEE18002AED1EF66
:10300D0030E0047D1080027D01EE5D60037F0022C3
:10301D007401A807088002C333D8FC55EB60067510
:0A302D0061027F00227561017F1629
:013037002276
:0107FF0022D7
:10313500123410EFC3941250037FFF227E007F806C
:103145008E668F6790033EEEF0A3EFF0E4F56175B0
:10315500720975500290035E1202EE000000007FB6
:02316500002246
:10334200EF60107BFF7A25798D753F008F40120464
:04335200CD80FE220A
:102065001233567F057E001232FF122B8212316722
:10207500123135C20F123410753F008F407BFF7A45
:1020850025799A1204CDE4F52330D80EC2D8123042
:102095007E8F23E523B41502D20F200F09E52364B3
:1020A5001560030221E5C20F7FC87E001232FF12C0
:1020B50021F48F23E52360030221DC7BFF7A257958
:1020C500AF1204CD756104E4F5247BFF7A2579D33D
:1020D5001204CD122DA58F23E523600E7F327E00DD
:1020E5001232FF0524E524B40AE0E561C3940550E6
:1020F500030221CE78737C007D007BFF7A2579E38E
:102105001203EB1208008F237BFF7A2579F3753FC5
:10211500008F401204CDE523B4B3147BFF7A2579F3
:10212500FE1204CD7525FF752626752722800975B3
:1021350025FF75262675272585253F852640852774
:10214500417BFF7A26792C1204CDE4F528F5297810
:10215500737C007D00AB25AA26A9271203EB7B0023
:102165007A00797312332D8F2474732FF876FFE478
:10217500852965852864F563F5621208008F24E5D5
:102185002464426037E524B4431A85283F852940F5
:102195007541007542007543737BFF7A26793A12C3
:1021A50004CD8007AF2412334280110529E529703B
:1021B500020528C39410E52894274093122BF68F27
:1021C500247BFF7A26795080147BFF7A26795D750A
:1021D5003F0085234080067BFF7A2679761204CD61
:0F21E5007F647E001232FF7F011233A902208B2C
:1033560075A15575A1AAE5B954F84405F5B9E4F582
:02336600A122A2
:1032CE00EF4E601505A105A105A105A105A105A15A
:0A32DE0005A1EF1F70EA1E80E72231
:1032FF00AD07AC06ED4C600E7FE87E031232CEEDCB
:07330F001D70F11C80EE228D
:0833F1009021E9E04410F022F4
:102B8200C29FD29EC29DC2CDC2CC438780E4752D26
:102B920082F52CF52BF52A7B0AFAF9F8AF2DAE2C2B
:102BA200AD2BAC2A120198AF038F2EAF2DAE2CADF8
:102BB2002BAC2AE47B0AFAF9F81201988F2D8E2C9D
:102BC2008D2B8C2AE52EC394054011EF2401F52D9F
:102BD200E43EF52CE43DF52BE43CF52AE589540F5F
:102BE2004420F58943C9A0E52DF404F58DD28ED297
:032BF20099D29CD9
:012BF50022BD
:0833F9003098FDC298AF992243
:083401008F993099FDC2992258
:1033160075A15575A1AAEF600543B101800353B1AC
:07332600FEE4F5A1F5FF2212
:033413008FFF2206
:0A33E70075A15575A1AA43B110228B
:030000000233D1F7
:0C33D100787FE4F6D8FD7581920220653B
:10000300E709F608DFFA8046E709F208DFFA803EDF
:1000130088828C83E709F0A3DFFA8032E309F608CC
:10002300DFFA8078E309F208DFFA807088828C8334
:10003300E309F0A3DFFA806489828A83E0A3F608E8
:10004300DFFA805889828A83E0A3F208DFFA804CC2
:1000530080D280FA80C680D4806980F28033801099
:1000630080A680EA809A80A880DA80E280CA803302
:1000730089828A83ECFAE493A3C8C582C8CCC5837A
:10008300CCF0A3C8C582C8CCC583CCDFE9DEE7804A
:100093000D89828A83E493A3F608DFF9ECFAA9F0C9
:1000A300EDFB2289828A83ECFAE0A3C8C582C8CC1F
:1000B300C583CCF0A3C8C582C8CCC583CCDFEADE38
:1000C300E880DB89828A83E493A3F208DFF980CC9A
:1000D30088F0EF60010E4E60C388F0ED2402B40493
:1000E3000050B9F582EB2402B4040050AF2323453A
:0600F3008223900053730C
:1000F900BB010689828A83E0225002E722BBFE0205
:09010900E32289828A83E4932237
:10011200BB010989828A83F8E028F022500327F77D
:1001220022BBFE05F8E328F3228A838982F8E4934E
:02013200282281
:10013400BB010689828A83F0225002F722BBFE01AA
:02014400F322A4
:10014600C5F0F8A3E028F0C5F0F8E5821582700244
:060156001583E038F022E1
:10015C0075F008758200EF2FFFEE33FECD33CDCC5A
:10016C0033CCC58233C5829BED9AEC99E5829840DD
:10017C000CF582EE9BFEED9AFDEC99FC0FD5F0D6BA
:10018C00E4CEFBE4CDFAE4CCF9A88222B800C1B9E4
:10019C000059BA002DEC8BF084CFCECDFCE5F0CB22
:1001AC00F97818EF2FFFEE33FEED33FDEC33FCEB5B
:1001BC0033FB10D703994004EB99FB0FD8E5E4F916
:1001CC00FA227818EF2FFFEE33FEED33FDEC33FC03
:1001DC00C933C910D7059BE99A4007EC9BFCE99AF7
:1001EC00F90FD8E0E4C9FAE4CCFB2275F010EF2F3C
:1001FC00FFEE33FEED33FDCC33CCC833C810D7073C
:10020C009BEC9AE899400AED9BFDEC9AFCE899F876
:0E021C000FD5F0DAE4CDFBE4CCFAE4C8F92209
:0E022A00C3E49FFFE49EFEE49DFDE49CFC22E5
:10023800EB9FF5F0EA9E42F0E99D42F0E89C45F01C
:010248002293
:10024900E8600FECC313FCED13FDEE13FEEF13FF93
:03025900D8F122B7
:10025C00E8600FEFC333FFEE33FEED33FDEC33FC00
:03026C00D8F122A4
:0C026F00E6FC08E6FD08E6FE08E6FF22BB
:0D027B00E6FB08E6F908E6FA08E6CBF822F3
:100288007401FF3395E0FEFDFCA3A3A3E02FFFF06C
:10029800E582158270021583E03EFEF0E582158244
:1002A80070021583E03DFDF0E5821582700215832A
:0502B800E03CFCF02217
:0C02BD00ECF608EDF608EEF608EFF6226D
:0C02C900ECF0A3EDF0A3EEF0A3EFF022A8
:1002D500D083D082E493F608740193F608740293F0
:0902E500F608740393F674047327
:1002EE00A8828583F0D083D08212030512030512F3
:1002FE000305120305E473E493A3C583C5F0C58318
:10030E00C8C582C8F0A3C583C5F0C583C8C582C859
:01031E0022BC
:10046B00E54B243FF8E6054B22783C300902783FF8
:10047B00E475F0011204350200F92002EB7F2ED255
:10048B00028018EF540F2490D43440D4FF30060B65
:10049B00EF24BFB41A0050032461FFE54C60021532
:1004AB004C054FE54F7002054E30090D783CE47555
:1004BB00F001120435EF0201340231917403D209B9
:1004CB008003E4C209F54B8B3C8A3D893EE4F54C35
:1004DB00F54EF54FE54C60077F201204A680F575AD
:1004EB004DFFC203C202C204C205C207C208C20A40
:1004FB00120474FF700D3009057F001204B7AF4F63
:10050B00AE4E22B4255FC2D5C206120474FF24D0AE
:10051B00B40A00501A75F00A784C30D50508B6FFAE
:10052B000106C6A426F620D5047002D20580D92474
:10053B00CFB41A00EF5004C2E5D2060206B7D203BD
:10054B0080C6D20280C0D20480BCD2D580BAD2077A
:10055B0080B47F201204A62004077401B54C004020
:10056B00F112046BFF1204A60204DFD20AD2088038
:10057B009512046BFB12046BFA12046BF94A4B7065
:10058B000679887A077BFF20042EE54C602A7E00D3
:10059B008E8275830012040860060EEE654D70F0B6
:1005AB00C2D5EBC0E0EAC0E0E9C0E0EE1206FED037
:1005BB00E0F9D0E0FAD0E0FB1200F9FF60AAEBC043
:1005CB00E0EAC0E0E9C0E01204A6D0E02401F9D0D3
:1005DB00E03400FAD0E0FBE54D0460DCD54DD9806A
:1005EB00877BFF7A0679FAD204809C791080027996
:1005FB0008C208C20A8008D2D5790A8004790AC2D7
:10060B00D5E54D047002F54DE4FAFDFEFF12046BC7
:10061B00FC7B0820031312046BFD7B1030020A12C3
:10062B00046BFE12046BFF7B20EC3382D592D5500A
:10063B0013C3E43002069FFFE49EFEE42003039DF8
:10064B00FDE49CFCE4CBF8C203EC700CCFCECDCC1C
:10065B00E824F8F870F38017C3EF33FFEE33FEEDA9
:10066B0033FDEC33FCEB33FB994002FB0FD8E9EB8A
:10067B00300305F8D0E0C448B203C0E00AEC4D4E9D
:10068B004F78207B0070C2EAB54D0040BCC0E01231
:10069B000700D0F0D0E0200304C4C0E0C4B203C014
:1006AB00F012048FD0F0D5F0EB0204DF12044505F5
:1006BB007C5305F658054D4C05494205FA4F060289
:0F06CB004406024905624306085505EC4605EC56
:1006DA004505EC4707A85005512D05552E05782BE1
:1006EA0005592305762007912A051148000005704F
:1006FA003F3F3F00790AA2D5200514300709B910F7
:10070A00020404B9080104A2D520080250010420F9
:10071A0004689204B54C005034C0E07F20300519BB
:10072A007F30A20472087207500F120757C204C220
:10073A0008C207C20A7F30800F300703E9C0E012FF
:10074A0004A6300703D0E0F9D0E0B54CCC30071747
:10075A007F30B9100C1204A67F583006077F7880C4
:10076A0003B908031204A63004057F2D0204A67FEC
:10077A0020200AF87F2B2008F322920480CF286ECB
:10078A00756C6C2900D20312046B3003F8C203782B
:10079A004C30D50108F60205112D50434958120470
:1007AA006B2403B405004001E49007A39312049755
:0D07BA00743A120497D205754C040205F63E
:10031F00E709F60870FA8046E709F20870FA803E9E
:10032F0088828C83E709F0A370FA807EE309F608D0
:10033F0070FA8076E309F20870FA806E88828C83F7
:10034F00E309F0A370FA806289828A83E0A3F6083A
:10035F0070FA805689828A83E0A3F20870FA804A85
:10036F0080D280FA80C680D4806580F28031801080
:10037F0080A680EA809A80A880DA80E280CA8031E5
:10038F0089828A83ECFAE493A3C8C582C8CCC5835B
:10039F00CCF0A3C8C582C8CCC583CC70E9800D89C9
:1003AF00828A83E493A3F60870F9ECFAA9F0EDFBC7
:1003BF002289828A83ECFAE0A3C8C582C8CCC583A0
:1003CF00CCF0A3C8C582C8CCC583CC70EA80DD89C8
:1003DF00828A83E493A3F20870F980CE88F0ED242B
:1003EF0002B4040050C4F582EB2402B4040050BAE6
:0903FF00232345822390036F7350
:10332D00E4FFFE1200F9600C0FEF70010E09E97059
:05333D00F20A80EF22FE
:10040800BB010CE58229F582E5833AF583E02250A9
:1004180006E92582F8E622BBFE06E92582F8E222F3
:0D042800E58229F582E5833AF583E493220D
:10043500FAE6FB0808E6F925F0F618E6CA3AF622C8
:10044500D083D082F8E4937012740193700DA3A346
:1004550093F8740193F5828883E47374029368605A
:06046500EFA3A3A380DF5A
:10319100EFB40A07740D12319C740A309811A89982
:1031A100B8130CC2983098FDA899C298B811F6309E
:0731B10099FDC299F5992276
:00000001FF
