:1030FA0075A15575A1AA43B98053B9BF75A1557574
:0E310A00A1AAE5B954F84405F5B9E4F5A122EF
:10317000EF4E601505A105A105A105A105A105A1B9
:0A31800005A1EF1F70EA1E80E72290
:1031A400AD07AC06ED4C600E7FE87E03123170ED86
:0731B4001D70F11C80EE22EA
:0A32940043C40C43C50C43AA1022EA
:102AD000C29FD29EC29DC2CDC2CC438780E4752DD9
:102AE00082F52CF52BF52A7B0AFAF9F8AF2DAE2CDE
:102AF000AD2BAC2A120198AF038F2EAF2DAE2CADAB
:102B00002BAC2AE47B0AFAF9F81201988F2D8E2C4F
:102B10008D2B8C2AE52EC394054011EF2401F52D51
:102B2000E43EF52CE43DF52BE43CF52AE589540F11
:102B30004420F58943C9A0E52DF404F58DD28ED249
:032B400099D29C8B
:012B4300226F
:0A329E0075A15575A1AA43B11022D5
:1031BB0075A15575A1AAEF600543B101800353B109
:0731CB00FEE4F5A1F5FF226F
:0307FB008FFF224B
:100F45005553422064657620696E0A005553422048
:100F5500646576206F75740A005265736574206840
:100F65006F737420706F72740A0044697361626CE8
:100F75006520686F737420706F7274206265636199
:100F8500757365206F6620646973636F6E6E656344
:100F9500740A0047657444657644657363723A2044
:100FA50000782530325820000A004765744366678B
:100FB50044657363723A2000496E6974526F6F74A9
:100FC50044657620457272203D20253032580A004E
:0107FE0022D8
:102F2E00E4F538E5DA30E01FE55E64016005E5D1D1
:102F3E0020E02E1207FE755E027BFF7A0F79451296
:102F4E0004CD753815801AE55EC39402401312073E
:102F5E00FE7BFF7A0F79511204CDE5387003753878
:032F6E0016AF3863
:012F7100223D
:0C327C00EF547FFFE5E354804FF5E322A0
:0E325300EF600753E2BF53D27F2243E24022D6
:1007C7009003437408F0E4FF12327C53D1FE7F019B
:1007D700123253E5D154FB4402F5D17F147E001247
:1007E70031A453D1FDE5DA30E0FB7F017E00123101
:0407F700A4C2D8229E
:10311800E55EC394025003755E02E5DA30E00C43C5
:0E312800E20175D24043D1017F00227F1622C2
:10318A007F907E0120D909EF1F70011EEF4E70F467
:09319A0030D9047F0080027FFEA1
:0131A3002209
:06264A008F358A368B3744
:10265000AF058FD68FD4E4F5DD8535D5C2D97F900F
:102660007E0120D909EF1F70011EEF4E70F4E4F5D2
:10267000D520D9037FFE2230D821C2D8122F2EBFF9
:102680001502D210E55EB401037F1622E55EB402A6
:10269000037F15227FC87E0012317030D95B30DE97
:1026A000037F0022E5D9540FFFBF0E028037BF0A17
:1026B00020E53745367003EF8038C3E53794FFE5F2
:1026C0003694FF5008E53715377002153615DD8052
:1026D0002BE535C4540F24F7600D24FC6004240C52
:1026E0007014EF6017800BBF0305EF640B600DEFF4
:1026F000600A4420FF227FFE2275D8FF7F0F7E00F4
:1027000012317005DDAFDDEFC3940350030226598B
:022710007F2028
:0127120022A4
:081E7F00900042F0E4FDFFFEBB
:101E8700E4F532F533AA06A9077B0190033504F080
:101E9700A3EAF0A3E9F0AF05A9071BA3EBF0A3F0B2
:101EA700A3E9F07FC87E00123170900338E0FBA3EE
:101EB700E0FAA3E0F9EA494B6004E412013475D76C
:101EC700087B107A27E4FD7FD012264A8F34E53449
:101ED70060012275D6D075D4D075D701900047E040
:101EE700FE900046E0FDEEF532EDF533E533453281
:101EF7007003022047900335E0FBA3E0FAA3E0F963
:101F0700EA494B7003022047900040E020E70302B4
:101F17001FB2E53345327003021FAC7FC87E001243
:101F270031707B107A27ADD47F9012264A8F34E523
:101F370034600122AFDBC3EF9533E495325004AF31
:101F4700DB8002AF33EFFDC3E5339DF533E5329414
:101F570000F532900338E0FBA3E0FAA3E0F9EA4981
:101F67004B6004EF120112E4FEEE6F602874002E3E
:101F7700F582E43400F583E0FD900335E0FBA3E050
:101F8700FAA3E0F9ED120134900336E475F001127B
:101F970001460E80D4E5DB600C900343E01455DB6B
:101FA7007003021F19E4F5D7022047E53345327065
:101FB700030220477FC87E00123170900343E0FF81
:101FC700FDC3E5339DE532940040028002AF338FB5
:101FD700D7E4FFEF65D76028900335E0FBA3E0FA6D
:101FE700A3E0F91200F9FE74402FF582E43400F5FE
:101FF70083EEF0900336E475F0011201460F80D3AB
:102007007B107A27ADD67F1012264A8F34E53460CD
:102017000122AFD7C3E5339FF533E5329400F5329C
:10202700900338E0FBA3E0FAA3E0F9EA494B700319
:10203700021FB2900338A3A3E5D7120112021FB201
:102047007FC87E00123170E5D760047F9080027FE1
:10205700107B107A277DC012264A8F34E534600141
:0F20670022E5D77002FF22E5DB7002FF227F1710
:012076002247
:1030BC00E4FD8F828E83E493FC74402DF582E4341E
:0E30CC0000F583ECF00FBF00010E0DBD08E40F
:0130DA0022D3
:1017C5009003437408F07E227FF81230BC7E027FBE
:1017D500807D2E121E87EF600122900287E0900324
:1017E50043F09022FEE493FFE52EC39F50037F173D
:0317F500227F0050
:0117F80022CE
:102DAB007E237F001230BC7E027F807D2E121E8719
:102DBB00EF600122900282E0F52E7E237F0012301D
:102DCB00BC900046E52EF07E027F807D2E121E8782
:102DDB00EF600122E52ED394404003752E40AF2EB9
:102DEB007E0078407C007D017B017A0279801200A5
:032DFB00D37F0083
:012DFE0022B2
:023059008F2EB8
:10305B007E237F081230BCE52E121E7FEF6001220B
:0E306B00AF2E12327C7F0A7E001231A47F004D
:013079002234
:0E326100AB077E237F101230BCEB121E7F22C3
:10321200AB077E237F181230BC900044EB121E8253
:013222002289
:102320007BFF7A0F795E1204CD1207C7E4F52AF518
:102330002B7F017E001231A4123118EF700BF52AA9
:10234000052BE52BD394645009052AE52AC3946430
:1023500040DFE52A600F1207FE7BFF7A0F796F12CC
:1023600004CD7F16227F011232531217C58F2BE541
:102370002B600302242B7BFF7A0F79981204CDE4A3
:10238000F52A9022FEE493FFE52AC39F501E7BFFAF
:102390007A0F79A67480252AF582E43402F583E069
:1023A000753C00F53D1204CD052A80D67BFF7A0FDF
:1023B00079AD1204CD900284E0F52D90230AE493C8
:1023C000FF1230598F2BE52B7061122DAB8F2BE54F
:1023D0002B7058900285E0F52C7BFF7A0F79AF12B5
:1023E00004CDE4F52A900282E0FFE52AC39F501E47
:1023F0007BFF7A0F79A67480252AF582E43402F5F2
:1024000083E0753C00F53D1204CD052A80D77BFFA3
:102410007A0F79AD1204CD90028EE0FFE52D7008A1
:10242000BF0805755E04FF227FFB227BFF7A0F79D0
:10243000BD753C00852B3D1204CD755E027F0112F7
:042440003253AF2B39
:012444002275
:102FE300C2EA75E28053D17FE4F5E375EB4875E5FA
:102FF3000075E40075E70075E640F5D4F5D675E293
:0F3003008875D8FFFF1207FE0FBF02F975E103B2
:01301200229B
:1032330021FF000000000000A1FE000000000100CB
:102C8E0090031AE065587014900317E06555700CA8
:102C9E00A3E065567006A3E065576046AF58AE5781
:102CAE00AD56AC559003171202C9900300E0FEA377
:102CBE00E0FBCAEECA65647003EA6563700EAF5836
:102CCE00AE57AD56AC5590031B1202C9CDEBCDCC11
:102CDE00EACC7F011228E08F66EF60031231D2AF8B
:052CEE0066227F0022B8
:102A5A0090032DE0FCA3E0FDA3E0FEA3E0F5588E71
:052A6A00578D568C554C
:102A6F0090031EE06558701490031BE06555700CC1
:102A7F00A3E065567006A3E065576042AF58AE57A6
:102A8F00AD56AC5590031B1202C9AB64AA639003F9
:102A9F0000E06A7003A3E06B700EAF58AE57AD56EF
:102AAF00AC559003171202C9CDEBCDCCEACC7F0108
:102ABF001228E08F66EF60031231D2AF66227F00DB
:012ACF0022E4
:102EE800AF58AE57AD56AC559003171202C99003B0
:102EF80000E0FEA3E0FBCAEECA65647003EA6563FE
:102F0800700EAF58AE57AD56AC5590031B1202C9A0
:102F1800CDEBCDCCEACC7F011227D28F66EF6003D0
:062F28001231D2AF662257
:102BB6008F6A8E698D688C67E554241AF582E43530
:102BC60053F583E567F0A3E568F0E5542414F58230
:0C2BD600E43553F583E569F0A3E56AF0EF
:102BE200AF58AE57AD56AC5590031B1202C9AB6439
:102BF200AA63900300E06A7003A3E06B700EAF5803
:102C0200AE57AD56AC559003171202C9CDEBCDCCE1
:102C1200EACC7F011227D28F66EF60031231D2AF66
:022C2200662228
:100C4600900307E0FCA3E0FDA3E0FEA3E0F5528ECF
:070C5600518D508C4FE4FFAB
:100C5D008FD3900326E0FBB4020CAF52AE51AD50D2
:100C6D00AC4F7801800EEBB40317AF52AE51AD50BF
:100C7D00AC4F780212025C8F528E518D508C4F808A
:100C8D002AC200E55230E002D200AF52AE51AD5053
:100C9D00AC4F7801120249E5522FF552E5513EF560
:100CAD0051E5503DF550E54F3CF54FE54D24FFFF27
:100CBD00EF5551FEE552FF900301E02FF5549003DF
:100CCD0000E03EF553AE51AD50AC4F1231369003AE
:100CDD0027E0F8A3E0F9A3E0FAA3E02FF552EA3EEE
:100CED00F551E93DF550E83CF54F90031AE065529A
:100CFD007014900317E0654F700CA3E065507006FB
:100D0D00A3E06551601D300D0712285BEF600122D5
:100D1D00855258855157855056854F55122C8EEF5B
:100D2D00600122E5D36027E5D3B4040474FF800687
:100D3D00E5D3B4010BE4F552F551F550F54F800CA8
:100D4D00855D4F855C50855B51855A52D20DC20E23
:100D5D00900326E0FB64027041855482855383E045
:100D6D00F568A3E0F56985686AE4F567F568C3E59C
:100D7D006A94F7E56994FF4002D20EE5D3600F85C2
:100D8D005482855383E54FF0A3E550F0E142300ED8
:100D9D0002E142AE69AF6AE4E13AEB64037067AF1A
:100DAD0054AE531232438F6A8E698D688C67E56736
:100DBD0054F0FFE552540F4FF55253670FE567D3CB
:100DCD00940F5016E567B40F13E568B4FF0EE5698F
:100DDD00B4FF09E56AC394F74002D20EE5D3601360
:100DED00AF52AE51AD50AC4F855482855383120234
:100DFD00C9E142300E02E14285675A85685B85691B
:100E0D005C856A5DE142855482855383E0F56AE530
:100E1D004FC454F0FFE56A540F4FF567E550C454C5
:100E2D00F0FFE54FC4540F4FF568E54D24FFFFEF7C
:100E3D00FE900301E024FFFF900300E03EFEEF650E
:100E4D00547003EE65536039855482855383A3E056
:100E5D00F569E5D37002E10330000F8554828553A7
:100E6D0083E567F0A3E568F0E1038554828553833C
:100E7D00E54FF0E550540FFFE56954F04FA3F080B6
:100E8D0075E5D36011300004AF678002AF4F855414
:100E9D0082855383EFF0A20DE43345D3600712280A
:100EAD005BEF600122900317E0FCA3E0FDA3E0FEE1
:100EBD00A3E02401F558E43EF557E43DF556E43C36
:100ECD00F555122C8EEF600122900300E0FEA3E099
:100EDD00FFF5828E83E0F569E5D3601A300004AD2D
:100EED0068800BE550540FFDE56954F04DFD8F8280
:100EFD008E83EDF0D20DE4F567F568300014E569E9
:100F0D00C4F854F0C868F569E56AC4540F48F56A29
:100F1D00800353690FC3E56A94F7E569940F4002A6
:100F2D00D20EE5D3700F200E0CAE69AF6A8F5D8EB9
:080F3D005CF55BF55A7F002210
:091C7F00E4F55DF55CF55BF55A36
:101C8800900302E0FCA3E0FDA3E0FEA3E0FFAB5D50
:101C9800AA5CA95BA85AD312023840037FB122E597
:101CA8005D2401FFE4355CFEE4355BFDE4355AFC58
:101CB80090033B1202C98F52120C55CBEFCB900305
:101CC8003BE0FCA3E0FDA3E0FEA3E0F55D8E5C8DA8
:101CD8005B8C5AEB600122E56A700AE56745684546
:101CE800697002C164900304E0FF90033DE06F70E7
:101CF8001A900302E0FF90033BE06F700E9003031D
:101D0800E0FF90033CE06F70028188900326E0FFBB
:101D1800640170028188900300E0FCA3E08C53F515
:101D280054EF6402703CE54D75F080A424FFFFE594
:101D3800F034FFF5678F68F5698F6A74022554F5EA
:101D480054E43553F553855482F583E07004A3E0D9
:101D58006075E56815687002156714AE674E70DB2C
:101D6800C14CE54D75F040A424FFFFE5F034FFF5C4
:101D7800678F68F5698F6A74042554F554E4355300
:101D8800F553855482F583E06002C13CA3E060020C
:101D9800C13C855482855383A3A3E06002C13C857E
:101DA8005482855383A3A3A3E0540F6002C13C85EA
:101DB8005482855383A3A374FFF08554828553838B
:101DC800A3A3A3E0440FF085548285538374FFF0E6
:101DD800A3F0AE69AF6AEF455DFFEE455CFEE55BDB
:101DE800FDE55AFCEEC0E0EFC0E0E56824FFFFE542
:101DF8006734FFCBEFCBFAD0E0FFD0E0FEC3EF9B18
:101E0800F55DEE9AF55CED9400F55BEC9400F55AFF
:101E1800900302E0FCA3E0FDA3E0FEA3E0FFAB5DBE
:101E2800AA5CA95BA85AD312023840037FB122D218
:101E38000D7F0022E56815687002156714AE674EBD
:101E48006002A17FAE69AF6AE55D4FF55DE55C4E66
:101E5800F55CE55BF55BE55AF55A818890033BE054
:101E6800FCA3E0FDA3E0FEA3E0F5528E518D508C5B
:071E78004F7F04120C5D22F4
:0D326F00121C88EF64B1600122121C7F2246
:10080000E55EC394105007121000EF600122123011
:1008100013EF600122C20B7870E6FF7002FF22EF37
:10082000645C6003BF2F0575657180147871E664A0
:100830003A600201EBEFC39443500201EB7565731C
:10084000900326E0FBB40310900331E0FCA3E0FD2D
:10085000A3E0FEA3E0FF8005E4FFFEFDFC9003079C
:100860001202C9A865E6600201EE74FFF562F56147
:10087000F560F55FEB6403604C90030A7402F0903E
:100880000334E0F54E90030FE0FCA3E0FDA3E0FE8F
:10089000A3E0FFEFC0E0AF4ECBEFCBD0E0FFC3EF64
:1008A0009BFFEE9400FEED9400FDEC9400FC9003A1
:1008B0000F1202C9AF4EE4FCFDFE1231538F628E5F
:1008C000618D608C5F900307E0FCA3E0FDA3E0FE78
:1008D000A3E0F55D8E5C8D5B8C5AE4F56EF56DF5ED
:1008E0006CF56BF559755E127F412275657090034A
:1008F00007E0700CA3E07008A3E07004A3E060417F
:10090000854E59900307E0FCA3E0FDA3E0FEA3E0C1
:1009100024FEFFEE34FFFEED34FFFDEC34FFFC90CF
:100920000306E0F9F812025C90030FE0F8A3E0F987
:10093000A3E0FAA3E02FFFEA3EFEE93DFDE83C809C
:1009400026900334E0F559AF59CBEFCB90030FE07D
:10095000FCA3E0FDA3E0FEA3E0C39BFFEE9400FE3A
:10096000ED9400FDEC9400FC90032D1202C9E559B2
:10097000700261F6122A5AEF600122E490030DF032
:10098000A3F0E54DFE90030DE0FCA3E0FDC3940051
:10099000EC9E400261D3ED2564F554EC3563F553CC
:1009A000855482F583E0FF70028126EF64E57002D2
:1009B00061C3BF05027FE5A865E6FE6F6007EE64D0
:1009C0002A600261C3EF6E70047F0180027F008F96
:1009D00069AF69EFC3940B5052AE69E5652EF8E636
:1009E000FEE5542FF582E43553F583E0FD6E603665
:1009F000EE6007645C6003BE2F1EED6420702CEF78
:100A0000C39408500FE5542408F582E43553F58368
:100A1000E0B420177F0B8013BE2E10E569640860D8
:100A200003BD20077F070F056980A8AE69E5652E25
:100A3000F8E6F56AEFC3940B50026123E554240BEA
:100A4000F582E43553F583E030E3026123C20EE51D
:100A500054241AFFE43553FE1232A8E4FCFD90033F
:100A6000071202C9900326E0B40314E5542414FFCE
:100A7000E43553FE1232A8900307EEF0A3EFF0E541
:100A80006A6005200E02611A900307E0FCA3E0FDF6
:100A9000A3E0FEA3E0F55D8E5C8D5B8C5AE4F56E01
:100AA000F56DF56CF56BF559E554240BF582E435DD
:100AB00053F583E030E41E74FFF562F561F560F5EF
:100AC0005F7D137F10123017EF600122300E037F1D
:100AD00043227F4122E554241CFFE43553FE1232A9
:100AE000438F628E618D608C5F900307E07017A367
:100AF000E07013A3E0700FA3E0700B7559FFF5626F
:100B0000F561F560F55F7D147F10123017EF60011D
:100B100022300E037F43227F0022E569042565F51C
:100B20006501EEE56A642A600261C3E554240BF5B1
:100B300082E43553F583E030E30261C3E5A1644903
:100B400060037F1122E55F4560456145626022E5F3
:100B50005F30E7031207FFE56224FFF562E56134C9
:100B6000FFF561E56034FFF560E55F34FFF55F8018
:100B700052E4FFF567E5542FF582E43553F583E041
:100B80006420602FBF080AAE67E5652EF8762E0553
:100B900067E5542FF582E43553F583E0FEAD67E554
:100BA000652DF8EEF6E5677008A865E6B4050276EF
:100BB000E505670FBF0BBEAF67E5652FF8E4F6D21A
:100BC0000E414F90030EE02420F090030DE034001E
:100BD000F0218290032DE0FCA3E0FDA3E0FEA3E062
:100BE0002401FFE43EFEE43DFDE43CFC90032D12B5
:100BF00002C91559216E900307E0700CA3E070083C
:100C0000A3E07004A3E0601E120C46EF60012220F6
:100C10000E14900307E567F0A3E568F0A3E569F01B
:100C2000A3E56AF001EEE4FFCEEFCE0FE5652EF806
:100C3000E6FE600F642A600BEE645C6003BE2FE882
:060C40007FB3227F422277
:102E9D00E55D24FEFFE55C34FFFEE55B34FFFDE5FB
:102EAD005A34FFFC900306E0F9F812025C90030F10
:102EBD00E0F8A3E0F9A3E0FAA3E02FFBEA3EFAE97C
:102ECD003DF9E83CF8E4FCFDFEEB2559F558EE3AEA
:0B2EDD00F557ED39F556EC38F555229D
:10255900900307E0700EA3E0700AA3E07006A3E001
:102569007002C13B787412026F123136EFC0E0AFCE
:1025790059CBEFCBD0E0FFC3EF9BF56AEE9400F5A2
:1025890069ED9400F568EC9400F567AF6AAE69AD42
:1025990068AC67787012027BC312023840177870F2
:1025A90012026FC3EF956AFFEE9569FEED9568FD1E
:1025B900EC9567805D900307E0FCA3E0FDA3E0FED6
:1025C900A3E0F55D8E5C8D5B8C5AAF4EE4FCFDFE9D
:1025D900787012027BC3120238403F855D52855CD8
:1025E90051855B50855A4FE4FF120C5DEF60012263
:1025F900200E3F787012026FEFC0E0AF4ECBEFCBE9
:10260900D0E0FFC3EF9BFFEE9400FEED9400FDECDC
:102619009400FC78701202BD80B07873E6F5591207
:102629002E9DAF58AE57AD56AC5578701202BD7F8E
:1026390000227559FF78701202D5FFFFFFFF7F0056
:01264900226E
:030FFC007F102241
:1031D20090031B1202EEFFFFFFFF9003171202EE95
:0731E200FFFFFFFFC20D22F9
:043013007D107F109D
:10301700AE5EEEC39F4005CEEDCE8D5EEE6D7002C7
:0F302700FF22755E0112309BEF6001227F832232
:10303600AB66BB1611755E019003201202EE00000E
:103046000000CFEBCF22BB1507755E02CFEBCF2278
:033056007F0022D6
:102D51007F027E001231A490032CE566F012309BB5
:102D6100EF600122E55EC3940450037F83227E322B
:102D71007F331230BC90032BE0900044F0E4FDFF60
:102D8100FE121E878F66BF160122900325E0540FA5
:102D9100FF123212900324E0540F4480FF123212CA
:0A2DA10090032CE0FFF566E4F02239
:102F7200900048EDF0A3E4F0A3F0A3F0ED60047E2E
:102F82008080027E0090004CEEF090031FE09000E3
:102F92004DF0A37406F0A3EFF0A3E4F0A3F0A3F0C6
:0F2FA200A3EDF0A3E4F0A3F0A3F0A3F0A3F022BB
:071A4C00122F727E007F6281
:101A53008E308F319000407455F0A37453F0A3740B
:101A630042F0A304F075D71F900325E0FF90032CE9
:101A7300E0FD7BE87AFD12264A8F66BF160122EF4E
:101A830060397E007F627C007D407B1B7A001230D0
:101A93007A122D517E007F407C007D627B1B7A0091
:101AA30012307A900325E0FF90032CE0FD7BE87A67
:101AB300FD12264A8F66EF6002817990032CE06461
:101AC30040F0900048E0FDA3E0FF4D7002813EEF3F
:101AD300F52EEDF52F90004CE020E7026197D2013F
:101AE300E52F452E7002618FE52E7007E52FC39415
:101AF300404009AF318530E58FE48008C20175E5C8
:101B03000075E400900324E0FF90032CE0FD7BE8E4
:101B13007AFD12264A8F66EF601A75E50075E400B8
:101B2300EF642E600122900324E0540F4480FF12DF
:101B33003212805890032CE06480F030011FE5DB03
:101B43006440704874C0252FF52F74FF352EF52E91
:101B530074402531F531E43530F5308083AFDBAEA9
:101B63002FEEC39F5003CFEECFE4FEEE6F601D74E4
:101B7300002EF582E43400F583E0853182853083DD
:101B8300F00531E531700205300E80DF75E5007533
:101B9300E400813EE52F452E70028138E52E700862
:101BA300AF2FEFC394404023AD318530E78DE6740A
:101BB300C0252FF52F74FF352EF52E74402531F5F2
:101BC30031E43530F53075D740803375E70075E67D
:101BD300408FD7E4FFE52F6F601F85318285308307
:101BE300E0FE74402FF582E43400F583EEF0053116
:101BF300E531700205300F80DCE4F52EF52F9003FC
:101C030025E0FF90032CE0FD7BE87AFD12264A8F46
:101C130066EF601875E70075E640EF642E600122F9
:101C2300900325E0540FFF123212800990032CE039
:101C33006440F0619775E70075E640900324E0FF88
:101C430090032CE0FD7BE87AFD12264A8F66EF6055
:101C5300012290032CE06480F075661FE5DB640DC0
:101C63006003AF662290000CE0FE7004F566FF226D
:0C1C7300EEC394024003022D51AF662224
:1030DB007F0A7E001231A47D127F03121A4C7F05EA
:0F30EB007E001231A4E5667002FF2212303622F9
:1029E000756F0975670F7D087F25122F7290004E55
:1029F000740AF0900053E4F0121A4FAF66EF7017AC
:102A0000900068E0FEBE0405756F0A8037EE64082A
:102A10007032756F0B802DEF64166028EF641560BF
:102A200023EF6413601E8F681230DB856866E567EC
:102A30007E0030E3047F4080027FC81231A4156716
:102A4000E56770A2E56F24F8FF7401C8EFC808803D
:0A2A500002C333D8FCF54DAF682235
:1016890012309BEF600122E55EC3940450037F830F
:1016990022755E04122DAB8F66EF60012290004E19
:1016A900E06408705FC20CA3E0B40602D20C90009B
:1016B9004BE090032BF0E4F567E567600790005B6A
:1016C900E0FF8005900054E0FF8F68E567600790B0
:1016D900005DE0FF8005900056E0FFEF6440702454
:1016E900E56830E70CE568540F4490900324F080D6
:1016F9000AE568540F4410900325F00567E567B4BF
:1017090002B7800675661FAF6622900045E0FF129A
:1017190032618F66EF600122E4F5677E327F3B120A
:1017290030BC90032BE0900044F07D68AF64AE6359
:10173900121E878F66EF7010E568B4011A856482FE
:10174900856383E0F567800FE566B42E07E4FF1231
:1017590032128003AF66227F057E001231A4123156
:10176900D2E490032CF090031FF07D247F12122FF6
:1017790072AF64AE63121A53E5667023E5676018A9
:1017890090031FE07012856482856383E0B40508C5
:1017990090031F7401F080D27D057F04023017E5A4
:1017A90067600E90031FE0C394035005E004F080C6
:0C17B900B9E490031FF07F01122E4F22B4
:102CF30078701202D50000000012309BEF600122B1
:102D0300E55EC394055030121689EF600E7F407E56
:102D1300001231A4121689EF6001221229E0EF603C
:102D230003AF6622900062E0FCA3E0FDA3E0FEA3F4
:102D3300E0FF78701202BDE4FDFF121A4CE56670E5
:0E2D430002FF228566671230DBAF678F6622C3
:102E4F00E4FDFCE4F5A10DBD00010CBC01F5BDF4E2
:102E5F00F2EFC394024013AE5EBE1205755E05809D
:102E6F0009EED394104003755E10AE66EF6014EE5A
:102E7F006416600FEE6415600A1230DBCEEFCEEEF3
:0E2E8F007001227F027E001231A41230362222
:10100000E55EC39405500A121689EF600122122989
:10101000E01231D2900320E0FCA3E0FDA3E0FEA3A8
:10102000E054F0FFEC7B707A5679347812C31202E8
:1010300038700A900323E0540FF5548003E4F5540C
:10104000E4F54EF559E4F562F561F560F55FF558A4
:10105000F557F556F555122A6FEF600D122D511206
:1010600029E0122A6FEF600122E554700F85648237
:10107000856383E054FD64E97002217AE56424FE0F
:10108000F582E5633401F583E0FEA3E064AA700312
:10109000EE645560037F9122854E53E553644070A2
:1010A00002216AE56424BEFFE5633401FE7C00EFA3
:1010B0002553FFEC3ECF2408CF3400FE1232438F7D
:1010C000588E578D568C55E56424BEFFE563340178
:1010D000FE7C00EF2553FFEC3EF583EF2404F58200
:1010E000E43583F583E0F567E56764056005E5674A
:1010F000B40F32E5582562F558E5573561F557E5E7
:10110000563560F556E555355FF555E559600201F0
:1011100056E5532410F55985586285576185566008
:1011200085555F0156E56730E70353673FE5676024
:1011300031E567C3940F502AE5549401502290037F
:101140001BE0FCA3E0FDA3E0FEA3E02558F558EE6C
:101150003557F557ED3556F556EC3555F555801A9A
:10116000155474102553F553019BE5596009E54E5C
:10117000700585594E01457F9222AF58AE57AD5646
:10118000AC559003201202C9122A6FEF600122852C
:101190006482856383E054FD64E960037FA122E5F6
:1011A0006424FEF582E5633401F583E0FEA3E06488
:1011B000AA7003EE645560037FA122E564240DF557
:1011C00082E43563F583E0FFF54E9003067407F083
:1011D000EF20E710EF25E0FF900306E014F0E07049
:1011E000EF754E01E5642416FFE43563FE1232A864
:1011F000E4FCFD9003131202C9900315E0FEA3E086
:101200004E7012E5642424FFE43563FE12324390ED
:1012100003131202C9E5642413FFE43563FE12329E
:10122000A8E48F6E8E6DF56CF56BEF4E7014E5646F
:101230002420FFE43563FE1232438F6E8E6D8D6C79
:101240008C6BE5642411FFE43563FE1232A8E54D92
:1012500033333354F8147C002FFFEC3EFEE56F244B
:10126000FBFDEFC8EDC8088005CEC313CE13D8F937
:10127000FFE4FCFD9003311202C9E564240EFFE493
:101280003563FE1232A8E4FCFD9003271202C990D8
:101290000334E0FF7E00900329E0FCA3E02FFFEE83
:1012A0003CFEE4FCFD900313E0F8A3E0F9A3E0FAB0
:1012B000A3E02FF56AEA3EF569ED39F568EC38F5FB
:1012C00067E5642410F582E43563F583E090031349
:1012D000B4021FE0FCA3E0FDA3E0FEA3E0256AF555
:1012E0006AEE3569F569ED3568F568EC3567F567DF
:1012F00080071202EE00000000E558256AFFE5575E
:101300003569FEE5563568FDE5553567FC90030FF8
:101310001202C9C3E56E956AFFE56D9569FEE56C3D
:101320009568FDE56B9567FC900306E0F9F81202FD
:10133000499003021202C9E47FF57EFFFDFC900391
:1013400002E0F8A3E0F9A3E0FAA3E0FBC31202383D
:101350005023E490030BF0A3F0900304E0FEA3E01D
:10136000C394F5EE940F90032650057401F080317C
:101370007402F0802CE5642430FFE43563FE123201
:10138000A890030BEEF0A3EFF0E564242CFFE43506
:1013900063FE1232439003311202C9900326740394
:1013A000F0900329E0FEA3E04E6057900331E0FC8B
:1013B000A3E0FDA3E0FEA3E0FFEC4D4E4F6043E54C
:1013C000642410F582E43563F583E06401601490D1
:1013D0000313E0FCA3E0FDA3E0FEA3E0FFEC4D4E11
:1013E0004F601FE564240BF582E43563F583E070FC
:1013F00011E564240CF582E43563F583E0C39402BF
:10140000500CE554700575540101407FA3229003F0
:1014100027E0FCA3E0FDA3E0FEA3E02558FFEE35A6
:1014200057FEED3556FDEC3555FC9003271202C9E9
:081430007D107F051230172228
:10285B00900317E0FCA3E0FDA3E0FEA3E0F5588E88
:10286B00578D568C55122EE8EF600122900313E022
:10287B00FCA3E0FDA3E0FEA3E0FFEC4D4E4F605048
:10288B00EF2558F558EE3557F557ED3556F556EC0F
:10289B003555F555900300E0FCA3E0FD7F011227B1
:1028AB00D28F66900313E0F8A3E0F9A3E0FAA3E05C
:1028BB00FBC3E5589BF558E5579AF557E55699F53F
:1028CB0056E55598F555E56660061231D2AF66228E
:0528DB00C20D7F002288
:102C2400121C88EF600564B1600122EF6007121C7A
:102C34007FEF60012212285BEF600122AF5DAE5C82
:102C4400AD5BAC5A9003071202C9122A5AEF600115
:102C54002290030EE02564F55490030DE03563F5EE
:102C640053F583E554241CF582E43583F58312027D
:102C7400EE01000000900307E0FCA3E0FDA3E0FEEA
:0A2C8400A3E0FF1217F9122BB6228D
:082964007FFF7EFF7DFF7CFF79
:10296C008F6A8E698D688C6790030BE0FCA3E0FD89
:10297C004C7002FF22CFEDCFCEECCEE4FCFD9003E9
:10298C0020E0F8A3E0F9A3E0FAA3E02FF558EA3E23
:10299C00F557ED39F556EC38F555122A6FEF600105
:1029AC0022E56424E8FFE5633401FE123243EF258F
:1029BC006AFFEE3569FEED3568FDEC3567FC1217E4
:1029CC00F9E56424E8F582E5633401F5831202C964
:0429DC00122BE222B6
:102DFF00C20BE55EC394144044122A5AEF600122BD
:102E0F0090030EE02564F55490030DE03563F55300
:102E1F00F583E554240BF582E43583F583E020E454
:102E2F001CAF62AE61AD60AC5F1217F9E554241CA4
:102E3F00F582E43553F5831202C9022BE27F00229B
:102B4400AF5EEFC3941250037FB422BF12449003CC
:102B540026E06403603C900306E0FF7401C8EFC8FC
:102B6400088002C333D8FCF54E90030FE0F8A3E0CD
:102B7400F9A3E0FAA3E0FB900334E0FFE4FCFDFEDC
:102B8400EB2FFFEE3AFEED39FDEC38FC90030F120B
:102B940002C9AF5EEFD394134008BF14077870E600
:102BA4007002C20B300B07122DFFEF6001221230AE
:022BB4001322EA
:10271300E55EC394135007120800EF6001221230E4
:1027230013EF600122122A5AEF60012290030DE099
:10273300FEA3E02564F582E5633EF58374E5F012BC
:102743002BE2EF600122900307E0F567A3E0F56851
:10275300A3E0F569A3E0F56AE56745684569456A5D
:10276300606A900307E0FCA3E0FDA3E0FEA3E0247E
:10277300FFFFEE34FFFEED34FFFDEC34FFFC90036E
:10278300071202C9E4F55DF55CF55BF55A85674F01
:10279300856850856951856A527F01120C5DEF602F
:1027A3000122E55D2401F55DE4355CF55CE4355B10
:1027B300F55BE4355AF55A300ED312285BEF60010E
:0F27C30022AF5DAE5CAD5BAC5A02296C7F002289
:101800001208008F59EF7009122713EF700221415F
:1018100022E55964426003AF5922E54DFEC39003AF
:101820000EE0940090030DE09E50022141900307CA
:10183000E0700EA3E0700AA3E07006A3E07002015E
:10184000EC120C46EF600122200E022141900307AA
:10185000E0FCA3E0FDA3E0FEA3E0F55D8E5C8D5B04
:101860008C5A12326FEF600122900307E0FCA3E074
:10187000FDA3E0FEA3E0F5528E518D508C4F7F0208
:10188000120C5DEF60012212285BEF60012285647B
:1018900082856383AF4DEF600AE4FEE4F0A3DEFBD4
:1018A0001F80F3E4F559122E9DE490030DF0A3F090
:1018B000AF58AE57AD56AC5590032D1202C9854EA8
:1018C00067E5676020122BE2EF600122E5582401F2
:1018D000F558E43557F557E43556F556E43555F5E2
:1018E00055156780DC122964EF605622900334E0BE
:1018F000F55990032D74FF12028A8F58122A69EF4E
:10190000600122E490030DF0A3F0E54DFE90030D7D
:10191000E0FCA3E0FDC39400EC9E501FE5642DF5B0
:1019200082E5633CF583E064E5601690030EE024F5
:1019300020F090030DE03400F080CFD559B47FB291
:1019400022900307E0FCA3E0FDA3E0FEA3E0F55D29
:101950008E5C8D5B8C5AE5B15492648060037F117C
:101960002212326FEF60012212285BEF600122AF7A
:101970005DAE5CAD5BAC5A9003071202C9122964DC
:10198000EF600122122A5AEF60012290030EE02537
:1019900064F55490030DE03563F553E4FFEFC39411
:1019A0000B50047E2080027E00E5542FF582E43542
:1019B00053F583EEF00FBF20E4E5542418F582E4DC
:1019C0003553F5837421F0A37430F0E554241CF5ED
:1019D00082E43553F5837401F0E4FFEFC3940B50B8
:1019E00023A865E6FE601DEEB42E047F080565A8F9
:1019F00065E6FEE5542FF582E43553F583EEF00FEE
:101A0000056580D7900307E0FCA3E0FDA3E0FEA3FB
:101A1000E0FF1217F9122BB6EF600122900307E0E6
:101A2000FCA3E0FDA3E0FEA3E0F55D8E5C8D5B8C86
:101A30005AE4F562F561F560F55FF56EF56DF56CEC
:0C1A4000F56BF5597D147F101230172251
:10143800D20BE54DFE900306E0FBE4C8EBC808803C
:1014480005C333CE33CED8F924FFFFEE34FFFEEFC9
:101458002562FFEE3561FEE43560FDE4355FFCE5AD
:101468006F2BF9F812024990033F1202C9AF6EAE12
:101478006DAD6CAC6BC8E9C81202498F528E518DA4
:10148800508C4F90033FE0F8A3E0F9A3E0FAA3E003
:10149800FBD3120238402490033FE0FCA3E0FDA3F5
:1014A800E0FEA3E09552FFEE9551FEED9550FDEC60
:1014B800954FFC90033F1202C98015900307E0FC8A
:1014C800A3E0FDA3E0FEA3E0F55D8E5C8D5B8C5A86
:1014D800900307E0701FA3E0701BA3E07017A3E060
:1014E8007013E55F4560456145627002FF22122C6A
:1014F80024EF601522E55F456045614562700A90FA
:10150800033F1202EE00000001AF5DAE5CAD5BACC4
:101518005A78701202BD90033FE0FCA3E0FDA3E0FF
:10152800FEA3E024FFFFEE34FFFEED34FFFDEC34B4
:10153800FFFC90033F1202C9AF5DAE5CAD5BAC5AD5
:101548008F528E518D508C4F78741202BDE4FF1269
:101558000C5DEF600122200E02A1F290033FE070C3
:101568000CA3E07008A3E07004A3E060067E007F8F
:101578000180047E007F00EF4E7010787012026FB9
:101588008F5D8E5C8D5B8C5A7F002290033FE0FC60
:10159800A3E0FDA3E0FEA3E0FF12022A12296CEFEC
:1015A800600122AF5DAE5CAD5BAC5A78741202BDCF
:1015B80012326FEF600122787412026F8F528E51CF
:1015C8008D508C4F7F02120C5DEF60012290033F1B
:1015D80074FF12028AEC4D4E4F70C8787012026F79
:1015E8008F5D8E5C8D5B8C5AC18590033FE06002F5
:1015F800A11EA3E06002A11EA3E06002A11EA3E059
:101608006002A11E787412026F8F6A8E698D688CD1
:101618006785674F856850856951856A527F0112D1
:101628000C5DEF60012290033FE0FCA3E0FDA3E026
:10163800FEA3E02401FFE43EFEE43DFDE43CFC9013
:10164800033F1202C9300EC990033FE0FCA3E0FD3E
:10165800A3E0FEA3E0FF12296CEF600122900307CC
:10166800E0FCA3E0FDA3E0FEA3E0F55D8E5C8D5BEE
:101678008C5AE4F56EF56DF56CF56BF55912285B2F
:01168800223F
:10244500E55EC3941350037FB422122A5AEF60014C
:1024550022C20F90030EE02564F55490030DE0357C
:1024650063F5537878E6FFE554240BF582E435539C
:10247500F583E0F6EFF4600FE554240BF582E435BF
:1024850053F583EFF0D20F7976E7F5687877E6F5BF
:1024950067E5542416FFE43553FE1232A87876EE2C
:1024A500F608EFF6E568F47003E567F46014E554A3
:1024B5002416F582E43553F583E567F0A3E568F066
:1024C500D20F7974E7F5687875E6F567E554241851
:1024D500FFE43553FE1232A87874EEF608EFF6E500
:1024E50068F47003E567F46014E5542418F582E494
:1024F5003553F583E567F0A3E568F0D20F787012E0
:10250500026F8F6A8E698D688C67E554241CFFE421
:102515003553FE12324378701202BDE56755685592
:1025250069556AF46025AF6AAE69AD68AC678F62BC
:102535008E618D608C5F1217F9E554241CF582E4D9
:102545003553F5831202C9D20FC20B300F03022B8C
:04255500E27F0022FF
:10322300E4FF74702FF876FF0FBF0AF612244522CD
:103243008F828E83E0FFA3E0FEA3E0FDA3E0FC22D8
:0A32A8008F828E83E0FFA3E0FE2278
:0717F900EFCCFFEECDFE2254
:10313600C3E4CC13CD13CE13FFE56F24F7600DF86F
:0D314600C3ED13FDEE13FEEF13FFD8F422CE
:10315300C3E4CF33CE33CD33FCE56F24F7600DF8F2
:0D316300C3EE33FEED33FDEC33FCD8F42257
:10307A0005A28D828C8315A28F828E837F00EA60DF
:10308A0007E0A3A5DFFBDAF9EB6005E0A3A5DBFB0C
:01309A002213
:1021F9004572726F723A20253032580A0057616968
:10220900742044657669636520496E0A00537461D8
:10221900727420554449534B5F64656D6F20404388
:1022290048353439554649206C6962726172790AB8
:102239000057616974204469736B52656164790A56
:10224900004F70656E0A002F4335312F43483534EE
:10225900394846542E4300B2BBB4E6D4DAB8C3CEEB
:10226900C4BCFEBCD0D4F2C1D0B3F6B8F9C4BFC265
:10227900BCCBF9D3D0CEC4BCFE0A002F2A002F4311
:1022890035312F2A004C6973742066696C652025E5
:10229900730A0020206D617463682066696C65208B
:1022A90025303464233A2025730A0055C5CCD1DD85
:1022B900CABECDEAB3C90A0055C5CCC3BBD3D0D772
:1022C900BCB1B8BAC320455252203D253032580A14
:1022D90000B3F5CABCBBAF55C5CCCAA7B0DCA3AC2B
:1022E900C7EBB0CECFC255C5CCD6D8CAD40A008068
:1022F9000600010000120080060002000004000030
:1023090005020000000000000900000000000002B2
:0723190001000000000000BC
:0628E0008F2A8C2B8D2CC9
:1028E600E4F52D900048E4F0E56F24F8FFE52AA80A
:1028F60007088002C333D8FC900049F0A3E4F0A394
:10290600F0A37480F090031FE090004DF0A3740ACA
:10291600F0A37428F0A3E4F0A3E555F0A3E556F080
:10292600A3E557F0A3E558F0A3E4F0A3F0A3E52A46
:10293600F0A3E4F0AF2CAE2B121A53E5667002FF3B
:1029460022AF2D122E4F8F66E5666003AF66220515
:0D2956002DE52DC39403408B75661F7F1F78
:012963002251
:0627D2008F2A8C2B8D2CD8
:1027D800E4F52D900048E4F0E56F24F8FFE52AA819
:1027E80007088002C333D8FC900049F0A3E4F0A3A3
:1027F800F0A3F090031FE090004DF0A3740AF0A33B
:10280800742AF0A3E4F0A3E555F0A3E556F0A3E598
:1028180057F0A3E558F0A3E4F0A3F0A3E52AF0A34A
:10282800E4F0AF2CAE2B121A53E56670097FC8FE90
:102838001231707F0022AF2D122E4F8F66E5666031
:1028480003AF6622052DE52DC39403408675661FE8
:022858007F1FE0
:01285A00225B
:10309B0053E37FE5E3B40213E5D130E0037F002275
:1030AB00E5DA30E006755E027F0022755E017F1661
:0130BB0022F2
:0107FF0022D7
:102FB100120FFCEFC3941050037FFF227E007F802D
:102FC1008E638F64900300EEF0A3EFF0E4F55E757D
:102FD1006F09754D029003201202EE000000007F80
:022FE1000022CC
:1031FE00EF60107BFF7A2179F9753C008F3D120448
:04320E00CD80FE224F
:102077001230FA7F057E001231A4122AD0122FE304
:10208700122FB1C2107BFF7A2279061204CDE4F534
:102097002330D80EC2D8122F2E8F23E523B4150272
:1020A700D210201009E523641560030221EAC2104B
:1020B7007FC87E001231A41223208F23E5236003FB
:1020C7000221E17BFF7A2279161204CD755E04E4C2
:1020D700F5247BFF7A22793A1204CD122CF38F2351
:1020E700E523600E7F327E001231A40524E524B477
:1020F7000AE0E55EC3940550030221D37BFF7A22F1
:10210700794A1204CD78707C007D007BFF7A2279B2
:10211700501203EB1208008F23E523B4B3147BFF9F
:102127007A2279601204CD7525FF752622752784DA
:1021370080097525FF75262275278785253C852605
:102147003D85273E7BFF7A22798E1204CDE4F52860
:10215700F52978707C007D00AB25AA26A9271203F4
:10216700EB7B007A0079701231E98F2474702FF8B5
:1021770076FFE4852962852861F560F55F1208001E
:102187008F24E52464426037E524B4431A85283C4C
:1021970085293D753E00753F007540707BFF7A22AB
:1021A700799C1204CD8007AF241231FE80110529D6
:1021B700E52970020528C39410E528942740931257
:1021C7002B448F247BFF7A2279B480147BFF7A22F9
:1021D70079C1753C0085233D80067BFF7A2279DA39
:1021E7001204CD7F647E001231A47F0112325302A4
:0221F700209531
:0300000002328841
:0C328800787FE4F6D8FD75818F02207776
:10000300E709F608DFFA8046E709F208DFFA803EDF
:1000130088828C83E709F0A3DFFA8032E309F608CC
:10002300DFFA8078E309F208DFFA807088828C8334
:10003300E309F0A3DFFA806489828A83E0A3F608E8
:10004300DFFA805889828A83E0A3F208DFFA804CC2
:1000530080D280FA80C680D4806980F28033801099
:1000630080A680EA809A80A880DA80E280CA803302
:1000730089828A83ECFAE493A3C8C582C8CCC5837A
:10008300CCF0A3C8C582C8CCC583CCDFE9DEE7804A
:100093000D89828A83E493A3F608DFF9ECFAA9F0C9
:1000A300EDFB2289828A83ECFAE0A3C8C582C8CC1F
:1000B300C583CCF0A3C8C582C8CCC583CCDFEADE38
:1000C300E880DB89828A83E493A3F208DFF980CC9A
:1000D30088F0EF60010E4E60C388F0ED2402B40493
:1000E3000050B9F582EB2402B4040050AF2323453A
:0600F3008223900053730C
:1000F900BB010689828A83E0225002E722BBFE0205
:09010900E32289828A83E4932237
:10011200BB010989828A83F8E028F022500327F77D
:1001220022BBFE05F8E328F3228A838982F8E4934E
:02013200282281
:10013400BB010689828A83F0225002F722BBFE01AA
:02014400F322A4
:10014600C5F0F8A3E028F0C5F0F8E5821582700244
:060156001583E038F022E1
:10015C0075F008758200EF2FFFEE33FECD33CDCC5A
:10016C0033CCC58233C5829BED9AEC99E5829840DD
:10017C000CF582EE9BFEED9AFDEC99FC0FD5F0D6BA
:10018C00E4CEFBE4CDFAE4CCF9A88222B800C1B9E4
:10019C000059BA002DEC8BF084CFCECDFCE5F0CB22
:1001AC00F97818EF2FFFEE33FEED33FDEC33FCEB5B
:1001BC0033FB10D703994004EB99FB0FD8E5E4F916
:1001CC00FA227818EF2FFFEE33FEED33FDEC33FC03
:1001DC00C933C910D7059BE99A4007EC9BFCE99AF7
:1001EC00F90FD8E0E4C9FAE4CCFB2275F010EF2F3C
:1001FC00FFEE33FEED33FDCC33CCC833C810D7073C
:10020C009BEC9AE899400AED9BFDEC9AFCE899F876
:0E021C000FD5F0DAE4CDFBE4CCFAE4C8F92209
:0E022A00C3E49FFFE49EFEE49DFDE49CFC22E5
:10023800EB9FF5F0EA9E42F0E99D42F0E89C45F01C
:010248002293
:10024900E8600FECC313FCED13FDEE13FEEF13FF93
:03025900D8F122B7
:10025C00E8600FEFC333FFEE33FEED33FDEC33FC00
:03026C00D8F122A4
:0C026F00E6FC08E6FD08E6FE08E6FF22BB
:0D027B00E6FB08E6F908E6FA08E6CBF822F3
:100288007401FF3395E0FEFDFCA3A3A3E02FFFF06C
:10029800E582158270021583E03EFEF0E582158244
:1002A80070021583E03DFDF0E5821582700215832A
:0502B800E03CFCF02217
:0C02BD00ECF608EDF608EEF608EFF6226D
:0C02C900ECF0A3EDF0A3EEF0A3EFF022A8
:1002D500D083D082E493F608740193F608740293F0
:0902E500F608740393F674047327
:1002EE00A8828583F0D083D08212030512030512F3
:1002FE000305120305E473E493A3C583C5F0C58318
:10030E00C8C582C8F0A3C583C5F0C583C8C582C859
:01031E0022BC
:10046B00E548243CF8E60548227839300902783C07
:10047B00E475F0011204350200F92002EB7F2ED255
:10048B00028018EF540F2490D43440D4FF30060B65
:10049B00EF24BFB41A0050032461FFE54960021535
:1004AB0049054CE54C7002054B30090D7839E47564
:1004BB00F001120435EF020134020FD57403D20997
:1004CB008003E4C209F5488B398A3A893BE4F54944
:1004DB00F54BF54CE54960077F201204A680F575B6
:1004EB004AFFC203C202C204C205C207C208C20A43
:1004FB00120474FF700D3009057F001204B7AF4C66
:10050B00AE4B22B4255FC2D5C206120474FF24D0B1
:10051B00B40A00501A75F00A784930D50508B6FFB1
:10052B000106C6A426F620D5047002D20580D92474
:10053B00CFB41A00EF5004C2E5D2060206B7D203BD
:10054B0080C6D20280C0D20480BCD2D580BAD2077A
:10055B0080B47F201204A62004077401B549004023
:10056B00F112046BFF1204A60204DFD20AD2088038
:10057B009512046BFB12046BFA12046BF94A4B7065
:10058B000679887A077BFF20042EE549602A7E00D6
:10059B008E8275830012040860060EEE654A70F0B9
:1005AB00C2D5EBC0E0EAC0E0E9C0E0EE1206FED037
:1005BB00E0F9D0E0FAD0E0FB1200F9FF60AAEBC043
:1005CB00E0EAC0E0E9C0E01204A6D0E02401F9D0D3
:1005DB00E03400FAD0E0FBE54A0460DCD54AD98070
:1005EB00877BFF7A0679FAD204809C791080027996
:1005FB0008C208C20A8008D2D5790A8004790AC2D7
:10060B00D5E54A047002F54AE4FAFDFEFF12046BCD
:10061B00FC7B0820031312046BFD7B1030020A12C3
:10062B00046BFE12046BFF7B20EC3382D592D5500A
:10063B0013C3E43002069FFFE49EFEE42003039DF8
:10064B00FDE49CFCE4CBF8C203EC700CCFCECDCC1C
:10065B00E824F8F870F38017C3EF33FFEE33FEEDA9
:10066B0033FDEC33FCEB33FB994002FB0FD8E9EB8A
:10067B00300305F8D0E0C448B203C0E00AEC4D4E9D
:10068B004F78207B0070C2EAB54A0040BCC0E01234
:10069B000700D0F0D0E0200304C4C0E0C4B203C014
:1006AB00F012048FD0F0D5F0EB0204DF12044505F5
:1006BB007C5305F658054D4C05494205FA4F060289
:0F06CB004406024905624306085505EC4605EC56
:1006DA004505EC4707A85005512D05552E05782BE1
:1006EA0005592305762007912A051148000005704F
:1006FA003F3F3F00790AA2D5200514300709B910F7
:10070A00020404B9080104A2D520080250010420F9
:10071A0004689204B549005034C0E07F20300519BE
:10072A007F30A20472087207500F120757C204C220
:10073A0008C207C20A7F30800F300703E9C0E012FF
:10074A0004A6300703D0E0F9D0E0B549CC3007174A
:10075A007F30B9100C1204A67F583006077F7880C4
:10076A0003B908031204A63004057F2D0204A67FEC
:10077A0020200AF87F2B2008F322920480CF286ECB
:10078A00756C6C2900D20312046B3003F8C203782B
:10079A004930D50108F60205112D50434958120473
:1007AA006B2403B405004001E49007A39312049755
:0D07BA00743A120497D2057549040205F641
:10031F00E709F60870FA8046E709F20870FA803E9E
:10032F0088828C83E709F0A370FA807EE309F608D0
:10033F0070FA8076E309F20870FA806E88828C83F7
:10034F00E309F0A370FA806289828A83E0A3F6083A
:10035F0070FA805689828A83E0A3F20870FA804A85
:10036F0080D280FA80C680D4806580F28031801080
:10037F0080A680EA809A80A880DA80E280CA8031E5
:10038F0089828A83ECFAE493A3C8C582C8CCC5835B
:10039F00CCF0A3C8C582C8CCC583CC70E9800D89C9
:1003AF00828A83E493A3F60870F9ECFAA9F0EDFBC7
:1003BF002289828A83ECFAE0A3C8C582C8CCC583A0
:1003CF00CCF0A3C8C582C8CCC583CC70EA80DD89C8
:1003DF00828A83E493A3F20870F980CE88F0ED242B
:1003EF0002B4040050C4F582EB2402B4040050BAE6
:0903FF00232345822390036F7350
:1031E900E4FFFE1200F9600C0FEF70010E09E9709F
:0531F900F20A80EF2244
:10040800BB010CE58229F582E5833AF583E02250A9
:1004180006E92582F8E622BBFE06E92582F8E222F3
:0D042800E58229F582E5833AF583E493220D
:10043500FAE6FB0808E6F925F0F618E6CA3AF622C8
:10044500D083D082F8E4937012740193700DA3A346
:1004550093F8740193F5828883E47374029368605A
:06046500EFA3A3A380DF5A
:100FD500EFB40A07740D120FE0740A309811A8993E
:100FE500B8130CC2983098FDA899C298B811F6307C
:070FF50099FDC299F5992254
:00000001FF
