:100E120075A15575A1AA43B98053B9BF75A155757E
:0E0E2200A1AAE5B954F84407F5B9E4F5A122F8
:10000300EF4E602D05A105A105A105A105A105A13F
:1000130005A105A105A105A105A105A105A105A1AD
:1000230005A105A105A105A105A1EF1F70D21E80A1
:02003300CF22DA
:100E4B00AD07AC06ED4C600E7FE87E03120003EDA0
:070E5B001D70F11C80EE2266
:0E00350043C40C43C50C9021E9E04410F022B6
:100C3100C29FD29EC29DC2CDC2CC4387809000B7D5
:100C4100120AA200000104E47B0AFAF9F89000B745
:100C5100E0FCA3E0FDA3E0FEA3E0FF120A04900084
:100C6100BBEBF09000B7E0FCA3E0FDA3E0FEA3E046
:100C7100FFE47B0AFAF9F8120A049000B7120A9607
:100C81009000BBE0C39405401F9000B7E0FCA3E0D7
:100C9100FDA3E0FEA3E02401FFE43EFEE43DFDE40C
:100CA1003CFC9000B7120A96E589540F4420F5895F
:100CB10043C9A09000B7A3A3A3E0F404F58DD28E9D
:040CC100D299D29C56
:010CC500220C
:0A0E790075A15575A1AA43B110221E
:100E620075A15575A1AAEF600543B101800353B185
:070E7200FEE4F5A1F5FF22EB
:030E88008FFF22B7
:100B7100457272457030526571436F64653D253031
:100B810032580A00457272456E6470496E740A00EB
:100B91007273740A007A7A00777700556E6B6E6F04
:100BA100776E496E740A007374617274202E2E2E52
:100BB1000A001201000100000008861A10E000007E
:100BC1000102000106A0FF0901A10109011500268A
:100BD10000FF7508950881020902750895089102C0
:100BE100090375089508B102C00902290001010431
:100BF100A0230904000002030000000921000100F4
:100C0100012225000705820308000A0705020308DF
:100C1100000A040309040E037700630068002E0034
:100C210063006E000C0343004800350034003500BA
:040E83004101260003
:0300430002004672
:0D004600C0E0C0F0C083C082C0D075D008FB
:1000530020D9030204FBE5D954BF700302014F24E6
:10006300E0606D24FE605624A2700302014F24FE5B
:10007300600F24E2605A24FE604324A0600302015F
:100083005B20DE030204F790008EE5DBF0E4FF90D3
:10009300008EE0FEEFC39E501C740A2FF582E434F9
:1000A30000F583E0F4FD744A2FF582E43400F58310
:1000B300EDF00F80DA8ED553D4FC0204F775D5002A
:1000C300900126E4F0E5D454FC4402F5D40204F78D
:1000D3009000DFE024FB605C1460042405706490EE
:1000E30000E0E0FEA3E0FFC39408EE940040047F29
:1000F30008800090008EEFF07E0078007C007D0188
:100103009000E2E0FBA3E0FAA3E0F912098C90006F
:100113008EE0FFFD7C00C39000E1E09DF09000E0E5
:10012300E09CF09000E3EC8DF01209B28FDD63DC0C
:10013300400204F79000E0A3E0FFE5E354804FF5AD
:10014300E3800375DD0075DC020204F790008EE5A1
:10015300DBF063DC800204F7E5D954B064B06003DC
:100163000204EE900007E0FDFE900006E07A002412
:1001730000FFEA3E9000E0F0A3EFF0900001E09072
:1001830000DFF0ED700FD39000E1E0947F9000E08A
:10019300E0940040099000E0E4F0A3747FF0900045
:1001A3008EE4F0900000E0546060769000DFE0247D
:1001B300FE603D14603A24FA24FD5034240B702A67
:1001C3009000E27401F0A37400F0A374E6F09000D1
:1001D300E0E0FEA3E0FFC39408EE940090008E409D
:1001E300057408F0800AEFF0800690008E74FFF02B
:1001F30090008EE0FF7E00D39000E1E09F9000E04E
:10020300E09E4005EEF0A3EFF09000E0E0FEA3E0F7
:10021300FFC39408EE940040057F080203360203EF
:10022300369000DFE0B40B0040030204AE900237C7
:10023300F828287302048B0203B10204AE0203F010
:100243000204AE0203710202580204AE02038102E9
:10025300039E02046F900003E024FE602814603BB9
:1002630024E170030202ED242160030203039000E2
:10027300E274FFF0A3740BF0A374B3F090008E74D8
:1002830012F00203099000E274FFF0A3740BF0A3D1
:1002930074EAF090008E7429F0806B900002E060A5
:1002A3003324FE60190470589000E274FFF0A374C5
:1002B3000CF0A37417F090008E740EF08048900039
:1002C300E274FFF0A3740CF0A37425F090008E7415
:1002D3000CF080329000E274FFF0A3740CF0A3746E
:1002E30013F090008E7404F0801C9000E274FFF011
:1002F300A3740BF0A374C5F090008E7425F08006F0
:1003030090008E74FFF090008EE0FF7E00D390008B
:10031300E1E09F9000E0E09E4005EEF0A3EFF09057
:1003230000E0E0FEA3E0FFC39408EE940040047FE6
:1003330008800090008EEFF07E0078007C007D0145
:100343009000E2E0FBA3E0FAA3E0F912098C90002D
:100353008EE0FF7E00C39000E1E09FF09000E0E0BC
:100363009EF09000E3EE8FF01209B20204C99000F0
:1003730002E0FF9000E0E4F0A3EFF00204C9900074
:10038300E5E0900000F0C39000E1E094019000E00C
:10039300E0940050030204C9020483900002E09039
:1003A30000E5F070030204C990012702048690005F
:1003B30000E0541F64027033900004E014602614BC
:1003C300601224816014147049E5D454BC4402F5CE
:1003D300D40204C953D4730204C9E5D254BC440201
:1003E300F5D20204C953D2730204C9807790000086
:1003F300E0541FFD701E900003E0FE900002E0FB3E
:10040300EB64014E700C900BF19330E5030204C9C9
:1004130080528050ED6402704B900003E0FE900028
:1004230002E0FDED4E703B900005E0FE900004E01D
:10043300FDEDFFEE702AEF24FE6011248160171496
:10044300701EE5D454BF4403F5D4807AE5D4547FB9
:10045300440CF5D48070E5D254BF4403F5D28066D2
:100463008002800090008E74FFF0805A900000E4B8
:10047300F0C39000E1E094019000E0E09400404676
:1004830090008E7401F0803E900000E4F0A3F090A1
:1004930000E0E0FEA3E0FFC39402EE940090008E20
:1004A30040057402F0801FEFF0801B90008E74FFF4
:1004B300F0FB7A0B79719000DFE0FF9000BAE4F073
:1004C300A3EFF01205C290008EE0FFB4FF0B900083
:1004D300DF74FFF075DCCF801BEFD3940850048FDB
:1004E300DD800375DD0075DCC080097BFF7A0B7945
:1004F300851205C2C2D9804B30D8217BFF7A0B7994
:10050300911205C275DC0275D41275E300C2DAC21A
:10051300D9900126E4F0A3F0C2D8802730DA18C2BC
:10052300DAE5DA7BFF30E2067A0B799680047A0B00
:1005330079991205C2800C7BFF7A0B799C1205C254
:0905430075D8FF30D903020059FC
:0B054C00D0D0D082D083D0F0D0E032BD
:100E30009000B7EDF0FF7E00784A7C007D0112093A
:0B0E40008C9000B7E0F5D553D4FC22E5
:100DA200C2EAE4F5E29021E1E0440CF0E054FEF006
:100DB2009021E0E054F3F0E4F5D575ED0075EC0018
:100DC20075E50075E40A75DC0275D412F5E353D1BA
:100DD200F743D10443E24043E22843D10175D8FFEF
:090DE2009021E27407F0D2EA222C
:100D5200120E127F147E00120E4B120C317BFF7AA0
:100D62000B79A81205C2E4FF74E62FF582E4340081
:100D7200F583EFF00FEFB440EF120DA2D2AF209542
:100D820016900126E070FA9001267401F0FB7A00B9
:100D920079E67D08120E307F647E00120E4B80DEF3
:03000000020CC629
:0C0CC600787FE4F6D8FD758122020D0D48
:1008BC00E709F608DFFA8046E709F208DFFA803E1E
:1008CC0088828C83E709F0A3DFFA8032E309F6080B
:1008DC00DFFA8078E309F208DFFA807088828C8373
:1008EC00E309F0A3DFFA806489828A83E0A3F60827
:1008FC00DFFA805889828A83E0A3F208DFFA804C01
:10090C0080D280FA80C680D4806980F280338010D7
:10091C0080A680EA809A80A880DA80E280CA803340
:10092C0089828A83ECFAE493A3C8C582C8CCC583B8
:10093C00CCF0A3C8C582C8CCC583CCDFE9DEE78088
:10094C000D89828A83E493A3F608DFF9ECFAA9F007
:10095C00EDFB2289828A83ECFAE0A3C8C582C8CC5D
:10096C00C583CCF0A3C8C582C8CCC583CCDFEADE76
:10097C00E880DB89828A83E493A3F208DFF980CCD8
:10098C0088F0EF60010E4E60C388F0ED2402B404D1
:10099C000050B9F582EB2402B4040050AF23234578
:0609AC00822390090C7388
:1009B200C5F0F8A3E028F0C5F0F8E58215827002D0
:0609C2001583E038F0226D
:1009C80075F008758200EF2FFFEE33FECD33CDCCE6
:1009D80033CCC58233C5829BED9AEC99E582984069
:1009E8000CF582EE9BFEED9AFDEC99FC0FD5F0D646
:1009F800E4CEFBE4CDFAE4CCF9A88222B800C1B970
:100A08000059BA002DEC8BF084CFCECDFCE5F0CBAD
:100A1800F97818EF2FFFEE33FEED33FDEC33FCEBE6
:100A280033FB10D703994004EB99FB0FD8E5E4F9A1
:100A3800FA227818EF2FFFEE33FEED33FDEC33FC8E
:100A4800C933C910D7059BE99A4007EC9BFCE99A82
:100A5800F90FD8E0E4C9FAE4CCFB2275F010EF2FC7
:100A6800FFEE33FEED33FDCC33CCC833C810D707C7
:100A78009BEC9AE899400AED9BFDEC9AFCE899F802
:0E0A88000FD5F0DAE4CDFBE4CCFAE4C8F92295
:0C0A9600ECF0A3EDF0A3EEF0A3EFF022D3
:100AA200A8828583F0D083D082120AB9120AB912C1
:100AB2000AB9120AB9E473E493A3C583C5F0C583E6
:100AC200C8C582C8F0A3C583C5F0C583C8C582C89E
:010AD2002201
:10055700E51524BAF582E43400F583E00515229009
:1005670000B73010039000BAE475F001120B2B02AC
:100577000AD32009E97F2ED2098018EF540F24905F
:10058700D43440D4FF300D0BEF24BFB41A0050030E
:100597002461FFE516600215160519E519700205B5
:1005A7001830100E9000B7E475F001120B2BEF0214
:1005B7000B19020DEB7403D2108003E4C210F5157A
:1005C7009000B7120B42E4F516F518F519E5166019
:1005D700077F2012059A80F57517FFC20AC209C264
:1005E7000BC20CC20EC20FC211120566FF700D308E
:1005F70010057F001205ABAF19AE1822B4255FC2F4
:10060700D5C20D120566FF24D0B40A00501A75F042
:100617000A781630D50508B6FF0106C6A426F620C7
:10062700D5047002D20C80D924CFB41A00EF50043D
:10063700C2E5D20D0207ACD20A80C6D20980C0D269
:100647000B80BCD2D580BAD20E80B47F2012059A17
:10065700200B077401B5160040F1120557FF12056C
:100667009A0205D4D211D20F8095120557FB1205B5
:1006770057FA120557F94A4B7006797D7A087BFFBE
:10068700200B2EE516602A7E008E82758300120AE3
:10069700EC60060EEE651770F0C2D5EBC0E0EAC05D
:1006A700E0E9C0E0EE1207F3D0E0F9D0E0FAD0E0DD
:1006B700FB120AD3FF60AAEBC0E0EAC0E0E9C0E0A2
:1006C70012059AD0E02401F9D0E03400FAD0E0FB1B
:1006D700E5170460DCD517D980877BFF7A0779EFA8
:1006E700D20B809C791080027908C20FC211800852
:1006F700D2D5790A8004790AC2D5E517047002F5C4
:1007070017E4FAFDFEFF120557FC7B08200A1312B7
:100717000557FD7B1030090A120557FE120557FFD2
:100727007B20EC3382D592D55013C3E43009069F62
:10073700FFE49EFEE4200A039DFDE49CFCE4CBF865
:10074700C20AEC700CCFCECDCCE824F8F870F38059
:1007570017C3EF33FFEE33FEED33FDEC33FCEB3322
:10076700FB994002FB0FD8E9EB300A05F8D0E0C44B
:1007770048B20AC0E00AEC4D4E4F78207B0070C2A9
:10078700EAB5170040BCC0E01207F5D0F0D0E02072
:100797000A04C4C0E0C4B20AC0F0120583D0F0D581
:1007A700F0EB0205D4120B4B06715306EB580642C9
:1007B7004C063E4206EF4F06F74406F749065743F5
:0807C70006FD5506E14606E1BE
:1007CF004506E147089D5006462D064A2E066D2B1D
:1007DF00064E23066B2008862A060648000006658B
:1007EF003F3F3F00790AA2D5200C14300E09B910F3
:1007FF00020404B9080104A2D5200F0250010420FD
:10080F000B68920BB516005034C0E07F20300C19E6
:10081F007F30A20B720F720E500F12084CC20BC218
:10082F000FC20EC2117F30800F300E03E9C0E012ED
:10083F00059A300E03D0E0F9D0E0B516CC300E1784
:10084F007F30B9100C12059A7F58300D077F7880D2
:10085F0003B9080312059A300B057F2D02059A7F05
:10086F00202011F87F2B200FF322920B80CF286EC0
:10087F00756C6C2900D20A120557300AF8C20A7833
:10088F001630D50108F60206062D504349581205B9
:10089F00572403B405004001E49008989312058B88
:0D08AF00743A12058BD20C7516040206EB8C
:100CD200020D52E493A3F8E493A34003F68001F2D9
:100CE20008DFF48029E493A3F85407240CC8C33323
:100CF200C4540F4420C8834004F456800146F6DFF2
:100D0200E4800B0102040810204080900E83E47EF0
:100D1200019360BCA3FF543F30E509541FFEE493E6
:100D2200A360010ECF54C025E060A840B8E493A3AD
:100D3200FAE493A3F8E493A3C8C582C8CAC583CAD8
:100D4200F0A3C8C582C8CAC583CADFE9DEE780BE90
:010E8700006A
:100AD300BB010689828A83E0225002E722BBFE0221
:090AE300E32289828A83E4932254
:100AEC00BB010CE58229F582E5833AF583E02250BF
:100AFC0006E92582F8E622BBFE06E92582F8E22209
:0D0B0C00E58229F582E5833AF583E4932222
:100B1900BB010689828A83F0225002F722BBFE01BB
:020B2900F322B5
:100B2B00F8E0FBA3A3E0F925F0F0E5821582700253
:070B3B001583E0FA38F022F7
:090B4200EBF0A3EAF0A3E9F022B4
:100B4B00D083D082F8E4937012740193700DA3A339
:100B5B0093F8740193F5828883E47374029368604D
:060B6B00EFA3A3A380DF4D
:100DEB00EFB40A07740D120DF6740A309811A89916
:100DFB00B8130CC2983098FDA899C298B811F63068
:070E0B0099FDC299F599223F
:00000001FF
