:1008B700546F7563684B65792064656D6F20737439
:1008C700617274202E2E2E0A002059256420000AFA
:1008D70000636820256420707265737365642C76E5
:1008E700616C75653A25640A006368202564207584
:1008F700702C76616C75653A25640A001E1E1E1EF3
:0C0907001E1E1E1E1E1E1E1E1E1E1E1E7C
:050A570042044E000006
:100A0D00D3EF9DEE9C4007EF9DFFEE9CFE22C3EDC4
:060A1D009FFFEC9EFE228B
:0A00500043A03C5394C343953C22A7
:10096E00EFD394035029ED6014EF2402FF7401C8F5
:10097E00EFC8088002C333D8FCF452A022EF240241
:10098E00FF7401C8EFC8088002C333D8FC42A0220E
:1003C3009004007464F07E017F407D007B017A001D
:1003D30079001206CC120A237F147E001209DF1261
:1003E30007967BFF7A0879B71200C91200501200F2
:1003F30000E490044EF0A3F07F64FE1209DF900442
:10040300017408F0900401E0FF90090393FD1200CA
:1004130000900401E0FD25E0242EF582E43404F588
:1004230083EEF0A3EFF07BFF7A0879D0ED25E0248B
:100433002EF582E43404F583E0FFA3E0900409CFB2
:10044300F0A3EFF01200C9900401E004F0E0B40C53
:10045300B37BFF7A0879D61200C9900400E06022CA
:10046300A37408F0900401E0640C60EEE0FF9009CF
:100473000393FD120000900400E014F0A3E004F0E5
:1004830080E29004017408F0900401E0640C60CAF7
:10049300E0FF90090393FD120000900402EEF0FCCC
:1004A300A3EFF0FD900401E025E0242EF582E4346F
:1004B30004F583E0FEA3E0FF120A0D900404EEF0BE
:1004C300A3EFF0D394E8EE94034077900401E0FFA8
:1004D30074017E00C8EFC8088005C333CE33CED87D
:1004E300F9FF90044EE05EFEA3E05F4E70317BFFA8
:1004F3007A0879D8900401E0FF900409E4F0A3EFAF
:10050300F0900402E0FFA3E090040BCFF0A3EFF020
:100513001200C9900401E024F8FF7D0112096E90D6
:100523000401E0FF74017E00C8EFC8088005C333EF
:10053300CE33CED8F9FF90044EE04EF0A3E04FF057
:100543008073C3900405E09432900404E094005057
:1005530064900401E0F974017E00C8E9C8088005CD
:10056300C333CE33CED8F9FF90044EE05EFCA3E054
:100573005F4C6041EFF4FFEEF4FE90044EE05EF05A
:10058300A3E05FF07BFF7A0879F0900401E0FF902D
:100593000409E4F0A3EFF0900402E0FFA3E0900469
:1005A3000BCFF0A3EFF01200C9900401E024F8FF91
:0E05B300E4FD12096E900401E004F002048BD6
:100003007590FF75A0FF75C0FF75B0FF7580FFE4A5
:10001300F592F594F5C2F596F5C49021D104F0A3B9
:100023007410F0A37450F07E007F008E0D8F0E8E3F
:10003300C78FC6C2099021D87405F075A7FE75A6AF
:0D004300FF9021D174FDF043F740D2ED2273
:03005B0002091384
:10091300C0D0C0E005A6E5A6700975A610850EC671
:10092300850DC720092ED2AED2D0E0E0E0E0E0E0B2
:10093300E0E0E0E0E0E0E0E0E0E0E0E0E0E0E0E0B4
:10094300E0E0E0E0E0E0E0E0E0E0C2AE75A7FFD089
:10095300E0D0D032E4D2AED2D093939393939393D7
:0B09630093C2AE75A7FFD0E0D0D032E9
:100A230075A15575A1AAE5B954F84405F5B9E4F5DE
:020A3300A122FE
:1009C500EF4E601505A105A105A105A105A105A18C
:0A09D50005A1EF1F70EA1E80E72263
:1009DF00AD07AC06ED4C600E7FE87E031209C5ED46
:0709EF001D70F11C80EE22D7
:080A3F009021E9E04410F022CF
:10079600C29FD29EC29DC2CDC2CC43878090040622
:1007A60012069B00000082E47B0AFAF9F890040620
:1007B600E0FCA3E0FDA3E0FEA3E0FF1205FD90042C
:1007C6000AEBF0900406E0FCA3E0FDA3E0FEA3E044
:1007D600FFE47B0AFAF9F81205FD90040612068F6B
:1007E60090040AE0C39405401F900406E0FCA3E0D1
:1007F600FDA3E0FEA3E02401FFE43EFEE43DFDE4AC
:100806003CFC90040612068FE589540F4420F589B6
:1008160043C9A0900406A3A3A3E0F404F58DD28EE9
:04082600D299D29CF5
:01082A0022AB
:080A47003098FDC298AF99221E
:080A4F008F993099FDC2992234
:1009F60075A15575A1AAEF600543B101800353B1F6
:070A0600FEE4F5A1F5FF225B
:030A5D008FFF22E6
:0A0A350075A15575A1AA43B1102266
:0300000002082BC8
:0C082B00787FE4F6D8FD75812102087288
:1005C10075F008758200EF2FFFEE33FECD33CDCCF1
:1005D10033CCC58233C5829BED9AEC99E582984074
:1005E1000CF582EE9BFEED9AFDEC99FC0FD5F0D651
:1005F100E4CEFBE4CDFAE4CCF9A88222B800C1B97B
:100601000059BA002DEC8BF084CFCECDFCE5F0CBB8
:10061100F97818EF2FFFEE33FEED33FDEC33FCEBF1
:1006210033FB10D703994004EB99FB0FD8E5E4F9AC
:10063100FA227818EF2FFFEE33FEED33FDEC33FC99
:10064100C933C910D7059BE99A4007EC9BFCE99A8D
:10065100F90FD8E0E4C9FAE4CCFB2275F010EF2FD2
:10066100FFEE33FEED33FDCC33CCC833C810D707D2
:100671009BEC9AE899400AED9BFDEC9AFCE899F80D
:0E0681000FD5F0DAE4CDFBE4CCFAE4C8F922A0
:0C068F00ECF0A3EDF0A3EEF0A3EFF022DE
:10069B00A8828583F0D083D0821206B21206B212E2
:1006AB0006B21206B2E473E493A3C583C5F0C58307
:1006BB00C8C582C8F0A3C583C5F0C583C8C582C8A9
:0106CB00220C
:10005E00E5082409F582E43404F583E005082290CE
:10006E000406300703900409E475F00112075002EC
:10007E0006F82000E97F2ED2008018EF540F24904E
:10008E00D43440D4FF30040BEF24BFB41A00500315
:10009E002461FFE50960021509050CE50C700205E7
:1000AE000B30070E900406E475F001120750EF02B4
:1000BE00073E02099E7403D2078003E4C207F508C7
:1000CE00900406120767E4F509F50BF50CE50960D7
:1000DE00077F201200A180F5750AFFC201C200C27F
:1000EE0002C203C205C206C20812006DFF700D30B7
:1000FE0007057F001200B2AF0CAE0B22B4255FC213
:10010E00D5C20412006DFF24D0B40A00501A75F047
:10011E000A780930D50508B6FF0106C6A426F620D2
:10012E00D5047002D20380D924CFB41A00EF500444
:10013E00C2E5D2040202B3D20180C6D20080C0D280
:10014E000280BCD2D580BAD20580B47F201200A125
:10015E002002077401B5090040F112005EFF120083
:10016E00A10200DBD208D206809512005EFB1200BF
:10017E005EFA12005EF94A4B700679847A037BFFB1
:10018E0020022EE509602A7E008E827583001207FA
:10019E001160060EEE650A70F0C2D5EBC0E0EAC043
:1001AE00E0E9C0E0EE1202FAD0E0F9D0E0FAD0E0D9
:1001BE00FB1206F8FF60AAEBC0E0EAC0E0E9C0E07F
:1001CE001200A1D0E02401F9D0E03400FAD0E0FB17
:1001DE00E50A0460DCD50AD980877BFF7A0279F6BE
:1001EE00D202809C791080027908C206C20880086B
:1001FE00D2D5790A8004790AC2D5E50A047002F5CF
:10020E000AE4FAFDFEFF12005EFC7B0820011312C9
:10021E00005EFD7B1030000A12005EFE12005EFFD3
:10022E007B20EC3382D592D55013C3E43000069F69
:10023E00FFE49EFEE42001039DFDE49CFCE4CBF86C
:10024E00C201EC700CCFCECDCCE824F8F870F38060
:10025E0017C3EF33FFEE33FEED33FDEC33FCEB3320
:10026E00FB994002FB0FD8E9EB300105F8D0E0C452
:10027E0048B201C0E00AEC4D4E4F78207B0070C2B0
:10028E00EAB50A0040BCC0E01202FCD0F0D0E0207B
:10029E000104C4C0E0C4B201C0F012008AD0F0D58F
:1002AE00F0EB0200DB12077001785301F25801499E
:1002BE004C01454201F64F01FE4401FE49015E43E9
:0802CE0002045501E84601E8B5
:1002D6004501E84703A450014D2D01512E01742B11
:1002E600015523017220038D2A010D480000016C7F
:1002F6003F3F3F00790AA2D5200314300509B91003
:10030600020404B9080104A2D52006025001042003
:1003160002689202B509005034C0E07F203003190C
:100326007F30A20272067205500F120353C202C238
:1003360006C205C2087F30800F300503E9C0E0120F
:1003460000A1300503D0E0F9D0E0B509CC3005179F
:100356007F30B9100C1200A17F583004077F7880D7
:1003660003B908031200A13002057F2D0200A17F08
:10037600202008F87F2B2006F322920280CF286ED9
:10038600756C6C2900D20112005E3001F8C201784A
:100396000930D50108F602010D2D504349581200C7
:1003A6005E2403B405004001E490039F931200927B
:0D03B600743A120092D2037509040201F29C
:1006CC00EF4E6012EF60010EEDBB010B89828A8345
:1006DC00F0A3DFFCDEFA2289F05007F709DFFCA952
:0C06EC00F022BBFEFCF309DFFCA9F022A9
:100837000203C3E493A3F8E493A34003F68001F211
:1008470008DFF48029E493A3F85407240CC8C333C2
:10085700C4540F4420C8834004F456800146F6DF91
:10086700E4800B0102040810204080900A57E47EC0
:10087700019360BCA3FF543F30E509541FFEE49386
:10088700A360010ECF54C025E060A840B8E493A34D
:10089700FAE493A3F8E493A3C8C582C8CAC583CA78
:1008A700F0A3C8C582C8CAC583CADFE9DEE780BE30
:010A5C000099
:1006F800BB010689828A83E0225002E722BBFE0200
:09070800E32289828A83E4932232
:10071100BB010CE58229F582E5833AF583E022509D
:1007210006E92582F8E622BBFE06E92582F8E222E7
:0D073100E58229F582E5833AF583E4932201
:10073E00BB010689828A83F0225002F722BBFE019A
:02074E00F32294
:10075000F8E0FBA3A3E0F925F0F0E5821582700232
:070760001583E0FA38F022D6
:09076700EBF0A3EAF0A3E9F02293
:10077000D083D082F8E4937012740193700DA3A318
:1007800093F8740193F5828883E47374029368602C
:06079000EFA3A3A380DF2C
:10099E00EFB40A07740D1209A9740A309811A899B8
:1009AE00B8130CC2983098FDA899C298B811F630B9
:0709BE0099FDC299F5992291
:00000001FF
