:1014D400537461727420404368697049443D2530F7
:1014E40032580A005761697420446576696365203F
:1014F400496E0A00456E756D416C6C526F6F744491
:10150400657620657272203D20253032580A004DE0
:101514006F75736520646174613A200078253032F8
:101524005820000A004D6F757365206572726F72E2
:1015340020253032780A004D6F757365206E6F2058
:10154400696E7465727275707420656E64706F690B
:041554006E740A00A7
:101008001219E01215587BFF7A1479D4AFA1753DF7
:10101800008F3E1205881217E8C2097BFF7A1479FF
:10102800E8120588E4F52330D80EC2D81216868F48
:1010380023E523B41502D209200905E523B41520B8
:10104800C2097FC87E001219701218EB8F23E5239E
:10105800600E7BFF7A1479F8753D00F53E1205881D
:101068007F647E001219707F331215CCAD07AC0671
:10107800EDF47002ECF460AC8C228D24121633E58A
:1010880024601175F00CA4247DF582E43400F58306
:10109800E0FF8005900139E0FF8F25E525540F70AA
:1010A8000302113AE525547F4490FFE52530E70413
:1010B8007DC080027D00E4FBFA1213818F23E523B3
:1010C800705C632580E524600F75F00CA4247DF521
:1010D80082E43400F5838003900139E525F085DB4F
:1010E80024E52460567BFF7A157913120588E4F508
:1010F80022E522C39524501E7BFF7A1579207400BF
:101108002522F582E43400F583E0753D00F53E12B2
:101118000588052280DB7BFF7A157927801AE5236D
:10112800642A60177BFF7A157929753D0085233E6F
:1011380080067BFF7A15793B1205887F011219F228
:0311480002102C66
:100B38005553422064657620696E0A005553422059
:100B4800646576206F75740A005345545F504F52A0
:100B580054202025303258202025303258200025B6
:100B680030327820000A005265736574205553426C
:100B780020506F72740A0044697361626C65207555
:100B8800736220706F72742062656361757365208B
:100B98006F6620646973636F6E6E6563740A0047DD
:100BA800657444657644657363723A20007825302D
:100BB8003258200047657443666744657363723A28
:100BC80020005553422D4469736B20526561647946
:100BD8000A005553422D5072696E74204F4B0A001B
:100BE8005553422D5072696E742052656164790ABA
:100BF80000416E616C797A65486964496E74456E26
:100C0800647020253032780A004374726C5365741E
:100C1800557362436F6E66696720253032780A0023
:100C28004765744849445265706F72743A2000559C
:100C380053425F4445565F434C4153535F484944D0
:100C48002052656164790A005553422D4B657962DB
:100C58006F6172642052656164790A005553422DB0
:100C68004D6F7573652052656164790A0047657434
:100C780048756244657363723A004578742D485527
:100C88004220506F72745F2531642320706F77653E
:100C980072206F6E206572726F720A0064765F63ED
:100CA8006C7320253032780A0069665F636C7320A4
:100CB800253032780A0069665F737562636C732049
:100CC800253032780A002530327820253032780AEB
:100CD80000496E6974526F6F74446576204572726C
:100CE800203D20253032580A00456E756D55534217
:100CF8004465760A008006000100001200800600A4
:100D080002000004000005020000000000000900C5
:100D18000000000000010B000000000000020100BC
:100D28000000000000A006002900000900210A00B8
:100D38000000000000810600220000FF00A1000062
:100D4800000000F103C0330000000002004035003D
:100D580000000000000004102327354357434800D3
:100D68005743485541525444656D6F0057434820D6
:100D78004163636573736F727920546573740031CE
:100D88002E3000687474703A2F2F7763682E636E64
:100D9800005743484163636573736F72793100404C
:100DA800340000000004004034000001000C004042
:100DB8003400000200130040340000030004004027
:0F0DC80034000004000E004034000005000E004F
:081A2200E4900131F0A3F02271
:10168600E4F539E5DA30E022900131E06005E5D194
:1016960020E033121A229001317401F07BFF7A0B9D
:1016A6007938120588753915801C900131E0C3948C
:1016B600014013121A227BFF7A0B7944120588E542
:0816C600397003753916AF39C4
:0116CE0022F9
:0C1A0000EF547FFFE5E354804FF5E32234
:0E19F200EF600753E2BF53D27F2243E2402250
:1016CF009000807408F07E007F0D7D007B017A0111
:1016DF007931120AD6E4FF121A0053D1FE7F01129C
:1016EF0019F2E5D154FB4402F5D17F147E00121993
:1016FF007053D1FDE5DA30E0FB7F017E00121970E7
:03170F00C2D8221B
:10171200900131E0C3940150037401F0E5DA30E046
:1017220023E5D120E015E5DA30E1047F0080027F75
:1017320001900133EFF0700343D10475D24043D1DD
:07174200017F00227F162247
:10163300AE07EE603F75F00CA42476F582E4340027
:10164300F583E0FF121A00EE75F00CA42477F582FF
:10165300E43400F583E0FF1219F2EE75F00CA424D4
:1016630077F582E43400F583E0701743D2807F641A
:10167300FE02193F900132E0FF121A00A3E0FF12AD
:0316830019F22237
:101925007F907E0120D909EF1F70011EEF4E70F4E4
:0919350030D9047F0080027FFE1E
:01193E002286
:061381008F368A378B381D
:10138700AF058FD68FD4E4F5DD8536D5C2D97F90EA
:101397007E0120D909EF1F70011EEF4E70F4E4F5AE
:1013A700D520D9037FFE2230D822C2D8121686BF95
:1013B7001502D209900131E0FE70037F1622EEB4C8
:1013C70001037F15227FC87E0012193F30D95B3099
:1013D700DE037F0022E5D9540FFFBF0E028037BF1F
:1013E7000A20E53845377003EF8038C3E53894FFA6
:1013F700E53794FF5008E53815387002153715DDC5
:10140700802BE536C4540F24F7600D24FC600424B8
:101417000C7014EF6017800BBF0305EF640B600DB2
:10142700EF600A4420FF227FFE2275D8FF7F0F7EE0
:101437000012193F05DDAFDDEFC39403500302131C
:03144700907F2073
:01144A00227F
:0F0DD7001218CC900044E52EF07E007FB17D2FE6
:100DE600E4F530F531AA06A9077B0190013E04F02F
:100DF600A3EAF0A3E9F0AF05A9071B8B337534000E
:100E060089357FC87E0012193FE534453545336084
:100E16000AAB33AA34A935E41209E075D7087B106A
:100E26007A27E4FD7FD01213818F32E532600122EA
:100E360075D6D075D4D075D701900047E0FE9000E6
:100E460046E0FDEEF530EDF531E531453070030253
:100E56000FD890013EE0FBA3E0FAA3E0F9EA494B84
:100E66007003020FD8900040E020E703020F0CE564
:100E76003145307003020F067FC87E0012193F7B92
:100E8600107A27ADD47F901213818F32E53260013C
:100E960022AFDBC3EF9531E495305004AFDB80021F
:100EA600AF31EFFDC3E5319DF531E5309400F53006
:100EB600E53445354533600AAB33AA34A935EF121C
:100EC60009BEE4FEEE6F602874002EF582E434005D
:100ED600F583E0FD90013EE0FBA3E0FAA3E0F9ED27
:100EE6001209E090013FE475F0011209F20E80D478
:100EF600E5DB600C900080E01455DB7003020E7594
:100F0600E4F5D7020FD8E53145307003020FD87FDC
:100F1600C87E0012193F900080E0FFFDC3E5319DB9
:100F2600E530940040028002AF318FD790013EE059
:100F3600FBA3E0FAA3E0F9900001120991B4092A93
:100F4600630B01E50B1209E090013EE0FBA3E0FA1A
:100F5600A3E0F9120978753D00F53E753F00850B53
:100F6600407BFF7A0B7951120588E4FFEF65D76065
:100F76002890013EE0FBA3E0FAA3E0F9120978FE0F
:100F860074402FF582E43400F583EEF090013FE4DF
:100F960075F0011209F20F80D37B107A27ADD67F48
:100FA600101213818F32E532600122AFD7C3E531CB
:100FB6009FF531E5309400F530E53445354533701D
:100FC60003020F0CAB33AA34A935E5D71209BE02CA
:100FD6000F0C7FC87E0012193FE5D760047F908012
:100FE600027F107B107A277DC01213818F32E53283
:100FF600600122E5D77002FF22E5DB7002FF227F47
:0110060017D2
:0110070022C6
:1018CC00E4FD8F828E83E493FC74402DF582E43426
:0E18DC0000F583ECF00FBF00010E0DBD08E417
:0118EA0022DB
:101780009000807408F07E0C7FFD1218CC7E007FE4
:10179000B17D2E120DE6EF6001229000B8E09000BE
:1017A00080F0900D03E493FFE52EC39F50037F1755
:0317B000227F0095
:0117B3002213
:101749007E0D7F051218CC7E007FB17D2E120DE62D
:10175900EF6001229000B3E0F52E7E0D7F0512188F
:10176900CC900046E52EF07E007FB17D2E120DE66D
:06177900EF6001227F0079
:01177F002247
:021814008F2E15
:101816007E0D7F0D1218CC900042E52EF0E4FDFF00
:10182600FE120DE6EF600122AF2E121A007F0A7E2D
:06183600001219707F0092
:01183C002289
:10199E00AB077E0D7F151218CC900042EBF0E4FDE4
:0619AE00FFFE120DE6220F
:1019B400AB077E0D7F251218CC900044EBF0E4FDBC
:0619C400FFFE120DE622F9
:1019CA00AB077E0D7F1D1218CC900042EBF0E4FDB0
:0619DA00FFFE120DE622E3
:02190A008F2E1E
:10190C007E0D7F35120DD7EF6001227E0D7F3D12CB
:08191C000DD7EF6001227F00EE
:0119240022A0
:101864007E0D7F2D1218CC7E007FB17D2E120DE6E9
:10187400EF600122900D33E493FFE52EC39F5003E4
:051884007F17227F0028
:01188900223C
:1017B40090004074A3F0A3E4F0A3F0A3F0A3EFF02F
:1017C400A3E4F0A37404F0A3E4F07E007FB17D0AE7
:1017D400120DE6EF600122E50AC3940450037F175B
:0317E400227F0061
:0117E70022DF
:10188A009000407423F0A37403F0A3EDF0A3E4F0F6
:10189A00A3EFF0A3E4F0A3F0A3F0FDFFFE120DE620
:0118AA00221B
:1018AB009000407423F0A37401F0A3EDF0A3E4F0D7
:1018BB00A3EFF0A3E4F0A3F0A3F0FDFFFE120DE6FF
:0118CB0022FA
:101959007E0D7F451218CC7E007FB17D2E120DE6DB
:06196900EF6001227F0087
:01196F002255
:061270008E2E8F2F8D3041
:10127600E4F532E53060199000047D0075F00CA4A9
:10128600247DF9740035F0FA7B01AE83AF82800CC1
:101296007E007F047D007B017A017939120AD6E44B
:1012A600F531852F82852E83A3A3E0FFE531C39F09
:1012B6004003021375E52F2531F582E4352EF583BB
:1012C600A3E064056003021359E52F2531F582E496
:1012D600352EF583A3A3A3E0540364037075E52FAD
:1012E6002531F582E4352EF583A3A3E0FF30E763CD
:1012F600E530601EEF540FFFE53075F00CA4247D39
:10130600F582E43400F583E5822532F582E43583FF
:10131600801AE52F2531F582E4352EF583A3A3E067
:10132600540FFF74392532F582E43401F583EFF06A
:101336007BFF7A0B796774392532F582E43401F53F
:1013460083E0753D00F53E1205880532E532C3940B
:1013560004501CE52F2531F582E4352EF583E0F5A2
:1013660033D394105009E5332531F5310212A87BA9
:0A137600FF7A0B796D120588AF3283
:01138000224A
:06114B008E2E8F2F8D3067
:10115100E4F531753202E53060199000047D0075C7
:10116100F00CA4247DF9740035F0FA7B01AE83AF55
:1011710082800C7E007F047D007B017A0179391227
:101181000AD6E4FF852F82852E83A3A3E0FEEFC359
:101191009E400302126DE52F2FF582E4352EF58373
:1011A100A3E064056003021254E52F2FF582E435B4
:1011B1002EF583A3A3A3E054036402600302125437
:1011C100E5306046E52F2FF582E4352EF583A3A3A4
:1011D100E030E709540FFEAD3105318014E52F2FC2
:1011E100F582E4352EF583A3A3E0540FFEAD32055D
:1011F10032E53075F00CA4247DF582E43400F583EA
:10120100E5822DF582E435838035E52F2FF582E4E3
:10121100352EF583A3A3E030E709540FFEAD310568
:10122100318014E52F2FF582E4352EF583A3A3E059
:10123100540FFEAD32053274392DF582E43401F5D7
:1012410083EEF0E531B40203753101E532B40403F4
:10125100753203E52F2FF582E4352EF583E0F53362
:0E126100D394105007E5332FFF0211857F0054
:01126F00225C
:10144B007E0D7F4D1218CC7E007FB17D08120DE60C
:10145B00EF6001229000B1E0C3940250037F412260
:10146B00E4F509E509900D5D93FBE50975F008A41A
:10147B0024A7F582E4340DAF82FE1218CC900047FE
:10148B00E0FE900046E0FDEDFF74642BF9E4340DB3
:10149B00FA7BFF78B17C007D011209527E007FB18F
:1014AB007D08120DE6EF6001220509E509C39406DC
:1014BB0040B17E0D7F551218CC7E007FB17D081296
:0814CB000DE6EF6001227F0035
:0114D30022F6
:10000300E4F52DF5267BFF7A0B796F120588E4F56D
:1000130027E527C3952650157F647E00121970E5E6
:1000230026D3940A4003AF2822052780E41216CF73
:10003300E4F527F5287F017E00121970121712EFDD
:100043007019F5270528E5262414FFE433FED3E5CC
:10005300289FEE6480F874809850090527E527C32C
:10006300946440D1E527600F121A227BFF7A0B7943
:100073007F1205887F1622E4FF1216337BFF7A0B6B
:1000830079A71205881217808F28E52860030205D7
:1000930007F527900D03E493FFE527C39F501E7BCD
:1000A300FF7A0B79B574B12527F582E43400F58323
:1000B300E0753D00F53E120588052780D67BFF7A63
:1000C3000B796D1205889000BAE0FE9000B9E07CD0
:1000D300002400FFEC3E900135F0A3EFF09000BC4C
:1000E300E0FE9000BBE02400FFEC3E900137F0A35C
:1000F300EFF09000B5E0F52A900D0FE493FF12188E
:10010300148F28E5286003020507900D0F939001D3
:1001130032F07BFF7A0B79BC1205881217498F28BE
:10012300E52860030205079000B6E0F5299000B5C5
:10013300E0F52CE4F5279000B3E0FFE527C39F50DB
:100143001E7BFF7A0B79B574B12527F582E4340061
:10015300F583E0753D00F53E120588052780D77BC2
:10016300FF7A0B796D1205889000BFE0F52BE52A25
:10017300705EE52B640870587E007FB1FD12114B51
:10018300E4F5277BFF7A0B796774392527F582E439
:100193003401F583E0753D00F53E1205880527E53A
:1001A30027B404DF7BFF7A0B796D120588AF291220
:1001B300199E8F28E5286003020507900131740317
:1001C300F09001347408F07BFF7A0B79CA02039232
:1001D300E52A6003020292E52B64076003020292A0
:1001E3009000C0E0640160030202927BFF7A0B7906
:1001F300DA1205889000C4E0FFB4050BA3E0FE60AB
:1002030006900139F0801CEFB405189000C5E0FF9B
:100213007C0060047D0180027D00ED4C700590013F
:100223003AEFF09000CBE0FFB405109000C5E0601A
:100233000A9000CCE0900139F0801EEFB4051A90CB
:1002430000C5E07E0060047F0180027F00EF4E70F6
:10025300089000CCE090013AF0AF2912199E8F2844
:10026300E5286003020507AF291219CA8F2812195E
:10027300598F28E52860030205079001317403F0C4
:100283009001347407F07BFF7A0B79E8020392E55F
:100293002A600302039EE52B6403600302039E901E
:1002A30000C0E0D39401400302039E7E007FB1E4CB
:1002B300FD1212708F287BFF7A0B79F9753D008F41
:1002C3003E1205889000C1E0F52B7BFF7A0C791173
:1002D300753D0085293E120588AF2912199E8F2886
:1002E300E52860030205077BFF7A0C79281205884D
:1002F300E4F52AE52AC3952C503DAF2A12190A8F3B
:1003030028E528702EF5277BFF7A0B79B574B12584
:1003130027F582E43400F583E0753D00F53E1205D0
:10032300880527E527C3944040DD7BFF7A0B796D71
:10033300120588052A80BC9001317403F0E52B6413
:100343000170249001347423F0E52CD39401400F01
:100353007BFF7A0C79371205889001347403F07BA4
:10036300FF7A0C79508028E52B64027028900134C1
:100373007433F0E52CD39401400F7BFF7A0C79376B
:100383001205889001347403F07BFF7A0C796412B0
:1003930005880204717528FB020507E52A640960D4
:1003A300030204787E007FB1FD1212708F287BFF59
:1003B3007A0B79F9753D008F3E1205887BFF7A0C25
:1003C30079751205881218648F28E52860030205E1
:1003D30007F5279000B1E0FFE527C39F501E7BFF81
:1003E3007A0B79B574B12527F582E43400F583E0FF
:1003F300753D00F53E120588052780D77BFF7A0BF4
:10040300796D1205889000B3E090013DF0D3940418
:1004130040037404F0AF2912199E8F28E528600366
:100423000205079001317403F09001347409F075EB
:10043300270190013DE0FFE527D39F5031E5277564
:10044300F00CA42475F582E43400F583E4F07D0810
:10045300AF2712188A8F28E528600F7BFF7A0C7963
:1004630082753D0085273E120588052780C47F01DC
:100473001219F21F227BFF7A0C79A4753D00852A9D
:100483003E1205887BFF7A0C79B1753D00852B3EC2
:100493001205887BFF7A0C79BE9000C0E0753D00A1
:1004A300F53E1205887E007FB1E4FD12114BE4F5A1
:1004B300277BFF7A0B796774392527F582E43401AA
:1004C300F583E0753D00F53E1205880527E527B461
:1004D30004DF7BFF7A0B796D120588AF2912199E11
:1004E3008F28E528701E7BFF7A0C79CE900135E0CA
:1004F300F53DA3E0F53EA3E0F53FA3E0F54012058B
:10050300887F00227BFF7A0C79D9753D0085283ED0
:100513001205889001317402F07F011219F2052649
:03052300020011C2
:1018EB007BFF7A0C79F1120588900131E0B4010C81
:0E18FB00120003780CEFF66003E6FF227F0078
:0119090022BB
:1015CC00E4F9900134E064097043900131E0C39474
:1015DC0003403A7D0190013DE0FEEDD39E502EED8F
:1015EC0075F00CA42478F582E43400F583E06F7078
:1015FC0019ED75F00CA42475F582E43400F583E044
:10160C00C394034005E9FEEDFF220D80C890013420
:10161C00E0B5070E900131E0C394034005E97F006B
:06162C00FE227EFF7FFF9D
:011632002295
:1017E800C2EAE4F5E39021E17448F075E50075E498
:1017F8000075E70075E640E4F5D4F5D675E288751E
:0C180800D8FF121A229021E27403F02293
:1019E00075A15575A1AAE5B954F84405F5B9E4F512
:0219F000A12232
:10193F00EF4E601505A105A105A105A105A105A102
:0A194F0005A1EF1F70EA1E80E722D9
:10197000AD07AC06ED4C600E7FE87E0312193FED1B
:071980001D70F11C80EE2236
:081A2A009021E9E04410F022D4
:10155800C29FD29EC29DC2CDC2CC438780E475296A
:1015680082F528F527F5267B0AFAF9F8AF29AE287F
:10157800AD27AC26120A44AF038F2AAF29AE28AD97
:1015880027AC26E47B0AFAF9F8120A448F298E2838
:101598008D278C26E52AC394054011EF2401F529EF
:1015A800E43EF528E43DF527E43CF526E589540FAB
:1015B8004420F58943C9A0E529F404F58DD28ED2DB
:0315C80099D29C19
:0115CB0022FD
:081A32003098FDC298AF992223
:081A3A008F993099FDC2992239
:1019870075A15575A1AAEF600543B101800353B155
:07199700FEE4F5A1F5FF22BB
:031A42008FFF22F1
:0A1A180075A15575A1AA43B1102273
:03000000021A0CD5
:0C1A0C00787FE4F6D8FD75814D021008CB
:10088200E709F608DFFA8046E709F208DFFA803E58
:1008920088828C83E709F0A3DFFA8032E309F60845
:1008A200DFFA8078E309F208DFFA807088828C83AD
:1008B200E309F0A3DFFA806489828A83E0A3F60861
:1008C200DFFA805889828A83E0A3F208DFFA804C3B
:1008D20080D280FA80C680D4806980F28033801012
:1008E20080A680EA809A80A880DA80E280CA80337B
:1008F20089828A83ECFAE493A3C8C582C8CCC583F3
:10090200CCF0A3C8C582C8CCC583CCDFE9DEE780C2
:100912000D89828A83E493A3F608DFF9ECFAA9F041
:10092200EDFB2289828A83ECFAE0A3C8C582C8CC97
:10093200C583CCF0A3C8C582C8CCC583CCDFEADEB0
:10094200E880DB89828A83E493A3F208DFF980CC12
:1009520088F0EF60010E4E60C388F0ED2402B4040B
:100962000050B9F582EB2402B4040050AF232345B2
:0609720082239008D273FD
:10097800BB010689828A83E0225002E722BBFE027D
:09098800E32289828A83E49322B0
:10099100BB010CE58229F582E5833AF583E022501B
:1009A10006E92582F8E622BBFE06E92582F8E22265
:0D09B100E58229F582E5833AF583E493227F
:1009BE00BB010989828A83F8E028F022500327F7C9
:1009CE0022BBFE05F8E328F3228A838982F8E4939A
:0209DE002822CD
:1009E000BB010689828A83F0225002F722BBFE01F6
:0209F000F322F0
:1009F200C5F0F8A3E028F0C5F0F8E5821582700290
:060A02001583E038F0222C
:100A080075F008758200EF2FFFEE33FECD33CDCCA5
:100A180033CCC58233C5829BED9AEC99E582984028
:100A28000CF582EE9BFEED9AFDEC99FC0FD5F0D605
:100A3800E4CEFBE4CDFAE4CCF9A88222B800C1B92F
:100A48000059BA002DEC8BF084CFCECDFCE5F0CB6D
:100A5800F97818EF2FFFEE33FEED33FDEC33FCEBA6
:100A680033FB10D703994004EB99FB0FD8E5E4F961
:100A7800FA227818EF2FFFEE33FEED33FDEC33FC4E
:100A8800C933C910D7059BE99A4007EC9BFCE99A42
:100A9800F90FD8E0E4C9FAE4CCFB2275F010EF2F87
:100AA800FFEE33FEED33FDCC33CCC833C810D70787
:100AB8009BEC9AE899400AED9BFDEC9AFCE899F8C2
:0E0AC8000FD5F0DAE4CDFBE4CCFAE4C8F92255
:10052600E549243DF8E6054922783A300702783D48
:10053600E475F001120B020209782000EB7F2ED23F
:10054600008018EF540F2490D43440D4FF30040BAD
:10055600EF24BFB41A0050032461FFE54A60021578
:100566004A054DE54D7002054C30070D783AE475A5
:10057600F001120B02EF0209E002183D7403D207E4
:100586008003E4C207F5498B3A8A3B893CE4F54A85
:10059600F54CF54DE54A60077F2012056180F5753B
:1005A6004BFFC201C200C202C203C205C206C20894
:1005B60012052FFF700D3007057F00120572AF4D33
:1005C600AE4C22B4255FC2D5C20412052FFF24D03B
:1005D600B40A00501A75F00A784A30D50508B6FFF5
:1005E6000106C6A426F620D5047002D20380D924BB
:1005F600CFB41A00EF5004C2E5D204020772D2014A
:1006060080C6D20080C0D20280BCD2D580BAD205C4
:1006160080B47F201205612002077401B54A0040AC
:10062600F1120526FF12056102059AD208D206804C
:1006360095120526FB120526FA120526F94A4B7075
:100646000679437A087BFF20022EE54A602A7E005F
:100656008E8275830012099160060EEE654B70F06E
:10066600C2D5EBC0E0EAC0E0E9C0E0EE1207B9D0BF
:10067600E0F9D0E0FAD0E0FB120978FF60AAEBC0FF
:10068600E0EAC0E0E9C0E0120561D0E02401F9D05B
:10069600E03400FAD0E0FBE54B0460DCD54BD980B2
:1006A600877BFF7A0779B5D202809C791080027920
:1006B60008C206C2088008D2D5790A8004790AC21F
:1006C600D5E54B047002F54BE4FAFDFEFF12052654
:1006D600FC7B08200113120526FD7B1030000A1250
:1006E6000526FE120526FF7B20EC3382D592D550D7
:1006F60013C3E43000069FFFE49EFEE42001039D41
:10070600FDE49CFCE4CBF8C201EC700CCFCECDCC62
:10071600E824F8F870F38017C3EF33FFEE33FEEDED
:1007260033FDEC33FCEB33FB994002FB0FD8E9EBCE
:10073600300105F8D0E0C448B201C0E00AEC4D4EE5
:100746004F78207B0070C2EAB54B0040BCC0E01277
:1007560007BBD0F0D0E0200104C4C0E0C4B201C0A1
:10076600F012054AD0F0D5F0EB02059A120B1206EC
:10077600375306B15806084C06044206B54F06BD67
:0F0786004406BD49061D4306C35506A74606A7F0
:100795004506A747086350060C2D06102E06332B79
:1007A500061423063120084C2A05CC480000062BE8
:1007B5003F3F3F00790AA2D5200314300509B9103F
:1007C500020404B9080104A2D52006025001042040
:1007D50002689202B54A005034C0E07F2030031908
:1007E5007F30A20272067205500F120812C202C2B1
:1007F50006C205C2087F30800F300503E9C0E0124C
:100805000561300503D0E0F9D0E0B54ACC300517D5
:100815007F30B9100C1205617F583004077F78804E
:1008250003B908031205613002057F2D0205617FBA
:10083500202008F87F2B2006F322920280CF286E15
:10084500756C6C2900D2011205263001F8C20178B9
:100855004A30D50108F60205CC2D504349581205FA
:10086500262403B405004001E490085E9312055266
:0D087500743A120552D203754A040206B10E
:100AD600EF4E6012EF60010EEDBB010B89828A8337
:100AE600F0A3DFFCDEFA2289F05007F709DFFCA944
:0C0AF600F022BBFEFCF309DFFCA9F0229B
:100B0200FAE6FB0808E6F925F0F618E6CA3AF622F4
:100B1200D083D082F8E4937012740193700DA3A372
:100B220093F8740193F5828883E473740293686086
:060B3200EFA3A3A380DF86
:10183D00EFB40A07740D121848740A309811A8995C
:10184D00B8130CC2983098FDA899C298B811F6300B
:07185D0099FDC299F59922E3
:00000001FF
