:100B9400457272457030526571436F64653D25300E
:100BA40032580A00457272456E6470496E740A00C8
:100BB4007273740A00736C6565700A007765616B03
:100BC4000A00556E6B6E6F776E4552520A0073744D
:100BD400617274202E2E2E0A001201000100000002
:100BE40040861A10E000000102000106A0FF09017E
:100BF400A101090115002600FF750895408102092D
:100C040002750895409102090375089540B102C028
:100C140009022900010104A02309040000020300C1
:100C2400000009210001000122250007058203407C
:100C3400000107050203400001040309040E0377C1
:100C440000630068002E0063006E000C034300483C
:070C540000350034003500FB
:04003D004101580025
:0300430002004672
:0D004600C0E0C0F0C083C082C0D075D008FB
:1000530020D90302051EE5D954BF700302015A24B7
:10006300E0607324FE605924A2700302015A24FE47
:10007300600F24E2606024FE604624A06003020156
:100083006620DE0302051A63D4809000C0E5DBF02E
:10009300E4FF9000C0E0FEEFC39E501C74402FF5B8
:1000A30082E43400F583E0F4FD74802FF582E434B8
:1000B30000F583EDF00F80DA8ED553D4FC02051AD8
:1000C30075D50063D440900158E4F0E5D454FC4462
:1000D30002F5D402051A900111E024FB606114605B
:1000E3000424057069900112E0FEA3E0FFC394406D
:1000F300EE940040067D40EDFF80009000C0EFF0DD
:100103007E007400F87400FC7401FD900114E0FBA0
:10011300A3E0FAA3E0F91209AF9000C0E0FFFD7C71
:1001230000C3900113E09DF0900112E09CF0900158
:1001330015EC8DF01209D58FDD63DC4002051A90B2
:100143000112A3E0FFE5E354804FF5E3800375DD7F
:100153000075DC0202051A9000C0E5DBF063DC8069
:1001630002051AE5D954B064B0600302051175DCC9
:10017300C0900007E0FDFE900006E07A002400FF37
:10018300EA3E900112F0A3EFF0900001E09001111C
:10019300F0ED700FD3900113E0947F900112E0947F
:1001A300004009900112E4F0A3747FF09000C0E4D2
:1001B300F0900000E054606078900111E024FE604C
:1001C3003D14603A24FA24FD5034240B702A900124
:1001D300147401F0A37401F0A37418F0900112E0F9
:1001E300FEA3E0FFC39440EE94009000C04005746A
:1001F30040F0800AEFF080069000C074FFF090009A
:10020300C0E0FF7E00D3900113E09F900112E09EB7
:100213004005EEF0A3EFF0900112E0FEA3E0FFC370
:100223009440EE940040077D40EDFF020348020333
:1002330048900111E0B40B0040030204C69002474A
:10024300F82828730204A30203C60204C6020405A5
:100253000204C60203860202680204C6020396026F
:1002630003B3020487900003E024FE602814603B7C
:1002730024E170030202FD242160030203139001B1
:100283001474FFF0A3740BF0A374DDF09000C0743A
:1002930012F002031990011474FFF0A3740CF0A37D
:1002A3007414F09000C07429F0806B900002E06039
:1002B3003324FE601904705890011474FFF0A37482
:1002C3000CF0A37441F09000C0740EF080489001CC
:1002D3001474FFF0A3740CF0A3744FF09000C07477
:1002E3000CF0803290011474FFF0A3740CF0A3742B
:1002F3003DF09000C07404F0801C90011474FFF072
:10030300A3740BF0A374EFF09000C07425F0800683
:100313009000C074FFF09000C0E0FF7E00D3900116
:1003230013E09F900112E09E4005EEF0A3EFF090E2
:100333000112E0FEA3E0FFC39440EE940040067D6B
:1003430040EDFF80009000C0EFF07E007400F87471
:1003530000FC7401FD900114E0FBA3E0FAA3E0F9B3
:100363001209AF9000C0E0FF7E00C3900113E09F2D
:10037300F0900112E09EF0900115EE8FF01209D576
:100383000204E1900002E0FF900112E4F0A3EFF019
:100393000204E1900117E0900000F0C3900113E024
:1003A3009401900112E0940050030204E102049BC3
:1003B300900002E0900117F070030204E1900159EC
:1003C30002049E900000E0541F6402703390000406
:1003D300E01460261460122481601414704BE5D479
:1003E30054BC4402F5D40204E153D4730204E1E59E
:1003F300D254BC4402F5D20204E153D2730204E1A5
:10040300807A900000E0541FFD7C00701E90000372
:10041300E0FE900002E0FBEB64014E700C900C1BBD
:100423009330E5030204E180538051ED64024C7084
:100433004B900003E0FE900002E0FDED4E703B9018
:100443000005E0FE900004E0FDEDFFEE702AEF24CE
:10045300FE60112481601714701EE5D454BF440359
:10046300F5D4807AE5D4547F440CF5D48070E5D27A
:1004730054BF4403F5D28066800280009000C074AC
:10048300FFF0805A900000E4F0C3900113E0940160
:10049300900112E0940040469000C07401F0803E49
:1004A300900000E4F0A3F0900112E0FEA3E0FFC38C
:1004B3009402EE94009000C040057402F0801FEF98
:1004C300F0801B9000C074FFF0FB7A0B79949001CD
:1004D30011E0FF9000ECE4F0A3EFF01205E59000CB
:1004E300C0E0FF7E00F4700B90011174FFF075DC27
:1004F300CF8024D3EF9440EE648094805008900022
:10050300C0E0F5DD800375DD0075DCC080097BFF8D
:100513007A0B79A81205E5C2D9804B30D8217BFF2D
:100523007A0B79B41205E575DC0275D40275E30024
:10053300C2DAC2D9900158E4F0A3F0C2D8802730C0
:10054300DA18C2DAE5DA7BFF30E2067A0B79B98092
:10055300047A0B79C01205E5800C7BFF7A0B79C610
:0C0563001205E575D8FF30D903020059DD
:0B056F00D0D0D082D083D0F0D0E0329A
:100003009000E9EDF0FF7E00EBC0E0EAC0E0E9C05C
:10001300E07480F87400FC7401FDD0E0F9D0E0FADC
:10002300D0E0FB1209AF9000E9E0F5D553D4FC22F0
:100DD400C2EAE4F5E29021E1E0440CF0E054FEF0D4
:100DE4009021E0E054F3F0E4F5D57400FE74008E35
:100DF400EDF5EC7400FE74408EE5F5E4E4F5E353A0
:100E0400D1F753D1FB53E2BF43E22843D10175D854
:0A0E1400FF9021E27407F0D2EA22F9
:100D8000120E8D7F147E00120E5F120C5B7BFF7AB9
:100D90000B79D21205E5E4FFEFC394407480948090
:100DA000500F74182FF582E43401F583EFF00F80B3
:100DB000E7120DD4D2AF209412900158E070FA04DB
:100DC000F0FB7A0179187D401200037F647E0012E7
:040DD0000E5F80E250
:100E8D0075A15575A1AAE5B954F84405F5B9E4F570
:020E9D00A12290
:100E4500EF4E601505A105A105A105A105A105A107
:0A0E550005A1EF1F70EA1E80E722DE
:100E5F00AD07AC06ED4C600E7FE87E03120E45ED3C
:070E6F001D70F11C80EE2252
:080E9F009021E9E04410F0226B
:100C5B00C29FD29EC29DC2CDC2CC4387809000E979
:100C6B00120AC500000082E47B0AFAF9F89000E949
:100C7B00E0FCA3E0FDA3E0FEA3E0FF120A27900037
:100C8B00EDEBF09000E9E0FCA3E0FDA3E0FEA3E0B8
:100C9B00FFE47B0AFAF9F8120A279000E9120AB965
:100CAB009000EDE0C3940574809480401F9000E9A0
:100CBB00E0FCA3E0FDA3E0FEA3E02401FFE43EFE85
:100CCB00E43DFDE43CFC9000E9120AB9E589540FC0
:100CDB004420F58943C9A09000E9A3A3A3E0F40441
:080CEB00F58DD28ED299D29C46
:010CF30022DE
:080EA7003098FDC298AF9922BA
:080EAF008F993099FDC29922D0
:100E760075A15575A1AAEF600543B101800353B171
:070E8600FEE4F5A1F5FF22D7
:030EB7008FFF2288
:0A00330075A15575A1AA43B1102272
:03000000020CF4FB
:0C0CF400787FE4F6D8FD758122020D3BEC
:1008DF00E709F608DFFA8046E709F208DFFA803EFB
:1008EF0088828C83E709F0A3DFFA8032E309F608E8
:1008FF00DFFA8078E309F208DFFA807088828C8350
:10090F00E309F0A3DFFA806489828A83E0A3F60803
:10091F00DFFA805889828A83E0A3F208DFFA804CDD
:10092F0080D280FA80C680D4806980F280338010B4
:10093F0080A680EA809A80A880DA80E280CA80331D
:10094F0089828A83ECFAE493A3C8C582C8CCC58395
:10095F00CCF0A3C8C582C8CCC583CCDFE9DEE78065
:10096F000D89828A83E493A3F608DFF9ECFAA9F0E4
:10097F00EDFB2289828A83ECFAE0A3C8C582C8CC3A
:10098F00C583CCF0A3C8C582C8CCC583CCDFEADE53
:10099F00E880DB89828A83E493A3F208DFF980CCB5
:1009AF0088F0EF60010E4E60C388F0ED2402B404AE
:1009BF000050B9F582EB2402B4040050AF23234555
:0609CF00822390092F7342
:1009D500C5F0F8A3E028F0C5F0F8E58215827002AD
:0609E5001583E038F0224A
:1009EB0075F008758200EF2FFFEE33FECD33CDCCC3
:1009FB0033CCC58233C5829BED9AEC99E582984046
:100A0B000CF582EE9BFEED9AFDEC99FC0FD5F0D622
:100A1B00E4CEFBE4CDFAE4CCF9A88222B800C1B94C
:100A2B000059BA002DEC8BF084CFCECDFCE5F0CB8A
:100A3B00F97818EF2FFFEE33FEED33FDEC33FCEBC3
:100A4B0033FB10D703994004EB99FB0FD8E5E4F97E
:100A5B00FA227818EF2FFFEE33FEED33FDEC33FC6B
:100A6B00C933C910D7059BE99A4007EC9BFCE99A5F
:100A7B00F90FD8E0E4C9FAE4CCFB2275F010EF2FA4
:100A8B00FFEE33FEED33FDCC33CCC833C810D707A4
:100A9B009BEC9AE899400AED9BFDEC9AFCE899F8DF
:0E0AAB000FD5F0DAE4CDFBE4CCFAE4C8F92272
:0C0AB900ECF0A3EDF0A3EEF0A3EFF022B0
:100AC500A8828583F0D083D082120ADC120ADC1258
:100AD5000ADC120ADCE473E493A3C583C5F0C5837D
:100AE500C8C582C8F0A3C583C5F0C583C8C582C87B
:010AF50022DE
:10057A00E51524ECF582E43400F583E005152290B4
:10058A0000E93010039000ECE475F001120B4E0202
:10059A000AF62009E97F2ED2098018EF540F249019
:1005AA00D43440D4FF300D0BEF24BFB41A005003EB
:1005BA002461FFE516600215160519E51970020592
:1005CA001830100E9000E9E475F001120B4EEF029C
:1005DA000B3C020E1E7403D2108003E4C210F51500
:1005EA009000E9120B65E4F516F518F519E51660A1
:1005FA00077F201205BD80F57517FFC20AC209C21E
:10060A000BC20CC20EC20FC211120589FF700D3047
:10061A0010057F001205CEAF19AE1822B4255FC2AD
:10062A00D5C20D120589FF24D0B40A00501A75F0FC
:10063A000A781630D50508B6FF0106C6A426F620A4
:10064A00D5047002D20C80D924CFB41A00EF50041A
:10065A00C2E5D20D0207CFD20A80C6D20980C0D223
:10066A000B80BCD2D580BAD20E80B47F201205BDD1
:10067A00200B077401B5160040F112057AFF120526
:10068A00BD0205F7D211D20F809512057AFB120529
:10069A007AFA12057AF94A4B700679A07A087BFF32
:1006AA00200B2EE516602A7E008E82758300120BBF
:1006BA000F60060EEE651770F0C2D5EBC0E0EAC017
:1006CA00E0E9C0E0EE120816D0E0F9D0E0FAD0E096
:1006DA00FB120AF6FF60AAEBC0E0EAC0E0E9C0E05C
:1006EA001205BDD0E02401F9D0E03400FAD0E0FBD5
:1006FA00E5170460DCD517D980877BFF7A08791261
:10070A00D20B809C791080027908C20FC21180082E
:10071A00D2D5790A8004790AC2D5E517047002F5A0
:10072A0017E4FAFDFEFF12057AFC7B08200A131271
:10073A00057AFD7B1030090A12057AFE12057AFF46
:10074A007B20EC3382D592D55013C3E43009069F3F
:10075A00FFE49EFEE4200A039DFDE49CFCE4CBF842
:10076A00C20AEC700CCFCECDCCE824F8F870F38036
:10077A0017C3EF33FFEE33FEED33FDEC33FCEB33FF
:10078A00FB994002FB0FD8E9EB300A05F8D0E0C428
:10079A0048B20AC0E00AEC4D4E4F78207B0070C286
:1007AA00EAB5170040BCC0E0120818D0F0D0E0202B
:1007BA000A04C4C0E0C4B20AC0F01205A6D0F0D53B
:1007CA00F0EB0205F7120B6E069453070E580665F6
:1007DA004C06614207124F071A44071A49067A4320
:0807EA0007205507044607042F
:1007F2004507044708C05006692D066D2E06902B4A
:10080200067123068E2008A92A06294800000688B8
:100812003F3F3F00790AA2D5200C14300E09B910CF
:10082200020404B9080104A2D5200F0250010420D9
:100832000B68920BB516005034C0E07F20300C19C3
:100842007F30A20B720F720E500F12086FC20BC2D2
:100852000FC20EC2117F30800F300E03E9C0E012CA
:1008620005BD300E03D0E0F9D0E0B516CC300E173E
:100872007F30B9100C1205BD7F58300D077F78808C
:1008820003B908031205BD300B057F2D0205BD7F9C
:10089200202011F87F2B200FF322920B80CF286E9D
:1008A200756C6C2900D20A12057A300AF8C20A78ED
:1008B2001630D50108F60206292D50434958120573
:1008C2007A2403B405004001E49008BB931205AEFC
:0D08D200743A1205AED20C75160402070E22
:100D0000020D80E493A3F8E493A34003F68001F27C
:100D100008DFF48029E493A3F85407240CC8C333F4
:100D2000C4540F4420C8834004F456800146F6DFC3
:100D3000E4800B010204081020408090003DE47E16
:100D4000019360BCA3FF543F30E509541FFEE493B8
:100D5000A360010ECF54C025E060A840B8E493A37F
:100D6000FAE493A3F8E493A3C8C582C8CAC583CAAA
:100D7000F0A3C8C582C8CAC583CADFE9DEE780BE62
:0100410000BE
:100AF600BB010689828A83E0225002E722BBFE02FE
:090B0600E32289828A83E4932230
:100B0F00BB010CE58229F582E5833AF583E022509B
:100B1F0006E92582F8E622BBFE06E92582F8E222E5
:0D0B2F00E58229F582E5833AF583E49322FF
:100B3C00BB010689828A83F0225002F722BBFE0198
:020B4C00F32292
:100B4E00F8E0FBA3A3E0F925F0F0E5821582700230
:070B5E001583E0FA38F022D4
:090B6500EBF0A3EAF0A3E9F02291
:100B6E00D083D082F8E4937012740193700DA3A316
:100B7E0093F8740193F5828883E47374029368602A
:060B8E00EFA3A3A380DF2A
:100E1E00EFB40A07740D120E29740A309811A899AE
:100E2E00B8130CC2983098FDA899C298B811F63034
:070E3E0099FDC299F599220C
:00000001FF
