:100B9D004C69676874206F6E204E756D204C6F63C5
:100BAD006B204C4544210A004C69676874206F66C0
:100BBD0066204E756D204C6F636B204C4544210AA9
:100BCD000053455420434F4E4649472E0A00576166
:100BDD006B650A00456E61626C652052656D6F74C0
:100BED00652057616B6575702E0A004572724570F0
:100BFD0030526571436F64653D253032580A0045AA
:100C0D007272456E6470496E740A00556E6B6E6F2C
:100C1D00776E496E740A002563004B4D204465764E
:100C2D00696365207374617274202E2E2E0A001272
:100C3D0001100100000008861AE1E6000101020022
:100C4D0001040309040E037700630068002E00639E
:100C5D00006E000C034300480035003400350005DC
:100C6D00010906A101050719E029E7150025017500
:100C7D00019508810295017508810195037501059E
:100C8D0008190129039102950575019101950675C4
:100C9D000826FF000507190029918100C0050109EB
:100CAD0002A1010901A1000509190129031500255A
:100CBD0001750195038102750595018101050109F4
:100CCD0030093109381581257F750895038106C0D6
:100CDD00C009023B00020100A0320904000001031B
:100CED00010100092111010001223E0007058103C8
:100CFD0008000A0904010001030102000921100185
:0C0D0D0000012234000705820304000AE4
:0C104B0041007D0041007E0041007A0061
:0E103D0053D1FB7F027E00120FFD43D104222F
:0900030004F0FB7A0079727D081B
:10000C00900044EDF0FF7E00EBC0E0EAC0E0E9C0F8
:10001C00E0740AF87400FC7401FDD0E0F9D0E0FA49
:10002C00D0E0FB12098C900044E0F5D353D2FC22B3
:090F830004F0FB7A00797F7D0483
:100F8C00900044EDF0FF7E00EBC0E0EAC0E0E9C069
:100F9C00E07414F87400FC7401FDD0E0F9D0E0FAB0
:100FAC00D0E0FB12098C900044E0F5D553D4FC2220
:0300430002004672
:0D004600C0E0C0F0C083C082C0D075D008FB
:1000530020D903020512E5D954BF700302012A24F3
:10006300E0604714602E24A1700302012A24E0609B
:10007300391460201460072480600302015B75D586
:100083000063D44090007EE4F0E5D454FC4402F5D0
:10009300D402050E75D30063D24090007DE4F0E5F1
:1000A300D254FC4402F5D202050E90006CE024FB0E
:1000B300605D14706990006DE0FEA3E0FFC39408D7
:1000C300EE940040067D08EDFF800090001AEFF0EB
:1000D3007E007400F87400FC7401FD90006FE0FB77
:1000E300A3E0FAA3E0F912098C90001AE0FFFD7C6B
:1000F30000C390006EE09DF090006DE09CF09000D6
:1001030070EC8DF01209B28FDD63DC4002050E90B6
:10011300006DA3E0FFE5E354804FF5E3800375DD55
:100123000075DC0202050E90001AE5DBF090006C0E
:10013300E06409701D900000E060087BFF7A0B7992
:100143009D800C900000E070097BFF7A0B79B5125B
:1001530005C263DC8002050EE5D954B064B06003C8
:1001630002050575DCC0900007E0FDFE900006E087
:100173007A002400FFEA3E90006DF0A3EFF09000B8
:100183001AE4F0900001E090006CF0ED700FD39052
:10019300006EE0947F90006DE09400400990006D44
:1001A300E4F0A3747FF090001AE4F0900000E054B0
:1001B30060601A90006CE01424FD40030204D5240F
:1001C300FB24FD40030204D5800002047390006CFD
:1001D300E0B40B0040030204BA9001E3F82828734B
:1001E3000204970203950204BA0203EC0204BA0262
:1001F300034C0202040204BA02035C020379020400
:100203007B900003E024FE602814603C24E170032B
:1002130002029C242160030202D990006F74FFF054
:10022300A3740CF0A3743CF090001A7412F0020251
:10023300DF90006F74FFF0A3740CF0A374DEF090F2
:10024300001A743BF00202DF900002E0603324FEE8
:10025300601904704290006F74FFF0A3740CF0A354
:100263007452F090001A740EF0807190006F74FF56
:10027300F0A3740CF0A37460F090001A740CF08077
:100283005B90006F74FFF0A3740CF0A3744EF090B6
:10029300001A7404F08045803D900004E0FF7E0066
:1002A300701690006F74FFF0A3740CF0A3746CF0DD
:1002B30090001A743EF08024EF64014E7016900093
:1002C3006F74FFF0A3740CF0A374AAF090001A7477
:1002D30034F08008800090001A74FFF090001AE058
:1002E300FF7E00D390006EE09F90006DE09E40057E
:1002F300EEF0A3EFF090006DE0FEA3E0FFC39408DF
:10030300EE940040067D08EDFF800090001AEFF0A8
:100313007E007400F87400FC7401FD90006FE0FB34
:10032300A3E0FAA3E0F912098C90001AE0FF7E0023
:10033300C390006EE09FF090006DE09EF09000701F
:10034300EE8FF01209B20204D5900002E0FF900094
:100353006DE4F0A3EFF00204D590007BE090000081
:10036300F0C390006EE0940190006DE094005003A0
:100373000204D502048F900002E090007BF070032A
:100383000204D57BFF7A0B79CE1205C2900083025B
:100393000492900000E0541FFF7E006402703690C8
:1003A3000004E01460261460122481601414702287
:1003B300E5D454BC4402F5D40204D553D4730204E7
:1003C300D5E5D254BC4402F5D20204D553D273020C
:1003D30004D5020473EF4E700D90007AF07BFF7A20
:1003E3000B79DB0204D2020473900000E0541F7007
:1003F3002A900003E0FE900002E0FDED64014E70E0
:1004030018900CE59330E50F90007A7401F07BFFB0
:100413007A0B79E10204D280578055900000E054B2
:100423001F6402704B900003E0FE900002E0FDEDBC
:100433004E703B900005E0FE900004E0FDEDFFEE02
:10044300702AEF24FE60112481601714701EE5D416
:1004530054BF4403F5D4807AE5D4547F440CF5D4D7
:100463008070E5D254BF4403F5D2806680028000D9
:1004730090001A74FFF0805A900000E4F0C39000DB
:100483006EE0940190006DE09400404690001A7471
:1004930001F0803E900000E4F0A3F090006DE0FED8
:1004A300A3E0FFC39402EE940090001A4005740287
:1004B300F0801FEFF0801B90001A74FFF0FB7A0BA3
:1004C30079F890006CE0FF900047E4F0A3EFF0129E
:1004D30005C290001AE0FF7E00F4700B90006C746C
:1004E300FFF075DCCF8024D3EF9408EE6480948012
:1004F300500890001AE0F5DD800375DD0075DCC05F
:1005030080097BFF7A0C790C1205C2C2D980343082
:10051300D81975DC0275D20275D40275E300C2DA0C
:10052300C2D9900083E4F0C2D8801830DA09C2DA65
:10053300E5DA30E20E800C7BFF7A0C79181205C2E3
:0905430075D8FF30D903020059FC
:0B054C00D0D0D082D083D0F0D0E032BD
:100EEB00C2EAE4F5E2F5D3F5D59021E0E054F3F056
:100EFB00E054EF4440F0A3E054FE4404F07400FED1
:100F0B0074008EEDF5EC7400FE740A8EEFF5EE7442
:100F1B0000FE74148EE5F5E4E4F5E353D1F743D109
:100F2B000443E24043E22843D10175D8FFA3740781
:040F3B00F0D2EA22E4
:100D1900121062900043EFF07BFF7A0C7924900067
:100D290047F01205C290007AE0600302103D90007E
:100D390043E024BF604D24F06065146020240670F0
:100D49007B90007F7401F090007EE070FA120F83AF
:100D5900E490007FF090007EE070FA801A90007FA6
:100D69007402F090007EE070FA120F83E490007F25
:100D7900F090007EE070FA04F0FB7A00797F7D0440
:100D8900020F8C9000747404F090007DE070FA12E8
:100D99000003E4900074F090007DE070FA801A90EE
:100DA90000747439F090007DE070FA120003E49049
:0C0DB9000074F090007DE070FA1200035E
:010DC500220B
:100F3F0012102B7F147E00120FFD120DC67BFF7A4D
:100F4F000C79271205C2120EEBD2AF7E007F087DFF
:100F5F00007B017A007972120AD37E007F047D0034
:100F6F007B017A00797F120AD3900083E060FA1236
:040F7F000D1980F5D3
:10102B0075A15575A1AAE5B954F84405F5B9E4F5D0
:02103B00A122F0
:100FE300EF4E601505A105A105A105A105A105A168
:0A0FF30005A1EF1F70EA1E80E7223F
:100FFD00AD07AC06ED4C600E7FE87E03120FE3EDFE
:07100D001D70F11C80EE22B2
:08106C009021E9E04410F0229C
:100DC600C29FD29EC29DC2CDC2CC438780900043B3
:100DD600120AA200000082E47B0AFAF9F8900043A6
:100DE600E0FCA3E0FDA3E0FEA3E0FF120A049000EE
:100DF60047EBF0900043E0FCA3E0FDA3E0FEA3E098
:100E0600FFE47B0AFAF9F8120A04900043120A96E4
:100E1600900047E0C3940574809480401F9000437F
:100E2600E0FCA3E0FDA3E0FEA3E02401FFE43EFE18
:100E3600E43DFDE43CFC900043120A96E589540F1C
:100E46004420F58943C9A0900043A3A3A3E0F4047A
:080E5600F58DD28ED299D29CD9
:010E5E002271
:081074003098FDC298AF9922EB
:08107C008F993099FDC2992201
:1010140075A15575A1AAEF600543B101800353B1D1
:07102400FEE4F5A1F5FF2237
:03003C008FFF2211
:0A10580075A15575A1AA43B110223D
:03000000020E5F8E
:0C0E5F00787FE4F6D8FD758122020EA613
:1008BC00E709F608DFFA8046E709F208DFFA803E1E
:1008CC0088828C83E709F0A3DFFA8032E309F6080B
:1008DC00DFFA8078E309F208DFFA807088828C8373
:1008EC00E309F0A3DFFA806489828A83E0A3F60827
:1008FC00DFFA805889828A83E0A3F208DFFA804C01
:10090C0080D280FA80C680D4806980F280338010D7
:10091C0080A680EA809A80A880DA80E280CA803340
:10092C0089828A83ECFAE493A3C8C582C8CCC583B8
:10093C00CCF0A3C8C582C8CCC583CCDFE9DEE78088
:10094C000D89828A83E493A3F608DFF9ECFAA9F007
:10095C00EDFB2289828A83ECFAE0A3C8C582C8CC5D
:10096C00C583CCF0A3C8C582C8CCC583CCDFEADE76
:10097C00E880DB89828A83E493A3F208DFF980CCD8
:10098C0088F0EF60010E4E60C388F0ED2402B404D1
:10099C000050B9F582EB2402B4040050AF23234578
:0609AC00822390090C7388
:1009B200C5F0F8A3E028F0C5F0F8E58215827002D0
:0609C2001583E038F0226D
:1009C80075F008758200EF2FFFEE33FECD33CDCCE6
:1009D80033CCC58233C5829BED9AEC99E582984069
:1009E8000CF582EE9BFEED9AFDEC99FC0FD5F0D646
:1009F800E4CEFBE4CDFAE4CCF9A88222B800C1B970
:100A08000059BA002DEC8BF084CFCECDFCE5F0CBAD
:100A1800F97818EF2FFFEE33FEED33FDEC33FCEBE6
:100A280033FB10D703994004EB99FB0FD8E5E4F9A1
:100A3800FA227818EF2FFFEE33FEED33FDEC33FC8E
:100A4800C933C910D7059BE99A4007EC9BFCE99A82
:100A5800F90FD8E0E4C9FAE4CCFB2275F010EF2FC7
:100A6800FFEE33FEED33FDCC33CCC833C810D707C7
:100A78009BEC9AE899400AED9BFDEC9AFCE899F802
:0E0A88000FD5F0DAE4CDFBE4CCFAE4C8F92295
:0C0A9600ECF0A3EDF0A3EEF0A3EFF022D3
:100AA200A8828583F0D083D082120AB9120AB912C1
:100AB2000AB9120AB9E473E493A3C583C5F0C583E6
:100AC200C8C582C8F0A3C583C5F0C583C8C582C89E
:010AD2002201
:10055700E5152447F582E43400F583E0051522907C
:100567000044301003900047E475F001120B570266
:100577000AFF2009E97F2ED2098018EF540F249033
:10058700D43440D4FF300D0BEF24BFB41A0050030E
:100597002461FFE516600215160519E519700205B5
:1005A7001830100E900044E475F001120B57EF025B
:1005B7000B45020FBC7403D2108003E4C210F5157B
:1005C700900044120B6EE4F516F518F519E5166060
:1005D700077F2012059A80F57517FFC20AC209C264
:1005E7000BC20CC20EC20FC211120566FF700D308E
:1005F70010057F001205ABAF19AE1822B4255FC2F4
:10060700D5C20D120566FF24D0B40A00501A75F042
:100617000A781630D50508B6FF0106C6A426F620C7
:10062700D5047002D20C80D924CFB41A00EF50043D
:10063700C2E5D20D0207ACD20A80C6D20980C0D269
:100647000B80BCD2D580BAD20E80B47F2012059A17
:10065700200B077401B5160040F1120557FF12056C
:100667009A0205D4D211D20F8095120557FB1205B5
:1006770057FA120557F94A4B7006797D7A087BFFBE
:10068700200B2EE516602A7E008E82758300120BE2
:100697001860060EEE651770F0C2D5EBC0E0EAC031
:1006A700E0E9C0E0EE1207F3D0E0F9D0E0FAD0E0DD
:1006B700FB120AFFFF60AAEBC0E0EAC0E0E9C0E076
:1006C70012059AD0E02401F9D0E03400FAD0E0FB1B
:1006D700E5170460DCD517D980877BFF7A0779EFA8
:1006E700D20B809C791080027908C20FC211800852
:1006F700D2D5790A8004790AC2D5E517047002F5C4
:1007070017E4FAFDFEFF120557FC7B08200A1312B7
:100717000557FD7B1030090A120557FE120557FFD2
:100727007B20EC3382D592D55013C3E43009069F62
:10073700FFE49EFEE4200A039DFDE49CFCE4CBF865
:10074700C20AEC700CCFCECDCCE824F8F870F38059
:1007570017C3EF33FFEE33FEED33FDEC33FCEB3322
:10076700FB994002FB0FD8E9EB300A05F8D0E0C44B
:1007770048B20AC0E00AEC4D4E4F78207B0070C2A9
:10078700EAB5170040BCC0E01207F5D0F0D0E02072
:100797000A04C4C0E0C4B20AC0F0120583D0F0D581
:1007A700F0EB0205D4120B7706715306EB5806429D
:1007B7004C063E4206EF4F06F74406F749065743F5
:0807C70006FD5506E14606E1BE
:1007CF004506E147089D5006462D064A2E066D2B1D
:1007DF00064E23066B2008862A060648000006658B
:1007EF003F3F3F00790AA2D5200C14300E09B910F3
:1007FF00020404B9080104A2D5200F0250010420FD
:10080F000B68920BB516005034C0E07F20300C19E6
:10081F007F30A20B720F720E500F12084CC20BC218
:10082F000FC20EC2117F30800F300E03E9C0E012ED
:10083F00059A300E03D0E0F9D0E0B516CC300E1784
:10084F007F30B9100C12059A7F58300D077F7880D2
:10085F0003B9080312059A300B057F2D02059A7F05
:10086F00202011F87F2B200FF322920B80CF286EC0
:10087F00756C6C2900D20A120557300AF8C20A7833
:10088F001630D50108F60206062D504349581205B9
:10089F00572403B405004001E49008989312058B88
:0D08AF00743A12058BD20C7516040206EB8C
:0A1062003098FDAF99C2987E00227D
:100AD300EF4E6012EF60010EEDBB010B89828A833A
:100AE300F0A3DFFCDEFA2289F05007F709DFFCA947
:0C0AF300F022BBFEFCF309DFFCA9F0229E
:100E6B00020F3FE493A3F8E493A34003F68001F24F
:100E7B0008DFF48029E493A3F85407240CC8C33388
:100E8B00C4540F4420C8834004F456800146F6DF57
:100E9B00E4800B010204081020408090104BE47E8C
:100EAB00019360BCA3FF543F30E509541FFEE4934C
:100EBB00A360010ECF54C025E060A840B8E493A313
:100ECB00FAE493A3F8E493A3C8C582C8CAC583CA3E
:100EDB00F0A3C8C582C8CAC583CADFE9DEE780BEF6
:011057000098
:100AFF00BB010689828A83E0225002E722BBFE02F5
:090B0F00E32289828A83E4932227
:100B1800BB010CE58229F582E5833AF583E0225092
:100B280006E92582F8E622BBFE06E92582F8E222DC
:0D0B3800E58229F582E5833AF583E49322F6
:100B4500BB010689828A83F0225002F722BBFE018F
:020B5500F32289
:100B5700F8E0FBA3A3E0F925F0F0E5821582700227
:070B67001583E0FA38F022CB
:090B6E00EBF0A3EAF0A3E9F02288
:100B7700D083D082F8E4937012740193700DA3A30D
:100B870093F8740193F5828883E473740293686021
:060B9700EFA3A3A380DF21
:100FBC00EFB40A07740D120FC7740A309811A89970
:100FCC00B8130CC2983098FDA899C298B811F63095
:070FDC0099FDC299F599226D
:00000001FF
