:100A6500457272457030526571547970653D253017
:100A750032580A00457272457030526571436F6491
:100A8500653D253032580A00457272456E647049DD
:100A95006E740A00736C6565700A00556E6B6E6F37
:100AA500776E496E740A005374617274204043680E
:100AB500697049443D253032580A0012011001FF82
:100AC50080550848433755000101020001090227F6
:100AD5000001010080320904000003FF8055000772
:100AE500058202400000070502024000000705815B
:100AF50003400000040309040E0377006300680047
:100B05002E0063006E000C034300480035003400DE
:020B15003500A9
:040D0200410121008A
:0300430002004672
:0D004600C0E0C0F0C083C082C0D075D008FB
:10005300C29220D9030203DEE5D954BF1209C701B6
:10006300570000840200DF2000D12100C322015782
:100073008000848200DFA000D1A100C3A2000001A0
:100083006220DE030203DA63D4809000CAE5DBF06A
:10009300E4FF9000CAE0FEEFC39E501C744A2FF5A4
:1000A30082E43400F583E0F4FD748A2FF582E434AE
:1000B30000F583EDF00F80DA8ED553D4FC0203DA1A
:1000C30063D440E5D454FC4402F5D40203DA63D28A
:1000D30040E5D254FC4402F5D20203DA90011CE05D
:1000E30024FB605D14706890011DE0FFC3940874E5
:1000F30080948040067E08EEFF80009000CAEFF0F7
:100103007E007400F87400FC7401FD90011EE0FB96
:10011300A3E0FAA3E0F912088090011DE0FF90002C
:10012300CAE0FEC3EF9E90011DF0EEFF90011FE4B5
:100133008FF01208A69000CAE0F5DD63DC400203ED
:10014300DAE5E35480FF90011DE04FF5E3800A7583
:10015300DD00800590011CE0FF75DC020203DAE597
:10016300D954B064B060030203D175DCC0900006BB
:10017300E090011DF0900007E0700D90011DE0D3A9
:10018300947F74809480400690011D747FF09000EA
:10019300CAE4F0900000E0FF5460600E9000CA745F
:1001A300FFF0FB7A0A7965020396900001E0900163
:1001B3001CF0700302036514700302030A24FC702D
:1001C300030202D124FD70030202DC147003020255
:1001D300F614700302034B240460030203869000A9
:1001E30003E024FE601D1460302402707B90011E26
:1001F30074FFF0A3740AF0A374C0F09000CA7412E1
:10020300F0806B90011E74FFF0A3740AF0A374D204
:10021300F09000CA7427F08055900002E060332408
:10022300FE601904704290011E74FFF0A3740AF07B
:10023300A374FDF09000CA740EF0803290011E7416
:10024300FFF0A3740BF0A3740BF09000CA740CF0CE
:10025300801C90011E74FFF0A3740AF0A374F9F0DC
:100263009000CA7404F080069000CA74FFF09000F6
:10027300CAE0FF90011DE0D39F4002EFF090011D03
:10028300E0FFC394087480948040067E08EEFF80EC
:10029300009000CAEFF07E007400F87400FC740153
:1002A300FD90011EE0FBA3E0FAA3E0F912088090A1
:1002B300011DE0FF9000CAE0FEC3EF9E90011DF018
:1002C300EEFF90011FE48FF01208A60203A1900035
:1002D30002E090011DF00203A1900121E0900000D3
:1002E300F090011DE0C394017480948050030203D5
:1002F300A18067900002E0900121F06005C29102A5
:1003030003A1D2910203A1900000E0541F64027084
:100313002F900004E01460231460112481601214F0
:10032300701EE5D454BC4402F5D4807253D4738058
:100333006DE5D254BC4402F5D2806353D273805E20
:100343009000CA74FFF08056900000E4F090011D05
:10035300E0C394017480948040449000CA7401F017
:10036300803C900000E4F0A3F090011DE0FFC394F3
:1003730002748094809000CA40057402F0801FEFDD
:10038300F0801B9000CA74FFF0FB7A0A7979900120
:100393001CE0FF9000F7E4F0A3EFF01204B6900026
:1003A300CAE0FF7E00F4700B90011C74FFF075DC53
:1003B300CF8024D3EF9408EE64809480500890009B
:1003C300CAE0F5DD800375DD0075DCC080097BFFC5
:1003D3007A0A798D1204B6C2D9805A30D81675DCE0
:1003E3000275D20275D40275E300D291C2DAC2D982
:1003F300C2D8804130DA32C2DAE5DA30E2277BFF55
:100403007A0A79991204B6D293E5A220E7FB75A183
:100413005575A1AA75A98143870275A15575A1AA2E
:1004230075A9008010C293800C7BFF7A0A79A01211
:0D04330004B675D8FF30D90302005BD292E9
:0B044000D0D0D082D083D0F0D0E032CA
:100C3C00C2EAD291C293E4F5E29021E07440F0A3B1
:100C4C00740CF07400FE74008EEDF5EC7400FE7400
:100C5C000A8EEFF5EE7400FE744A8EE5F5E4E4F5C9
:100C6C00E353D1F775E22843D10175D8FFA374077C
:040C7C00F0D2EA22A6
:100C8000120B177BFF7A0A79ACAFA19000F7E4F062
:0D0C9000A3EFF01204B6120C3CD2AF80FEB0
:100CCE0075A15575A1AAE5B954F84405F5B9E4F531
:020CDE00A12251
:100C9D00EF4E601505A105A105A105A105A105A1B1
:0A0CAD0005A1EF1F70EA1E80E72288
:10002A00AD07AC06ED4C600E7FE87E03120C9DED29
:07003A001D70F11C80EE2295
:080CEA009021E9E04410F02222
:100B1700C29FD29EC29DC2CDC2CC4387809000F4B3
:100B270012099600000082E47B0AFAF9F89000F4B3
:100B3700E0FCA3E0FDA3E0FEA3E0FF1208F89000AD
:100B4700F8EBF09000F4E0FCA3E0FDA3E0FEA3E0E7
:100B5700FFE47B0AFAF9F81208F89000F412098A00
:100B67009000F8E0C3940574809480401F9000F4CF
:100B7700E0FCA3E0FDA3E0FEA3E02401FFE43EFECA
:100B8700E43DFDE43CFC9000F412098AE589540F2A
:100B97004420F58943C9A09000F4A3A3A3E0F4047B
:080BA700F58DD28ED299D29C8B
:010BAF002223
:080CF2003098FDC298AF992271
:080CFA008F993099FDC2992287
:100CB70075A15575A1AAEF600543B101800353B132
:070CC700FEE4F5A1F5FF2298
:030D07008FFF2239
:0A0CE00075A15575A1AA43B11022B9
:03000000020BB040
:0C0BB000787FE4F6D8FD758122020BF777
:1007B000E709F608DFFA8046E709F208DFFA803E2B
:1007C00088828C83E709F0A3DFFA8032E309F60818
:1007D000DFFA8078E309F208DFFA807088828C8380
:1007E000E309F0A3DFFA806489828A83E0A3F60834
:1007F000DFFA805889828A83E0A3F208DFFA804C0E
:1008000080D280FA80C680D4806980F280338010E4
:1008100080A680EA809A80A880DA80E280CA80334D
:1008200089828A83ECFAE493A3C8C582C8CCC583C5
:10083000CCF0A3C8C582C8CCC583CCDFE9DEE78095
:100840000D89828A83E493A3F608DFF9ECFAA9F014
:10085000EDFB2289828A83ECFAE0A3C8C582C8CC6A
:10086000C583CCF0A3C8C582C8CCC583CCDFEADE83
:10087000E880DB89828A83E493A3F208DFF980CCE5
:1008800088F0EF60010E4E60C388F0ED2402B404DE
:100890000050B9F582EB2402B4040050AF23234585
:0608A000822390080073A2
:1008A600C5F0F8A3E028F0C5F0F8E58215827002DD
:0608B6001583E038F0227A
:1008BC0075F008758200EF2FFFEE33FECD33CDCCF3
:1008CC0033CCC58233C5829BED9AEC99E582984076
:1008DC000CF582EE9BFEED9AFDEC99FC0FD5F0D653
:1008EC00E4CEFBE4CDFAE4CCF9A88222B800C1B97D
:1008FC000059BA002DEC8BF084CFCECDFCE5F0CBBB
:10090C00F97818EF2FFFEE33FEED33FDEC33FCEBF3
:10091C0033FB10D703994004EB99FB0FD8E5E4F9AE
:10092C00FA227818EF2FFFEE33FEED33FDEC33FC9B
:10093C00C933C910D7059BE99A4007EC9BFCE99A8F
:10094C00F90FD8E0E4C9FAE4CCFB2275F010EF2FD4
:10095C00FFEE33FEED33FDCC33CCC833C810D707D4
:10096C009BEC9AE899400AED9BFDEC9AFCE899F80F
:0E097C000FD5F0DAE4CDFBE4CCFAE4C8F922A2
:0C098A00ECF0A3EDF0A3EEF0A3EFF022E0
:10099600A8828583F0D083D0821209AD1209AD12E8
:1009A60009AD1209ADE473E493A3C583C5F0C5830D
:1009B600C8C582C8F0A3C583C5F0C583C8C582C8AB
:0109C600220E
:1009C700D083D082F8E4937012740193700DA3A3BF
:1009D70093F8740193F5828883E4737402936860D3
:0609E700EFA3A3A380DFD3
:10044B00E51524F7F582E43400F583E005152290D9
:10045B0000F43010039000F7E475F001120A450226
:10046B0009ED2009E97F2ED2098018EF540F249053
:10047B00D43440D4FF300D0BEF24BFB41A0050031B
:10048B002461FFE516600215160519E519700205C2
:10049B001830100E9000F4E475F001120A45EF02CB
:1004AB000A330200037403D2108003E4C210F51563
:1004BB009000F4120A5CE4F516F518F519E51660D0
:1004CB00077F2012048E80F57517FFC20AC209C27E
:1004DB000BC20CC20EC20FC21112045AFF700D30A8
:1004EB0010057F0012049FAF19AE1822B4255FC20E
:1004FB00D5C20D12045AFF24D0B40A00501A75F05D
:10050B000A781630D50508B6FF0106C6A426F620D4
:10051B00D5047002D20C80D924CFB41A00EF50044A
:10052B00C2E5D20D0206A0D20A80C6D20980C0D283
:10053B000B80BCD2D580BAD20E80B47F2012048E31
:10054B00200B077401B5160040F112044BFF120487
:10055B008E0204C8D211D20F809512044BFB1204E9
:10056B004BFA12044BF94A4B700679717A077BFFF1
:10057B00200B2EE516602A7E008E82758300120AF0
:10058B000660060EEE651770F0C2D5EBC0E0EAC050
:10059B00E0E9C0E0EE1206E7D0E0F9D0E0FAD0E0F7
:1005AB00FB1209EDFF60AAEBC0E0EAC0E0E9C0E096
:1005BB0012048ED0E02401F9D0E03400FAD0E0FB35
:1005CB00E5170460DCD517D980877BFF7A0679E3C2
:1005DB00D20B809C791080027908C20FC21180085F
:1005EB00D2D5790A8004790AC2D5E517047002F5D1
:1005FB0017E4FAFDFEFF12044BFC7B08200A1312D2
:10060B00044BFD7B1030090A12044BFE12044BFF06
:10061B007B20EC3382D592D55013C3E43009069F6F
:10062B00FFE49EFEE4200A039DFDE49CFCE4CBF872
:10063B00C20AEC700CCFCECDCCE824F8F870F38066
:10064B0017C3EF33FFEE33FEED33FDEC33FCEB332F
:10065B00FB994002FB0FD8E9EB300A05F8D0E0C458
:10066B0048B20AC0E00AEC4D4E4F78207B0070C2B6
:10067B00EAB5170040BCC0E01206E9D0F0D0E0208C
:10068B000A04C4C0E0C4B20AC0F0120477D0F0D59B
:10069B00F0EB0204C81209C705655305DF58053690
:1006AB004C05324205E34F05EB4405EB49054B4343
:0806BB0005F15505D54605D5F2
:1006C3004505D547079150053A2D053E2E05612B6B
:1006D300054223055F20077A2A04FA4800000559DA
:1006E3003F3F3F00790AA2D5200C14300E09B91000
:1006F300020404B9080104A2D5200F02500104200A
:100703000B68920BB516005034C0E07F20300C19F3
:100713007F30A20B720F720E500F120740C20BC232
:100723000FC20EC2117F30800F300E03E9C0E012FA
:10073300048E300E03D0E0F9D0E0B516CC300E179E
:100743007F30B9100C12048E7F58300D077F7880EC
:1007530003B9080312048E300B057F2D02048E7F2C
:10076300202011F87F2B200FF322920B80CF286ECD
:10077300756C6C2900D20A12044B300AF8C20A784D
:100783001630D50108F60204FA2D504349581204D5
:100793004B2403B405004001E490078C9312047FBB
:0D07A300743A12047FD20C7516040205DFB3
:100BBC00020C80E493A3F8E493A34003F68001F2C3
:100BCC0008DFF48029E493A3F85407240CC8C3333A
:100BDC00C4540F4420C8834004F456800146F6DF09
:100BEC00E4800B0102040810204080900D02E47E8A
:100BFC00019360BCA3FF543F30E509541FFEE493FE
:100C0C00A360010ECF54C025E060A840B8E493A3C4
:100C1C00FAE493A3F8E493A3C8C582C8CAC583CAEF
:100C2C00F0A3C8C582C8CAC583CADFE9DEE780BEA7
:010D060000EC
:1009ED00BB010689828A83E0225002E722BBFE0208
:0909FD00E32289828A83E493223B
:100A0600BB010CE58229F582E5833AF583E02250A5
:100A160006E92582F8E622BBFE06E92582F8E222EF
:0D0A2600E58229F582E5833AF583E4932209
:100A3300BB010689828A83F0225002F722BBFE01A2
:020A4300F3229C
:100A4500F8E0FBA3A3E0F925F0F0E582158270023A
:070A55001583E0FA38F022DE
:090A5C00EBF0A3EAF0A3E9F0229B
:10000300EFB40A07740D12000E740A309811A89900
:10001300B8130CC2983098FDA899C298B811F6305D
:0700230099FDC299F5992235
:00000001FF
