:100E4E0075A15575A1AA43B98053B9BF75A1557542
:0E0E5E00A1AAE5B954F84407F5B9E4F5A122BC
:10000300EF4E602D05A105A105A105A105A105A13F
:1000130005A105A105A105A105A105A105A105A1AD
:1000230005A105A105A105A105A1EF1F70D21E80A1
:02003300CF22DA
:100E6C00AD07AC06ED4C600E7FE87E03120003ED7F
:070E7C001D70F11C80EE2245
:0E00350043C40C43C50C9021E9E04410F022B6
:100CDA00C29FD29EC29DC2CDC2CC438780E4753BDF
:100CEA0004753A01F539F5387B0AFAF9F8AF3BAEE3
:100CFA003AAD39AC38120900AF038F3CAF3BAE3A7C
:100D0A00AD39AC38E47B0AFAF9F81209008F3B8E48
:100D1A003A8D398C38E53CC394054011EF2401F52E
:100D2A003BE43EF53AE43DF539E43CF538E58954CF
:100D3A000F4420F58943C9A0E53BF404F58DD28E12
:040D4A00D299D29CCC
:010D4E002282
:0A0EA80075A15575A1AA43B11022EF
:100E830075A15575A1AAEF600543B101800353B164
:070E9300FEE4F5A1F5FF22CA
:030EC6008FFF2279
:100A4C004C69676874206F6E204E756D204C6F6317
:100A5C006B204C4544210A004C69676874206F6612
:100A6C0066204E756D204C6F636B204C4544210AFB
:100A7C000053455420434F4E4649472E0A005761B8
:100A8C006B652075700A00456E61626C652052655D
:100A9C006D6F74652057616B6575702E0A00457219
:100AAC0072457030526571436F64653D2530325824
:100ABC000A00457272456E6470496E740A00556E78
:100ACC006B6E6F776E496E740A002563004B4D2078
:100ADC00446576696365207374617274202E2E2EC2
:100AEC000A001201100100000008861AE1E600015C
:100AFC0001020001040309040E037700630068007F
:100B0C002E0063006E000C034300480035003500D6
:100B1C00350005010906A101050719E029E71500B3
:100B2C0025017501950881029501750881019503D0
:100B3C0075010508190129039102950575019101AB
:100B4C009506750826FF000507190029918100C03C
:100B5C0005010902A1010901A100050919012903D7
:100B6C00150025017501950381027505950181011B
:100B7C0005010930093109381581257F7508950360
:100B8C008106C0C009023B00020100A0320904002A
:100B9C00000103010100092111010001223E00079F
:100BAC0005810308000A0904010001030102000980
:0F0BBC0021100100012234000705820304000A02
:090EB200015E00015F00015B001C
:0E0E9A0053D1FB7F027E00120E6C43D1042266
:0B0E0C00755E017B007A0079537D08C1
:100E17008D39AF397E00780A7C007D0112089E85E6
:060E270039D353D2FC2276
:0B0E2D00755F017B007A0079607D0496
:100E38008D39AF397E0078147C007D0112089E85BB
:060E480039D553D4FC2251
:0300430002004672
:0D004600C0E0C0F0C083C082C0D075D008FB
:1000530020D90302042FE5D954BF700302010524FC
:10006300E0603D14602924A1700302010524E060CF
:100073002F14601B1460072480600302013075D5C0
:1000830000755F00E5D454FC4402F5D402042B75DB
:10009300D300755E00E5D254FC4402F5D202042B72
:1000A300E54D24FB6049147050C3E54F9408E54EB9
:1000B300940040047F088002AF4F8F237E007800B6
:1000C3007C007D01AB50AA51A95212089EAF237E3A
:1000D30000C3E54F9FF54FE54E9EF54EEF2552F5D4
:1000E30052EE3551F5518523DD63DC4002042BE5E7
:1000F300E35480454FF5E3800375DD0075DC0202B0
:10010300042B85DB23E54DB4091D900000E0600856
:100113007BFF7A0A794C800C900000E070097BFF2A
:100123007A0A79641204D463DC8002042BE5D9547F
:10013300B064B06003020422900007E0FDFE90006B
:1001430006E07A002400F54FEA3EF54E7523009051
:100153000001E0F54DED700BD3E54F947FE54E9430
:10016300004006754E00754F7F752300900000E038
:1001730054606018E54D1424FD400302040124FB80
:1001830024FD400302040180000203B9E54DB40BD2
:100193000040030203EF9001A0F82828730203D361
:1001A3000202E30203EF0203350203EF0202A40299
:1001B30001C10203EF0202B00202C70203BE9000B4
:1001C30003E024FE601914602424E16057242170A5
:1001D3007C7550FF75510A7552EE75231280717547
:1001E30050FF75510B75529075233B80639000024D
:1001F300E0602324FE60110470537550FF75510BAA
:1002030075520475230E80487550FF75510B755256
:100213001275230C803A7550FF75510B755200759A
:100223002304802C900004E0FF700E7550FF75517D
:100233000B75521E75233E8017EFB4010E7550FFE8
:1002430075510B75525C752334800580007523FF4F
:10025300AF237E00D3E54F9FE54E9E40048E4E8F25
:100263004FC3E54F9408E54E940040047F08800295
:10027300AF4F8F237E0078007C007D01AB50AA51E5
:10028300A95212089EAF237E00C3E54F9FF54FE5A9
:100293004E9EF54EEF2552F552EE3551F5510204BF
:1002A30001900002E0754E00F54F0204019000003A
:1002B300E55CF0C3E54F9401E54E9400500302045E
:1002C300010203CE900002E0F55CE55C70030204DA
:1002D300017BFF7A0A797D1204D47564010204015B
:1002E300900000E0541FFF64027036900004E01495
:1002F300602614601224816014147022E5D454BC67
:100303004402F5D402040153D473020401E5D25428
:10031300BC4402F5D202040153D273020401020366
:10032300B9EF700BF55B7BFF7A0A798A0203FE0251
:1003330003B9900000E0541F7027900003E0FE9083
:100343000002E0FDED64014E7015900B979330E5CC
:100353000C755B017BFF7A0A79930203FE80578059
:1003630055900000E0541F6402704B900003E0FEC0
:10037300900002E0FDED4E703B900005E0FE900022
:1003830004E0FDEDFFEE702AEF24FE60112481608E
:100393001714701EE5D454BF4403F5D48060E5D42C
:1003A300547F440CF5D48056E5D254BF4403F5D2B0
:1003B300804C800280007523FF8043900000E4F0AE
:1003C300C3E54F9401E54E94004033752301802E1D
:1003D300900000E4F0A3F0C3E54F9402E54E9400CF
:1003E30040057523028017854F2380127523FF7BF9
:1003F300FF7A0A79AA753C00854D3D1204D4E523A2
:10040300B4FF08754DFF75DCCF801DE523D3940839
:1004130050058523DD800375DD0075DCC080097B15
:10042300FF7A0A79BE1204D4C2D9803230D8177544
:10043300DC0275D21275D41275E300C2DAC2D97523
:100443006400C2D8801830DA09C2DAE5DA30E20E85
:10045300800C7BFF7A0A79CA1204D475D8FF30D98D
:040463000302005937
:0B046700D0D0D082D083D0F0D0E032A3
:100D4F00C2EAE4F5E2F5D3F5D59021E0E054F3F0F3
:100D5F00E054EF4440F0A3E054FE4404F075ED007E
:100D6F0075EC0075EF0075EE0A75E50075E4147506
:100D7F00DC0275D21275D412E4F5E353D1F743D1E7
:100D8F000443E24043E22843D10175D8FFA374071F
:040D9F00F0D2EA2282
:100C5700120EBC8F387BFF7A0A79D685383C12048E
:100C6700D4E55B6003020E9AE53824BF603D24F0AB
:100C7700604C14601724067059756001E55F70FCBD
:100C8700120E2DE4F560E55F70FC8011756002E5DA
:100C97005F70FC120E2DE4F560E55F70FC755F0177
:100CA7007B007A0079607D04020E38755504E55E95
:100CB70070FC120E0CE4F555E55E70FC801175555D
:100CC70039E55E70FC120E0CE4F555E55E70FC121A
:020CD7000E0C01
:010CD90022F8
:100DA300120E4E7F147E00120E6C120CDA7BFF7A49
:100DB3000A79D91204D4120D4FD2AF7E007F087D79
:100DC300007B007A0079531209927E007F047D0034
:100DD3007B007A007960120992E56460FC120C577B
:020DE30080F797
:03000000020BCB25
:0C0BCB00787FE4F6D8FD758164020C12FE
:1007CE00E709F608DFFA8046E709F208DFFA803E0D
:1007DE0088828C83E709F0A3DFFA8032E309F608FA
:1007EE00DFFA8078E309F208DFFA807088828C8362
:1007FE00E309F0A3DFFA806489828A83E0A3F60816
:10080E00DFFA805889828A83E0A3F208DFFA804CEF
:10081E0080D280FA80C680D4806980F280338010C6
:10082E0080A680EA809A80A880DA80E280CA80332F
:10083E0089828A83ECFAE493A3C8C582C8CCC583A7
:10084E00CCF0A3C8C582C8CCC583CCDFE9DEE78077
:10085E000D89828A83E493A3F608DFF9ECFAA9F0F6
:10086E00EDFB2289828A83ECFAE0A3C8C582C8CC4C
:10087E00C583CCF0A3C8C582C8CCC583CCDFEADE65
:10088E00E880DB89828A83E493A3F208DFF980CCC7
:10089E0088F0EF60010E4E60C388F0ED2402B404C0
:1008AE000050B9F582EB2402B4040050AF23234567
:0608BE00822390081E7366
:1008C40075F008758200EF2FFFEE33FECD33CDCCEB
:1008D40033CCC58233C5829BED9AEC99E58298406E
:1008E4000CF582EE9BFEED9AFDEC99FC0FD5F0D64B
:1008F400E4CEFBE4CDFAE4CCF9A88222B800C1B975
:100904000059BA002DEC8BF084CFCECDFCE5F0CBB2
:10091400F97818EF2FFFEE33FEED33FDEC33FCEBEB
:1009240033FB10D703994004EB99FB0FD8E5E4F9A6
:10093400FA227818EF2FFFEE33FEED33FDEC33FC93
:10094400C933C910D7059BE99A4007EC9BFCE99A87
:10095400F90FD8E0E4C9FAE4CCFB2275F010EF2FCC
:10096400FFEE33FEED33FDCC33CCC833C810D707CC
:100974009BEC9AE899400AED9BFDEC9AFCE899F807
:0E0984000FD5F0DAE4CDFBE4CCFAE4C8F9229A
:10047200E548243CF8E60548227839301002783CF9
:10048200E475F001120A160209BE2009EB7F2ED292
:10049200098018EF540F2490D43440D4FF300D0B50
:1004A200EF24BFB41A0050032461FFE5496002152E
:1004B20049054CE54C7002054B30100D7839E47556
:1004C200F001120A16EF020A04020DE57403D210BB
:1004D2008003E4C210F5488B398A3A893BE4F54936
:1004E200F54BF54CE54960077F201204AD80F575A8
:1004F2004AFFC20AC209C20BC20CC20EC20FC2110B
:1005020012047BFF700D3010057F001204BEAF4C49
:10051200AE4B22B4255FC2D5C20D12047BFF24D09C
:10052200B40A00501A75F00A784930D50508B6FFAA
:100532000106C6A426F620D5047002D20C80D92466
:10054200CFB41A00EF5004C2E5D20D0206BED20AA1
:1005520080C6D20980C0D20B80BCD2D580BAD20E5E
:1005620080B47F201204AD200B077401B54900400E
:10057200F1120472FF1204AD0204E6D211D20F800E
:1005820095120472FB120472FA120472F94A4B7049
:1005920006798F7A077BFF200B2EE549602A7E00C1
:1005A2008E827583001209D760060EEE654A70F0DE
:1005B200C2D5EBC0E0EAC0E0E9C0E0EE120705D028
:1005C200E0F9D0E0FAD0E0FB1209BEFF60AAEBC06E
:1005D200E0EAC0E0E9C0E01204ADD0E02401F9D0C5
:1005E200E03400FAD0E0FBE54A0460DCD54AD98069
:1005F200877BFF7A077901D20B809C791080027980
:1006020008C20FC2118008D2D5790A8004790AC2C1
:10061200D5E54A047002F54AE4FAFDFEFF120472BF
:10062200FC7B08200A13120472FD7B1030090A12A7
:100632000472FE120472FF7B20EC3382D592D550F5
:1006420013C3E43009069FFFE49EFEE4200A039DE3
:10065200FDE49CFCE4CBF8C20AEC700CCFCECDCC0E
:10066200E824F8F870F38017C3EF33FFEE33FEEDA2
:1006720033FDEC33FCEB33FB994002FB0FD8E9EB83
:10068200300A05F8D0E0C448B20AC0E00AEC4D4E88
:100692004F78207B0070C2EAB54A0040BCC0E0122D
:1006A2000707D0F0D0E0200A04C4C0E0C4B20AC0F8
:1006B200F0120496D0F0D5F0EB0204E6120A2605F9
:1006C200835305FD5805544C05504206014F060957
:0F06D20044060949056943060F5505F34605F32C
:1006E1004505F34707AF5005582D055C2E057F2BB7
:1006F100056023057D2007982A0518480000057725
:100701003F3F3F00790AA2D5200C14300E09B910E1
:10071100020404B9080104A2D5200F0250010420EB
:100721000B68920BB549005034C0E07F20300C19A2
:100731007F30A20B720F720E500F12075EC20BC2F6
:100741000FC20EC2117F30800F300E03E9C0E012DC
:1007510004AD300E03D0E0F9D0E0B549CC300E172E
:100761007F30B9100C1204AD7F58300D077F7880AF
:1007710003B908031204AD300B057F2D0204AD7FD0
:10078100202011F87F2B200FF322920B80CF286EAF
:10079100756C6C2900D20A120472300AF8C20A7808
:1007A1004930D50108F60205182D50434958120465
:1007B100722403B405004001E49007AA9312049E39
:0D07C100743A12049ED20C7549040205FD25
:0A0EBC003098FDAF99C2987E002225
:10099200EF4E6012EF60010EEDBB010B89828A837C
:1009A200F0A3DFFCDEFA2289F05007F709DFFCA989
:0C09B200F022BBFEFCF309DFFCA9F022E0
:100BD700020DA3E493A3F8E493A34003F68001F284
:100BE70008DFF48029E493A3F85407240CC8C3331F
:100BF700C4540F4420C8834004F456800146F6DFEE
:100C0700E4800B0102040810204080900EB2E47EBD
:100C1700019360BCA3FF543F30E509541FFEE493E2
:100C2700A360010ECF54C025E060A840B8E493A3A9
:100C3700FAE493A3F8E493A3C8C582C8CAC583CAD4
:100C4700F0A3C8C582C8CAC583CADFE9DEE780BE8C
:010EBB000036
:1009BE00BB010689828A83E0225002E722BBFE0237
:0909CE00E32289828A83E493226A
:1009D700BB010CE58229F582E5833AF583E02250D5
:1009E70006E92582F8E622BBFE06E92582F8E2221F
:0D09F700E58229F582E5833AF583E4932239
:100A0400BB010689828A83F0225002F722BBFE01D1
:020A1400F322CB
:100A1600FAE6FB0808E6F925F0F618E6CA3AF622E1
:100A2600D083D082F8E4937012740193700DA3A35F
:100A360093F8740193F5828883E473740293686073
:060A4600EFA3A3A380DF73
:100DE500EFB40A07740D120DF0740A309811A89922
:100DF500B8130CC2983098FDA899C298B811F6306E
:070E050099FDC299F5992245
:00000001FF
