:10020800E4F50A1206047F147E001205D612056F63
:100218009021D9E4F0A3F0A3F0D2AFFF75F004EF7A
:10022800A42400F582E5F03402F583747FF075F0BC
:1002380004EFA42401F582E5F03402F58374FFF09D
:1002480075F004EFA42402F582E5F03402F5837416
:100258007FF075F004EFA42403F582E5F03402F58D
:1002680083747FF00FEFB480B3E4FF75F004EFA45C
:100278002400F582E5F03400F583E4F075F004EF2E
:10028800A42401F582E5F03400F583E4F075F00468
:10029800EFA42402F582E5F03400F583E4F075F06C
:1002A80004EFA42403F582E5F03400F583E4F00FAD
:1002B800EFB480B77FC87E001205D67508007509AF
:1002C800007FC87E001205D67508027509007FC830
:1002D8007E001205D67508007509007FC87E0012D9
:1002E80005D67508027509007FC87E001205D67507
:1002F80008007509007FC87E001205D675080275CA
:100308000900C3E50A648094FF400690040574015F
:10031800F0D3E50A648094015005E4900405F09058
:100328000405E0AF0A6004150A8002050A9021DA84
:0B033800EFF07F0A7E001205D680C1A6
:10000300620000000000000000000000000000008B
:1000130000000000000000000000000000000000DD
:1000230000000000000000000000000000000000CD
:1000330000000000000000000000000000000000BD
:1000430000000000000000000000000000000000AD
:10005300000000000000000000000000000000009D
:10006300000000000000000000000000000000008D
:10007300000000000000000000000000000000007D
:10008300000000000000000000000000000000006D
:10009300000000000000000000000000000000005D
:1000A300000000000000000000000000000000004D
:1000B300000000000000000000000000000000003D
:1000C300000000000000000000000000000000002D
:1000D300000000000000000000000000000000001D
:1000E300000000000000000000000000000000000D
:1000F30000000000000000000000000000000000FD
:1001030000000000000000000000000000000000EC
:1001130000000000000000000000000000000000DC
:1001230000000000000000000000000000000000CC
:1001330000000000000000000000000000000000BC
:1001430000000000000000000000000000000000AC
:10015300000000000000000000000000000000009C
:10016300000000000000000000000000000000008C
:10017300000000000000000000000000000000007C
:10018300000000000000000000000000000000006C
:10019300000000000000000000000000000000005C
:1001A300000000000000000000000000000000004C
:1001B300000000000000000000000000000000003C
:1001C300000000000000000000000000000000002C
:1001D300000000000000000000000000000000001C
:1001E300000000000000000000000000000000000C
:1001F30000000000000000000000000000000000FC
:0402030000000000F7
:10056F007590FF75A0FF75C0FF75B0FF7580FFE434
:10057F00F592F594F5C2F596F5C49021D104F0A348
:10058F007410F0A37450F07E027F008E088F098ED6
:10059F00C78FC6C2009021D87405F075A7FE75A647
:0D05AF00FF9021D174FDF043F740D2ED2202
:1006040075A15575A1AAE5B954F84405F5B9E4F501
:02061400A12221
:1005BC00EF4E601505A105A105A105A105A105A199
:0A05CC0005A1EF1F70EA1E80E72270
:1005D600AD07AC06ED4C600E7FE87E031205BCED60
:0705E6001D70F11C80EE22E4
:080620009021E9E04410F022F2
:10044E00C29FD29EC29DC2CDC2CC43878090040073
:10045E0012041D00000082E47B0AFAF9F8900400F1
:10046E00E0FCA3E0FDA3E0FEA3E0FF12037F9004F7
:10047E0004EBF0900400E0FCA3E0FDA3E0FEA3E09B
:10048E00FFE47B0AFAF9F812037F900400120411BC
:10049E00900404E0C39405401F900400E0FCA3E028
:1004AE00FDA3E0FEA3E02401FFE43EFEE43DFDE4F7
:1004BE003CFC900400120411E589540F4420F58988
:1004CE0043C9A0900400A3A3A3E0F404F58DD28E3B
:0404DE00D299D29C41
:0104E20022F7
:080628003098FDC298AF992241
:080630008F993099FDC2992257
:1005ED0075A15575A1AAEF600543B101800353B103
:0705FD00FEE4F5A1F5FF2269
:030638008FFF220F
:0A06160075A15575A1AA43B1102289
:01063B00229C
:030000000204E314
:0C04E300787FE4F6D8FD75812002052A20
:1003430075F008758200EF2FFFEE33FECD33CDCC71
:1003530033CCC58233C5829BED9AEC99E5829840F4
:100363000CF582EE9BFEED9AFDEC99FC0FD5F0D6D1
:10037300E4CEFBE4CDFAE4CCF9A88222B800C1B9FB
:100383000059BA002DEC8BF084CFCECDFCE5F0CB39
:10039300F97818EF2FFFEE33FEED33FDEC33FCEB72
:1003A30033FB10D703994004EB99FB0FD8E5E4F92D
:1003B300FA227818EF2FFFEE33FEED33FDEC33FC1A
:1003C300C933C910D7059BE99A4007EC9BFCE99A0E
:1003D300F90FD8E0E4C9FAE4CCFB2275F010EF2F53
:1003E300FFEE33FEED33FDCC33CCC833C810D70753
:1003F3009BEC9AE899400AED9BFDEC9AFCE899F88E
:0E0403000FD5F0DAE4CDFBE4CCFAE4C8F92220
:0C041100ECF0A3EDF0A3EEF0A3EFF0225E
:10041D00A8828583F0D083D0821204341204341262
:10042D000434120434E473E493A3C583C5F0C58387
:10043D00C8C582C8F0A3C583C5F0C583C8C582C829
:01044D00228C
:1004EF00020208E493A3F8E493A34003F68001F219
:1004FF0008DFF48029E493A3F85407240CC8C3330E
:10050F00C4540F4420C8834004F456800146F6DFDC
:10051F00E4800B0102040810204080900003E47E69
:10052F00019360BCA3FF543F30E509541FFEE493D1
:10053F00A360010ECF54C025E060A840B8E493A398
:10054F00FAE493A3F8E493A3C8C582C8CAC583CAC3
:10055F00F0A3C8C582C8CAC583CADFE9DEE780BE7B
:0102070000F6
:00000001FF
