:101E5C0075A15575A1AA43B98053B9BF75A1557524
:0E1E6C00A1AAE5B954F84407F5B9E4F5A1229E
:101D9100EF4E602D05A105A105A105A105A105A194
:101DA10005A105A105A105A105A105A105A105A102
:101DB10005A105A105A105A105A1EF1F70D21E80F6
:021DC100CF222F
:101ECB00AD07AC06ED4C600E7FE87E03121D91ED65
:071EDB001D70F11C80EE22D6
:0E1F0F0043C40C43C50C9021E9E04410F022BD
:101A0A00C29FD29EC29DC2CDC2CC4387809000FEA7
:101A1A001214A600000104E47B0AFAF9F89000FE09
:101A2A00E0FCA3E0FDA3E0FEA3E0FF12140890018E
:101A3A0002EBF09000FEE0FCA3E0FDA3E0FEA3E0D1
:101A4A00FFE47B0AFAF9F81214089000FE12149ABD
:101A5A00900102E0C39405401F9000FEE0FCA3E061
:101A6A00FDA3E0FEA3E02401FFE43EFEE43DFDE425
:101A7A003CFC9000FE12149AE589540F4420F58923
:101A8A0043C9A09000FEA3A3A3E0F404F58DD28E6F
:041A9A00D299D29C6F
:011A9E002225
:0A1F5B0075A15575A1AA43B110222B
:101EE20075A15575A1AAEF600543B101800353B1F5
:071EF200FEE4F5A1F5FF225B
:031F65008FFF22C9
:101A9F00537461727420404368697049443D253026
:101AAF0032580A005761697420446576696365206E
:101ABF00496E0A00456E756D416C6C526F6F7444C0
:101ACF00657620657272203D20253032580A004D10
:101ADF006F75736520646174613A20007825303228
:101AEF005820000A004D6F757365206572726F7212
:101AFF0020253032780A004D6F757365206E6F2088
:101B0F00696E7465727275707420656E64706F693A
:041B1F006E740A00D6
:10121500121E5C121A0A7BFF7A1A799FAFA1900100
:1012250008E4F0A3EFF01208A3121CA9C2097BFF82
:101235007A1A79B31208A3E49000FBF030D80FC2F4
:10124500D81218179000FBEFF0BF1502D20920093C
:10125500079000FBE0B41526C2097FC87E00121E68
:10126500CB121CE99000FBEFF060137BFF7A1A7933
:10127500C3E0FF900108E4F0A3EFF01208A37F6438
:101285007E00121ECB7F33121581AD07AC06EDF43F
:101295007002ECF460A1ECFF9000FAF0AE0590004E
:1012A500FCEEF01219749000FCE0FF9000FA601952
:1012B500E075F018A42400F582E43400F58375F098
:1012C50006EF1214D7E0FF8010E075F006A424E6BF
:1012D500F582E43400F583E0FF9000FDEFF0540F54
:1012E50070030213BBE0FE547F4490FFEE30E70429
:1012F5007DC080027D00E4FBFA12174C9000FBEFE5
:10130500F060030213A29000FDE06480F09000FC01
:10131500E0FF601FA3E0FE9000FAE075F018A4243A
:1013250000F582E43400F58375F006EF1214D7EE6C
:10133500F080189000FDE0FF9000FAE075F006A43B
:1013450024E6F582E43400F583EFF09000FCE5DB5C
:10135500F0E0606B7BFF7A1A79DE1208A3E4900057
:10136500FAF09000FCE0FF9000FAE0FEC39F5025E4
:101375007BFF7A1A79EB74612EF582E43400F583EC
:10138500E0FF900108E4F0A3EFF01208A39000FA43
:10139500E004F080CD7BFF7A1A79F2801F9000FB84
:1013A500E0FF642A60197BFF7A1A79F4900108E45A
:1013B500F0A3EFF080067BFF7A1B79061208A37F66
:0713C50001121F1D02123C82
:100B9D004855422025782064657620696E0A004804
:100BAD00554220257820646576206F75740A0052B1
:100BBD006573657420726F6F7420687562202531BE
:100BCD00642320706F72740A0044697361626C65EE
:100BDD0020726F6F74206875622025316423207038
:100BED006F72742062656361757365206F66206432
:100BFD006973636F6E6E6563740A0047657444654F
:100C0D007644657363723A2000782530325820009F
:100C1D000A0047657443666744657363723A200042
:100C2D005553422D4469736B2052656164790A00F6
:100C3D005553422D5072696E742052656164790A64
:100C4D00005553422D4B6579626F61726420526578
:100C5D006164790A005553422D4D6F7573652052AD
:100C6D00656164790A00476574487562446573630C
:100C7D00723A20004578742D48554220506F727499
:100C8D005F2531642320706F776572206F6E20654C
:100C9D0072726F720A00496E6974526F6F74446597
:100CAD007620457272203D20253032580A00456E5F
:100CBD00756D416C6C526F6F744465760A00496EA8
:100CCD0069742064657620404578744875622D708E
:100CDD006F72745F253164200040526F6F745F2511
:100CED0031640A00546869732070726F6772616DA8
:100CFD0020646F6E277420737570706F7274204C42
:100D0D006576656C2032204855420A00496E69743B
:100D1D004465764F6E48756220457272203D2025E0
:100D2D003032580A00456E756D487562506F727499
:100D3D000A00466F756E642066756C6C2073706565
:100D4D00656420646576696365206F6E20706F72CF
:100D5D0074202531640A00466F756E64206C6F77C0
:100D6D0020737065656420646576696365206F6EB8
:100D7D0020706F7274202531640A0052657365749A
:100D8D0020706F727420616E64207468656E2077B8
:100D9D0061697420696E0A00446576696365206F28
:100DAD006E20706F7274202531642072656D6F76C0
:100DBD0065640A00456E756D416C6C487562506FC7
:100DCD0072740A00456E756D416C6C487562506F9A
:100DDD00727420657272203D20253032580A0080D1
:100DED000600010000120080060002000004000051
:100DFD0005020000000000000900000000000002D4
:0F0E0D0001000000000000A006002900000900FD
:101C5700EF75F006A424E1F582E43400F583E4F09F
:101C6700EF75F006A424E2F582E43400F583E4F08E
:101C7700EF14601314601914601F24037023E5D157
:101C870054F04408F5D122E5D1540F4480F5D12210
:101C9700E5E154F04408F5E122E5E1540F4480F50D
:021CA700E12238
:101EB100EFC394025004AED18002AEE1EF30E004F2
:0A1EC1007F1080027F01EE5FFF2218
:10181700E49000FEF0A3F09000FFE0FF6404700383
:101827000218D774017E00A807088005C333CE339A
:10183700CED8F9FFADEBEF5D60539000FFE0FF7589
:10184700F006A424E1F582E43400F583E060061293
:101857001EB1EF70729000FFE0FF121C579000FF5F
:10186700E0FF75F006A424E1F582E43400F5837403
:1018770001F07BFF7A0B799D7E0090010814F0A39D
:10188700EFF01208A39000FE7415F0803A9000FF65
:10189700E0FF75F006A424E1F582E43400F583E067
:1018A700C394014022121C577BFF7A0B79AC90003E
:1018B700FFE0FF900108E4F0A3EFF01208A3900007
:1018C700FEE070037416F09000FFE004F002181EAB
:0518D7009000FEE0FF9F
:0118DC0022E9
:0C1F2B00EF547FFFE5E354804FF5E32204
:0E1F1D00EF600753E2BF53D27F2243E240221F
:1018DD00900105EFF0A3EDF09000007408F0E4FF27
:1018ED00121F2B7F01121F1D900106E0FFD39401E3
:1018FD005037900105E014601414601B146022240D
:10190D00037026E5D154F0440AF5D1801CE5D1547D
:10191D000F44A0F5D18012E5E154F0440AF5E180C1
:10192D0008E5E1540F44A0F5E1EF70067F0BFE12C0
:10193D001ECB900106E064016023900105E0146068
:10194D000F1460111460132403701253D1FD800D18
:10195D0053D1DF800853E1FD800353E1DF7FC87E63
:07196D0000121D91C2D822F7
:10166E00AD07EDC394044003021749ED75F006A4CF
:10167E0024E1F582E43400F583E0C394015011EDCA
:10168E0075F006A424E1F582E43400F5837401F0CC
:10169E0074017E00A805088005C333CE33CED8F979
:1016AE00FFACEBECFBEF5B7003021749AF05121EAC
:1016BE00B1EF706274107E00A805088005C333CEAA
:1016CE0033CED8F9FFACEBECFBEF5B60047F008010
:1016DE00027F01ED75F006A424E3F582E43400F5F3
:1016EE0083EFF0ED75F006A424E3F582E43400F503
:1016FE0083E07022EDC39402500FED30E0047F4082
:10170E0080027F04EF42D1800DED30E0047F4080F7
:10171E00027F04EF42E1EDC39402500FED30E0047E
:10172E007F1080027F01EF42D1800DED30E0047F0B
:0E173E001080027F01EF42E17F00227F162221
:10197400AE07ED6052EE75F018A424FFF582E4344E
:10198400FFF58375F006ED1214D7E0900000F0EE39
:1019940075F018A424FCF582E434FFF58375F00691
:1019A400ED1214D7E0FF121F2BEE75F018A424FDDE
:1019B400F582E434FFF58375F006ED1214D7E0FFE9
:1019C400703B43D2808036EE75F006A424E5F582A0
:1019D400E43400F583E0900000F0EE75F006A424F2
:1019E400E2F582E43400F583E0FF121F2BEE75F07C
:1019F40006A424E3F582E43400F583E0FF121F1DFE
:061A04009000F9EEF02253
:101E7A007F907E0120D90B05A1EF1F70011EEF4E46
:0B1E8A0070F230D9047F0080027FFE60
:011E9500222A
:0B174C0090010BEFF0A3EAF0A3EBF01C
:10175700AF058FD68FD4E4A3F090010BE0F5D5C287
:10176700D97F907E0120D90B05A1EF1F70011EEFD5
:101777004E70F2E4F5D520D9037FFE2230DE037FD9
:101787000022E5D9540FFFB40E028047EFB40A2DAB
:1017970090010CE0FCA3E0FD4C7003EF8042C3ED29
:1017A70094FFEC94FF500E90010DE024FFF09001A0
:1017B7000CE034FFF090010EE014F0802A90010B4A
:1017C700E0C4540F24F7600D24FC6004240C70144B
:1017D700EF6014800BEFB40304640B600AEF60073B
:1017E7004420FF227FFE227F0F7E00121D9130D8FA
:1017F7000E9000F9E0FF121EB1EF70037F162290E2
:0F180700010EE004F0C3940350030217607F202A
:0118160022AF
:10105900A3F0A3EDF0A3E4F0A3EFF0A3E4F0A3F071
:05106900A3F0FDFFFEF5
:10106E00900108EEF0A3EFF0A3EDF07FC87E001222
:10107E001D9190010AE06003F8E4F675D7087B1025
:10108E007A27E4FD7FD012174C900106EFF0600333
:10109E00E0FF2275D6D075D4D075D7019000A8E0A8
:1010AE0060047FFF80059000A7E0FF900107EFF03E
:1010BE0070030211E2A3E07002A3E070030211E2DA
:1010CE009000A1E020E703021166900107E0700393
:1010DE000211617FC87E00121D917B107A27ADD45C
:1010EE007F9012174C900106EFF0E0FF6001229006
:1010FE000107E0FFE5DBC39F5006AEDBAF068000C5
:10110E00AD07900107E0C39FF090010AE06004F87C
:10111E00ED26F6E4FFEF6D602A74612FF582E4345C
:10112E0000F583E0FE900108E0FAA3E0F5828A83E1
:10113E00EEF0900109E004F07006900108E004F072
:10114E000F80D2E5DB600C900000E01455DB7003DD
:10115E000210D8E4F5D7807C900107E060767FC856
:10116E007E00121D91900000E0FF900107E0FEC38B
:10117E009F40028002AF068FD7E4FFEF65D7602A4B
:10118E00900108E0FCA3E0F5828C83E0FE74A12FB1
:10119E00F582E43400F583EEF0900109E004F0707E
:1011AE0006900108E004F00F80D17B107A27ADD6AF
:1011BE007F1012174C900106EFF0E0FF60012290B5
:1011CE000107E0C395D7F090010AE0608BF8E5D7F0
:1011DE0026F680847FC87E00121D91E5D760047FBD
:1011EE009080027F107B107A277DC012174C9001E1
:1011FE0006EFF06003E0FF22E5D77002FF22E5DB89
:06120E007002FF227F17B1
:0112140022B7
:101E3C00E4FD8F828E83E493FC74A12DF582E4344F
:0F1E4C0000F583ECF00FBF00010E0DEDB408E3BD
:011E5B002264
:101D5D009000007408F07E0D7FEC121E3C7E007F1B
:101D6D00A17D0812106EEF6001229000A8E0900096
:101D7D0000F0900DF2E493FFE508C39F50037F1729
:031D8D00227F00B2
:011D90002230
:101B94007E0D7FF4121E3C7E007FA17D0812106E24
:101BA400EF600122900DFAE493FEE508C39E500312
:101BB4007F17229000A3E0F508E508D39440400382
:101BC4007F17227E0D7FF4121E3C9000A7E508F0DB
:101BD4007E007FA17D0812106EEF600122900DFA45
:101BE400E493FFE508C39F400A9000A3E0FFE508E3
:081BF4009F50037F17227F00C0
:011BFC0022C6
:051DC300900105EFF0A6
:101DC8007E0D7FFC121E3C900105E09000A3F0E41C
:101DD800FDFFFE12106EEF600122900105E0FF1278
:0B1DE8001F2B7F0A7E00121ECB7F0025
:011DF30022CD
:051E9600900102E0FFD5
:101E9B00AB077E0E7F04121E3C9000A3EBF0E4FD1B
:061EAB00FFFE12106E2282
:101EF900AB077E0E7F0C121E3C9000A5EBF0E4FDB3
:061F0900FFFE12106E2223
:101E1B007E0E7F14121E3C7E007FA17D0812106E79
:101E2B00EF600122E508C3940450037F17227F0063
:011E3B002284
:051D2400900135E0FF15
:101D29009000A174A3F0A3E4F0A3F0A3F0A3EFF053
:101D3900A3E4F0A37404F0A3E4F07E007FA17D0D79
:101D490012106EEF600122E50DC3940450037F1752
:031D5900227F00E6
:011D5C002264
:0C1F37009000A17423F0740312105922D2
:0C1F43009000A17423F0740112105922C8
:101BFD00E4F9FC8F828E83A3A3E0FBECC39B5047DB
:101C0D00EF2CF582E43EF583A3E064057025EF2CFF
:101C1D00F582E43EF583A3A3A3E05403FBBB0313BA
:101C2D00EF2CF582E43EF583A3A3E030E705540FD6
:101C3D00F98014EF2CF582E43EF583E0FDD394108A
:091C4D005005ED2CFC80ACAF0148
:011C5600226B
:050003009000FFEFF08A
:100008007BFF7A0B79BC900108E4F0A3EFF01208AB
:10001800A39000FFE0FFE4FD1218DDE4900100F07A
:10002800A3F07F017E00121ECB9000FFE0FF1216A6
:100038006EEF700E900100F0A3E004F0E0D394504E
:10004800500C900100E004F0E0C3946440D49001A7
:1000580000E060219000FFE0FF121C577BFF7A0B45
:1000680079D69000FFE0FF900108E4F0A3EFF012CA
:1000780008A37F16229000FFE0FFE4FD1219747BAD
:10008800FF7A0C79081208A3121D5D900101EFF0A8
:100098006003020474900000E0FF9000FFE075F038
:1000A80006A424E5F582E43400F583EFF0E490013A
:1000B80000F0900DF2E493FF900100E0FEC39F5022
:1000C800257BFF7A0C791674A12EF582E43400F5AD
:1000D80083E0FF900108E4F0A3EFF01208A3900179
:1000E80000E004F080CC7BFF7A0C791D1208A39005
:1000F80000A5E0900103F0900DFEE493FF9000FF4F
:10010800E02FFF121DC3900101EFF0600302047499
:10011800900DFE93FF9000FFE0FE2FFFEE75F006B6
:10012800A424E2F582E43400F583EFF07BFF7A0C37
:10013800791F1208A3121B94900101EFF0600302CB
:1001480004749000A6E0900102F0E4900100F090A1
:1001580000A3E0FF900100E0FEC39F50257BFF7ADB
:100168000C791674A12EF582E43400F583E0FF9033
:100178000108E4F0A3EFF01208A3900100E004F0F6
:1001880080CD7BFF7A0C791D1208A39000AFE09018
:100198000104F0900103E07042A3E06408703C128F
:1001A8001E96900101EFF060030204749000FFE0D6
:1001B800FF75F006A424E1F582E43400F5837403A6
:1001C800F0EF75F006A424E4F582E43400F58374B6
:1001D80008F07BFF7A0C792D0202DE900103E070B3
:1001E8004AA3E0640770449000B0E06401703C12D8
:1001F8001E96900101EFF060030204749000FFE086
:10020800FF75F006A424E1F582E43400F583740355
:10021800F0EF75F006A424E4F582E43400F5837465
:1002280007F07BFF7A0C793D0202DE900103E06063
:10023800030202EDA3E0640360030202ED9000B044
:10024800E0D3940140030202ED7E007FA1121BFD62
:10025800900101EFF0540FFF9000FFE075F006A445
:1002680024E6F582E43400F583EFF09000B1E090E5
:100278000104F0121E96900101EFF060030204746D
:100288009000FFE0FF75F006A424E1F582E4340055
:10029800F5837403F0900104E0B40119EF75F006DA
:1002A800A424E4F582E43400F5837423F07BFF7A18
:1002B8000C794E8021900104E0B402209000FFE008
:1002C80075F006A424E4F582E43400F5837433F071
:1002D8007BFF7A0C79621208A302046D9001017405
:1002E800FBF0020474900103E06409600302043027
:1002F8007BFF7A0C79731208A3121E1B900101EF81
:10030800F06003020474900100F09000A1E0FF90F7
:100318000100E0FEC39F50257BFF7A0C791674A17B
:100328002EF582E43400F583E0FF900108E4F0A3A1
:10033800EFF01208A3900100E004F080CD7BFF7A73
:100348000C791D1208A39000A3E0FF9000FFE0FEC7
:1003580075F006A424E6F582E43400F583EFF0EEA8
:1003680075F006A424E6F582E43400F583E0D3941E
:10037800044011EE75F006A424E6F582E43400F595
:10038800837404F0121E96900101EFF060030204DA
:10039800749000FFE0FF75F006A424E1F582E434D0
:1003A80000F5837403F0EF75F006A424E4F582E405
:1003B8003400F5837409F09001007401F09000FF97
:1003C800E0FF75F006A424E6F582E43400F583E046
:1003D800FE900100E0D39E504DEF75F018A424FB69
:1003E800F582E434FFF583C083C082900100E0FF0A
:1003F800D082D08375F0061214D7E4F07D08121F5E
:1004080037900101EFF060167BFF7A0C798190013B
:1004180000E0FF900108E4F0A3EFF01208A39001B8
:1004280000E004F08097803D121E96900101EFF0E5
:10043800703A9000FFE0FF75F006A424E1F582E42D
:100448003400F5837403F0900103E0FE6002800538
:10045800900104E0FEEF75F006A424E1F582E4348F
:1004680000F583EEF07F01121F1D1F227BFF7A0C1F
:1004780079A3900101E0FF900108E4F0A3EFF012E6
:1004880008A39000FFE075F006A424E1F582E434A7
:1004980000F5837402F07F01121F1D900101E0FF37
:0104A8002231
:101CE9007BFF7A0C79BB1208A3E49000FEF0900008
:101CF900FEE0FF64046021EF75F006A424E1F5829B
:101D0900E43400F583E0B40107120003EF60012217
:0A1D19009000FEE004F080D67F0089
:011D2300229D
:0804A90090012DEFF0A3EDF02E
:1004B1007BFF7A0C79CBFF900108E4F0A3EFF012F7
:1004C10008A37BFF7A0C79E690012DE0FF900108EB
:1004D100E4F0A3EFF01208A390012EE0FD70037F7A
:1004E100FE2290012DE0FF1219747BFF7A0C79082E
:1004F1001208A3121D5D900130EFF06003E0FF22AE
:10050100900000E0FF90012DE0FE75F018A424FF9B
:10051100F582E434FFF583C083C08290012EE0FDB3
:10052100D082D08375F0061214D7EFF09000A5E0C9
:10053100900132F0EE04C454F0FFED2FFF90013131
:10054100F0121DC3900130EFF06003E0FF22900133
:1005510031E0FF90012DE075F018A424FCF582E450
:1005610034FFF583C083C08290012EE0D082D08316
:1005710075F0061214D7EFF07BFF7A0C791F120881
:10058100A3121B94900130EFF06003E0FF22900072
:10059100A6E0900131F0E490012FF09000A3E0FF7C
:1005A10090012FE0FEC39F50257BFF7A0C791674D2
:1005B100A12EF582E43400F583E0FF900108E4F018
:1005C100A3EFF01208A390012FE004F080CD7BFF90
:1005D1007A0C791D1208A39000AFE0900133F090DE
:1005E1000132E07061A3E06408705B900131E0FFCB
:1005F100121E9B900130EFF060030207F190012D74
:10060100E0FF75F018A424FBF582E434FFF583C004
:1006110083C08290012EE0FED082D08375F0061255
:1006210014D77403F0EF75F018A424FEF582E434B6
:10063100FFF58375F006EE1214D77408F07BFF7A8C
:100641000C792D020733900132E0600302073BA3CE
:10065100E06403600302073B9000B0E0D3940140E3
:100661000302073B7E007FA1121BFD900130EFF0DA
:1006710090012DE075F018A42400F582E43400F512
:1006810083C083C08290012EE0D082D08375F006B2
:100691001214D7EFF09000B1E0900133F0900131E6
:1006A100E0FF121E9B900130EFF060030207F19012
:1006B100012DE0FF75F018A424FBF582E434FFF569
:1006C10083C083C08290012EE0FED082D08375F07A
:1006D100061214D77403F0900133E0B40120EF75D2
:1006E100F018A424FEF582E434FFF58375F006EEDC
:1006F1001214D77423F07BFF7A0C794E8034900169
:1007010033E06402703290012DE075F018A424FEEC
:10071100F582E434FFF583C083C08290012EE0D0DE
:1007210082D08375F0061214D77433F07BFF7A0CF4
:1007310079621208A30207EA804B900132E0640952
:10074100704B90012DE075F018A424FEF582E4347D
:10075100FFF583C083C08290012EE0D082D08375E3
:10076100F0061214D77409F07BFF7A0C79F11208A4
:10077100A390012FE0FF7D01121F43900130EFF0A4
:100781006003E0FF2290013074FBF080639001313F
:10079100E0FF121E9B900130EFF0705490012DE0AC
:1007A100FF75F018A424FBF582E434FFF583C083C0
:1007B100C08290012EE0FED082D08375F006121423
:1007C100D77403F0900132E0FD600280059001339F
:1007D100E0FDEF75F018A424FEF582E434FFF58303
:1007E10075F006EE1214D7EDF07F01121F1D1F22C6
:1007F1007BFF7A0D7919900130E0FF900108E4F058
:10080100A3EFF01208A390012DE075F018A424FBCA
:10081100F582E434FFF583C083C08290012EE0D0DD
:1008210082D08375F0061214D77402F07F01121F73
:060831001D900130E0FF04
:01083700229E
:050E1C00900134EFF02D
:100E21007BFF7A0D79321208A39001357401F0909D
:100E31000134E0FF75F006A424E6F582E43400F500
:100E410083E0FE900135E0D39E4003021056E4FD9D
:100E5100121974121D24900136EFF06003E0FF2295
:100E61009000A1E020E003020FD99000A3E020E070
:100E710003020FD9900134E0FE75F018A424FBF5AC
:100E810082E434FFF583C083C082900135E0FFD056
:100E910082D08375F0061214D77401F0EE75F01844
:100EA100A424FCF582E434FFF58375F006EF1214F7
:100EB100D7E4F0121D29900136EFF06003E0FF2224
:100EC1009000A2E030E1047F0080027F01900134B4
:100ED100E0FE75F018A424FDF582E434FFF583C02B
:100EE10083C082900135E0FDD082D08375F0061277
:100EF10014D7EFF0EE75F018A424FDF582E434FF69
:100F0100F58375F006ED1214D7E07BFF60077A0DCB
:100F1100793FED80087A0D7964900135E0FF900109
:100F210008E4F0A3EFF01208A37FC87E00121ECBE5
:100F3100900135E0FF7D04121F37900136EFF0601C
:100F410003E0FF227BFF7A0D79881208A37F017EDF
:100F510000121ECB121D24900136EFF06003E0FF5A
:100F6100229000A1E020E4E57F647E00121ECB9078
:100F71000135E0FF7D10121F43900136EFF0600351
:100F8100E0FF22121D24900136EFF06003E0FF2202
:100F91009000A1E020E025900134E075F018A42430
:100FA100FBF582E434FFF583C083C082900135E014
:100FB100D082D08375F0061214D7E4F0900134E0AA
:100FC100FFA3E0FD1204A9900136EFF06003E0FFFA
:100FD100227F01121F1D80749000A1E020E06D901E
:100FE1000134E075F018A424FBF582E434FFF583A5
:100FF100C083C082900135E0FFD082D08375F006B6
:101001001214D7E0C3940140117BFF7A0D79A590AA
:101011000108E4F0A3EFF01208A3900134E075F0A9
:1010210018A424FBF582E434FFF583C083C08290C9
:101031000135E0FFD082D08375F0061214D7E4F0B9
:101041009000A3E030E0057D10121F43900135E0D0
:0710510004F0020E307F00E5
:011058002275
:101B23007BFF7A0D79C11208A3E4900137F090018D
:101B330037E0FF64026057EF75F006A424E1F582F5
:101B4300E43400F583E0C39403403B900137E07530
:101B5300F006A424E4F582E43400F583E06409701C
:101B630025FD121974900137E0FF120E1CEF60116E
:101B73007BFF7A0D79D1900108E4F0A3EFF012080E
:101B8300A37F01121F1D900137E004F080A07F00A6
:011B9300222F
:051581009000FEEFF0F8
:10158600E4A3F09000FFE0FF64047003021669EF25
:1015960075F006A424E4F582E43400F583E0FD90BA
:1015A60000FEE0FFEDB5071BA3E0FF75F006A424DF
:1015B600E1F582E43400F583E0C394034005EF7F50
:1015C60000FE22ED640960030216609000FFE075DC
:1015D600F006A424E1F582E43400F583E0C3940325
:1015E60040789001007401F09000FFE0FF75F0066E
:1015F600A424E6F582E43400F583E0FE900100E0E1
:10160600FDD39E5055EF75F018A424FEF582E43400
:10161600FFF58375F006ED1214D7E0FF9000FEE0AB
:10162600FEEF6E702DA3E0FF75F018A424FBF58283
:10163600E434FFF583C083C082900100E0D082D0FD
:101646008375F0061214D7E0C394034005EFFEED50
:10165600FF22900100E004F0808E9000FFE004F08D
:071666000215897EFF7FFFE2
:01166D00225A
:101CA900C2EA75E280E4F5E39021E17448F075E554
:101CB9000075E46175E70075E6A1E4F5D4F5D6751C
:101CC900D18875E18875E28875D24075D8FFFEAF75
:0F1CD90006121C570EEEB404F69021E27403F0CD
:011CE80022D9
:03000000021F4F8D
:0C1F4F00787FE4F6D8FD758121021215A0
:1013CC0075F008758200EF2FFFEE33FECD33CDCCD8
:1013DC0033CCC58233C5829BED9AEC99E58298405B
:1013EC000CF582EE9BFEED9AFDEC99FC0FD5F0D638
:1013FC00E4CEFBE4CDFAE4CCF9A88222B800C1B962
:10140C000059BA002DEC8BF084CFCECDFCE5F0CB9F
:10141C00F97818EF2FFFEE33FEED33FDEC33FCEBD8
:10142C0033FB10D703994004EB99FB0FD8E5E4F993
:10143C00FA227818EF2FFFEE33FEED33FDEC33FC80
:10144C00C933C910D7059BE99A4007EC9BFCE99A74
:10145C00F90FD8E0E4C9FAE4CCFB2275F010EF2FB9
:10146C00FFEE33FEED33FDCC33CCC833C810D707B9
:10147C009BEC9AE899400AED9BFDEC9AFCE899F8F4
:0E148C000FD5F0DAE4CDFBE4CCFAE4C8F92287
:0C149A00ECF0A3EDF0A3EEF0A3EFF022C5
:1014A600A8828583F0D083D0821214BD1214BD1297
:1014B60014BD1214BDE473E493A3C583C5F0C583BC
:1014C600C8C582C8F0A3C583C5F0C583C8C582C890
:0114D60022F3
:0C14D700A42582F582E5F03583F5832220
:10083800E5082408F582E43401F583E005082290F0
:100848000105300703900108E475F00112153B0219
:1008580014E32000E97F2ED2008018EF540F249073
:10086800D43440D4FF30040BEF24BFB41A00500333
:100878002461FFE50960021509050CE50C70020505
:100888000B30070E900105E475F00112153BEF02DD
:100898001529021DF47403D2078003E4C207F50882
:1008A800900105121552E4F509F50BF50CE5096000
:1008B800077F2012087B80F5750AFFC201C200C2BB
:1008C80002C203C205C206C208120847FF700D30F3
:1008D80007057F0012088CAF0CAE0B22B4255FC24F
:1008E800D5C204120847FF24D0B40A00501A75F084
:1008F8000A780930D50508B6FF0106C6A426F620F1
:10090800D5047002D20380D924CFB41A00EF500462
:10091800C2E5D204020A8DD20180C6D20080C0D2BC
:100928000280BCD2D580BAD20580B47F2012087B61
:100938002002077401B5090040F1120838FF1208B7
:100948007B0208B5D208D2068095120838FB120837
:1009580038FA120838F94A4B7006795E7A0B7BFF31
:1009680020022EE509602A7E008E8275830012140B
:10097800FC60060EEE650A70F0C2D5EBC0E0EAC076
:10098800E0E9C0E0EE120AD4D0E0F9D0E0FAD0E015
:10099800FB1214E3FF60AAEBC0E0EAC0E0E9C0E0A4
:1009A80012087BD0E02401F9D0E03400FAD0E0FB53
:1009B800E50A0460DCD50AD980877BFF7A0A79D0FA
:1009C800D202809C791080027908C206C208800889
:1009D800D2D5790A8004790AC2D5E50A047002F5ED
:1009E8000AE4FAFDFEFF120838FC7B082001131206
:1009F8000838FD7B1030000A120838FE120838FF4C
:100A08007B20EC3382D592D55013C3E43000069F87
:100A1800FFE49EFEE42001039DFDE49CFCE4CBF88A
:100A2800C201EC700CCFCECDCCE824F8F870F3807E
:100A380017C3EF33FFEE33FEED33FDEC33FCEB333E
:100A4800FB994002FB0FD8E9EB300105F8D0E0C470
:100A580048B201C0E00AEC4D4E4F78207B0070C2CE
:100A6800EAB50A0040BCC0E0120AD6D0F0D0E020B7
:100A78000104C4C0E0C4B201C0F0120864D0F0D5CB
:100A8800F0EB0208B512155B09525309CC5809233B
:100A98004C091F4209D04F09D84409D8490938439D
:080AA80009DE5509C24609C22E
:100AB0004509C2470B7E5009272D092B2E094E2BC5
:100AC000092F23094C200B672A08E7480000094634
:100AD0003F3F3F00790AA2D5200314300509B91021
:100AE000020404B9080104A2D52006025001042022
:100AF00002689202B509005034C0E07F203003192B
:100B00007F30A20272067205500F120B2DC202C274
:100B100006C205C2087F30800F300503E9C0E0122D
:100B2000087B300503D0E0F9D0E0B509CC300517DB
:100B30007F30B9100C12087B7F583004077F788013
:100B400003B9080312087B3002057F2D02087B7F62
:100B5000202008F87F2B2006F322920280CF286EF7
:100B6000756C6C2900D2011208383001F8C2017886
:100B70000930D50108F60208E72D504349581208FC
:100B8000382403B405004001E4900B799312086CFB
:0D0B9000743A12086CD2037509040209CCF6
:1014E300BB010689828A83E0225002E722BBFE0207
:0914F300E32289828A83E493223A
:1014FC00BB010CE58229F582E5833AF583E02250A5
:10150C0006E92582F8E622BBFE06E92582F8E222EE
:0D151C00E58229F582E5833AF583E4932208
:10152900BB010689828A83F0225002F722BBFE01A1
:02153900F3229B
:10153B00F8E0FBA3A3E0F925F0F0E5821582700239
:07154B001583E0FA38F022DD
:09155200EBF0A3EAF0A3E9F0229A
:10155B00D083D082F8E4937012740193700DA3A31F
:10156B0093F8740193F5828883E473740293686033
:06157B00EFA3A3A380DF33
:101DF400EFB40A07740D121DFF740A309811A899E4
:101E0400B8130CC2983098FDA899C298B811F6304E
:071E140099FDC299F5992226
:00000001FF
